{
  "_format": "hh-sol-artifact-1",
  "contractName": "BoardingPass",
  "sourceName": "contracts/BoardingPass.sol",
  "abi": [
    {
      "inputs": [],
      "stateMutability": "nonpayable",
      "type": "constructor"
    },
    {
      "anonymous": false,
      "inputs": [
        {
          "indexed": true,
          "internalType": "address",
          "name": "owner",
          "type": "address"
        },
        {
          "indexed": true,
          "internalType": "address",
          "name": "approved",
          "type": "address"
        },
        {
          "indexed": true,
          "internalType": "uint256",
          "name": "tokenId",
          "type": "uint256"
        }
      ],
      "name": "Approval",
      "type": "event"
    },
    {
      "anonymous": false,
      "inputs": [
        {
          "indexed": true,
          "internalType": "address",
          "name": "owner",
          "type": "address"
        },
        {
          "indexed": true,
          "internalType": "address",
          "name": "operator",
          "type": "address"
        },
        {
          "indexed": false,
          "internalType": "bool",
          "name": "approved",
          "type": "bool"
        }
      ],
      "name": "ApprovalForAll",
      "type": "event"
    },
    {
      "anonymous": false,
      "inputs": [
        {
          "indexed": true,
          "internalType": "address",
          "name": "previousOwner",
          "type": "address"
        },
        {
          "indexed": true,
          "internalType": "address",
          "name": "newOwner",
          "type": "address"
        }
      ],
      "name": "OwnershipTransferred",
      "type": "event"
    },
    {
      "anonymous": false,
      "inputs": [
        {
          "indexed": true,
          "internalType": "address",
          "name": "from",
          "type": "address"
        },
        {
          "indexed": true,
          "internalType": "address",
          "name": "to",
          "type": "address"
        },
        {
          "indexed": true,
          "internalType": "uint256",
          "name": "tokenId",
          "type": "uint256"
        }
      ],
      "name": "Transfer",
      "type": "event"
    },
    {
      "inputs": [
        {
          "internalType": "address",
          "name": "to",
          "type": "address"
        },
        {
          "internalType": "uint256",
          "name": "tokenId",
          "type": "uint256"
        }
      ],
      "name": "approve",
      "outputs": [],
      "stateMutability": "nonpayable",
      "type": "function"
    },
    {
      "inputs": [
        {
          "internalType": "address",
          "name": "owner",
          "type": "address"
        }
      ],
      "name": "balanceOf",
      "outputs": [
        {
          "internalType": "uint256",
          "name": "",
          "type": "uint256"
        }
      ],
      "stateMutability": "view",
      "type": "function"
    },
    {
      "inputs": [],
      "name": "getAllTokensFromAdress",
      "outputs": [
        {
          "internalType": "uint256[]",
          "name": "",
          "type": "uint256[]"
        }
      ],
      "stateMutability": "view",
      "type": "function"
    },
    {
      "inputs": [
        {
          "internalType": "uint256",
          "name": "tokenId",
          "type": "uint256"
        }
      ],
      "name": "getApproved",
      "outputs": [
        {
          "internalType": "address",
          "name": "",
          "type": "address"
        }
      ],
      "stateMutability": "view",
      "type": "function"
    },
    {
      "inputs": [],
      "name": "getBalance",
      "outputs": [
        {
          "internalType": "uint256",
          "name": "",
          "type": "uint256"
        }
      ],
      "stateMutability": "view",
      "type": "function"
    },
    {
      "inputs": [],
      "name": "getLatestEthPrice",
      "outputs": [
        {
          "internalType": "uint256",
          "name": "",
          "type": "uint256"
        }
      ],
      "stateMutability": "view",
      "type": "function"
    },
    {
      "inputs": [
        {
          "internalType": "uint256",
          "name": "_tokenId",
          "type": "uint256"
        }
      ],
      "name": "getTokenCanceledValue",
      "outputs": [
        {
          "internalType": "bool",
          "name": "",
          "type": "bool"
        }
      ],
      "stateMutability": "view",
      "type": "function"
    },
    {
      "inputs": [
        {
          "internalType": "uint256",
          "name": "_tokenId",
          "type": "uint256"
        }
      ],
      "name": "getTokenURI",
      "outputs": [
        {
          "internalType": "string",
          "name": "",
          "type": "string"
        }
      ],
      "stateMutability": "view",
      "type": "function"
    },
    {
      "inputs": [
        {
          "internalType": "uint256",
          "name": "usdPrice",
          "type": "uint256"
        }
      ],
      "name": "getWeiByUSD",
      "outputs": [
        {
          "internalType": "uint256",
          "name": "",
          "type": "uint256"
        }
      ],
      "stateMutability": "view",
      "type": "function"
    },
    {
      "inputs": [
        {
          "internalType": "address",
          "name": "owner",
          "type": "address"
        },
        {
          "internalType": "address",
          "name": "operator",
          "type": "address"
        }
      ],
      "name": "isApprovedForAll",
      "outputs": [
        {
          "internalType": "bool",
          "name": "",
          "type": "bool"
        }
      ],
      "stateMutability": "view",
      "type": "function"
    },
    {
      "inputs": [
        {
          "internalType": "string",
          "name": "_num",
          "type": "string"
        },
        {
          "internalType": "string",
          "name": "_departure",
          "type": "string"
        },
        {
          "internalType": "string",
          "name": "_destination",
          "type": "string"
        },
        {
          "internalType": "string",
          "name": "_boardingDate",
          "type": "string"
        },
        {
          "internalType": "string",
          "name": "_boardingTime",
          "type": "string"
        },
        {
          "internalType": "bool",
          "name": "_canceled",
          "type": "bool"
        },
        {
          "internalType": "uint256",
          "name": "_price",
          "type": "uint256"
        },
        {
          "internalType": "uint256",
          "name": "_wei",
          "type": "uint256"
        }
      ],
      "name": "mint",
      "outputs": [],
      "stateMutability": "payable",
      "type": "function"
    },
    {
      "inputs": [],
      "name": "name",
      "outputs": [
        {
          "internalType": "string",
          "name": "",
          "type": "string"
        }
      ],
      "stateMutability": "view",
      "type": "function"
    },
    {
      "inputs": [],
      "name": "owner",
      "outputs": [
        {
          "internalType": "address",
          "name": "",
          "type": "address"
        }
      ],
      "stateMutability": "view",
      "type": "function"
    },
    {
      "inputs": [
        {
          "internalType": "uint256",
          "name": "tokenId",
          "type": "uint256"
        }
      ],
      "name": "ownerOf",
      "outputs": [
        {
          "internalType": "address",
          "name": "",
          "type": "address"
        }
      ],
      "stateMutability": "view",
      "type": "function"
    },
    {
      "inputs": [
        {
          "internalType": "uint256",
          "name": "_tokenId",
          "type": "uint256"
        }
      ],
      "name": "refund",
      "outputs": [],
      "stateMutability": "payable",
      "type": "function"
    },
    {
      "inputs": [],
      "name": "renounceOwnership",
      "outputs": [],
      "stateMutability": "nonpayable",
      "type": "function"
    },
    {
      "inputs": [
        {
          "internalType": "address",
          "name": "from",
          "type": "address"
        },
        {
          "internalType": "address",
          "name": "to",
          "type": "address"
        },
        {
          "internalType": "uint256",
          "name": "tokenId",
          "type": "uint256"
        }
      ],
      "name": "safeTransferFrom",
      "outputs": [],
      "stateMutability": "nonpayable",
      "type": "function"
    },
    {
      "inputs": [
        {
          "internalType": "address",
          "name": "from",
          "type": "address"
        },
        {
          "internalType": "address",
          "name": "to",
          "type": "address"
        },
        {
          "internalType": "uint256",
          "name": "tokenId",
          "type": "uint256"
        },
        {
          "internalType": "bytes",
          "name": "_data",
          "type": "bytes"
        }
      ],
      "name": "safeTransferFrom",
      "outputs": [],
      "stateMutability": "nonpayable",
      "type": "function"
    },
    {
      "inputs": [
        {
          "internalType": "address",
          "name": "operator",
          "type": "address"
        },
        {
          "internalType": "bool",
          "name": "approved",
          "type": "bool"
        }
      ],
      "name": "setApprovalForAll",
      "outputs": [],
      "stateMutability": "nonpayable",
      "type": "function"
    },
    {
      "inputs": [
        {
          "internalType": "bytes4",
          "name": "interfaceId",
          "type": "bytes4"
        }
      ],
      "name": "supportsInterface",
      "outputs": [
        {
          "internalType": "bool",
          "name": "",
          "type": "bool"
        }
      ],
      "stateMutability": "view",
      "type": "function"
    },
    {
      "inputs": [],
      "name": "symbol",
      "outputs": [
        {
          "internalType": "string",
          "name": "",
          "type": "string"
        }
      ],
      "stateMutability": "view",
      "type": "function"
    },
    {
      "inputs": [
        {
          "internalType": "uint256",
          "name": "_tokenId",
          "type": "uint256"
        }
      ],
      "name": "tokenURI",
      "outputs": [
        {
          "internalType": "string",
          "name": "",
          "type": "string"
        }
      ],
      "stateMutability": "view",
      "type": "function"
    },
    {
      "inputs": [
        {
          "internalType": "address",
          "name": "from",
          "type": "address"
        },
        {
          "internalType": "address",
          "name": "to",
          "type": "address"
        },
        {
          "internalType": "uint256",
          "name": "tokenId",
          "type": "uint256"
        }
      ],
      "name": "transferFrom",
      "outputs": [],
      "stateMutability": "nonpayable",
      "type": "function"
    },
    {
      "inputs": [
        {
          "internalType": "address",
          "name": "newOwner",
          "type": "address"
        }
      ],
      "name": "transferOwnership",
      "outputs": [],
      "stateMutability": "nonpayable",
      "type": "function"
    },
    {
      "inputs": [
        {
          "internalType": "uint256",
          "name": "_tokenId",
          "type": "uint256"
        },
        {
          "internalType": "bool",
          "name": "_isCanceled",
          "type": "bool"
        }
      ],
      "name": "updateTokenCanceledValue",
      "outputs": [],
      "stateMutability": "nonpayable",
      "type": "function"
    }
  ],
  "bytecode": "0x60806040523480156200001157600080fd5b506040518060400160405280600e81526020017f506c616e6548756220546f6b656e0000000000000000000000000000000000008152506040518060400160405280600381526020017f5048540000000000000000000000000000000000000000000000000000000000815250816000908051906020019062000096929190620001fb565b508060019080519060200190620000af929190620001fb565b505050620000d2620000c66200012d60201b60201c565b6200013560201b60201c565b738a753747a1fa494ec906ce90e9f37563a8af630e600760006101000a81548173ffffffffffffffffffffffffffffffffffffffff021916908373ffffffffffffffffffffffffffffffffffffffff16021790555062000310565b600033905090565b6000600660009054906101000a900473ffffffffffffffffffffffffffffffffffffffff16905081600660006101000a81548173ffffffffffffffffffffffffffffffffffffffff021916908373ffffffffffffffffffffffffffffffffffffffff1602179055508173ffffffffffffffffffffffffffffffffffffffff168173ffffffffffffffffffffffffffffffffffffffff167f8be0079c531659141344cd1fd0a4f28419497f9722a3daafe3b4186f6b6457e060405160405180910390a35050565b8280546200020990620002ab565b90600052602060002090601f0160209004810192826200022d576000855562000279565b82601f106200024857805160ff191683800117855562000279565b8280016001018555821562000279579182015b82811115620002785782518255916020019190600101906200025b565b5b5090506200028891906200028c565b5090565b5b80821115620002a75760008160009055506001016200028d565b5090565b60006002820490506001821680620002c457607f821691505b60208210811415620002db57620002da620002e1565b5b50919050565b7f4e487b7100000000000000000000000000000000000000000000000000000000600052602260045260246000fd5b61519a80620003206000396000f3fe6080604052600436106101665760003560e01c80633ea5025d116100d15780638da5cb5b1161008a578063b88d4fde11610064578063b88d4fde14610534578063c87b56dd1461055d578063e985e9c51461059a578063f2fde38b146105d757610166565b80638da5cb5b146104b557806395d89b41146104e0578063a22cb4651461050b57610166565b80633ea5025d1461039557806342842e0e146103d25780636352211e146103fb57806370a0823114610438578063715018a61461047557806381166f571461048c57610166565b806316acd8a71161012357806316acd8a71461028057806323b872dd146102ab578063278ecde1146102d457806330c0b9ec146102f05780633bb3a24d1461031b5780633d71dbd71461035857610166565b806301ffc9a71461016b57806306fdde03146101a8578063081812fc146101d3578063095ea7b3146102105780630f647b001461023957806312065fe014610255575b600080fd5b34801561017757600080fd5b50610192600480360381019061018d91906131ce565b610600565b60405161019f919061477b565b60405180910390f35b3480156101b457600080fd5b506101bd6106e2565b6040516101ca9190614796565b60405180910390f35b3480156101df57600080fd5b506101fa60048036038101906101f5919061334a565b610774565b60405161020791906146f2565b60405180910390f35b34801561021c57600080fd5b5061023760048036038101906102329190613192565b6107f9565b005b610253600480360381019061024e9190613220565b610911565b005b34801561026157600080fd5b5061026a610af3565b6040516102779190614a78565b60405180910390f35b34801561028c57600080fd5b50610295610afb565b6040516102a29190614759565b60405180910390f35b3480156102b757600080fd5b506102d260048036038101906102cd919061308c565b610b90565b005b6102ee60048036038101906102e9919061334a565b610bf0565b005b3480156102fc57600080fd5b50610305610eb6565b6040516103129190614a78565b60405180910390f35b34801561032757600080fd5b50610342600480360381019061033d919061334a565b610f74565b60405161034f9190614796565b60405180910390f35b34801561036457600080fd5b5061037f600480360381019061037a919061334a565b61138f565b60405161038c9190614a78565b60405180910390f35b3480156103a157600080fd5b506103bc60048036038101906103b7919061334a565b611454565b6040516103c9919061477b565b60405180910390f35b3480156103de57600080fd5b506103f960048036038101906103f4919061308c565b611481565b005b34801561040757600080fd5b50610422600480360381019061041d919061334a565b6114a1565b60405161042f91906146f2565b60405180910390f35b34801561044457600080fd5b5061045f600480360381019061045a9190613027565b611553565b60405161046c9190614a78565b60405180910390f35b34801561048157600080fd5b5061048a61160b565b005b34801561049857600080fd5b506104b360048036038101906104ae9190613373565b611693565b005b3480156104c157600080fd5b506104ca61173b565b6040516104d791906146f2565b60405180910390f35b3480156104ec57600080fd5b506104f5611765565b6040516105029190614796565b60405180910390f35b34801561051757600080fd5b50610532600480360381019061052d9190613156565b6117f7565b005b34801561054057600080fd5b5061055b600480360381019061055691906130db565b611978565b005b34801561056957600080fd5b50610584600480360381019061057f919061334a565b6119da565b6040516105919190614796565b60405180910390f35b3480156105a657600080fd5b506105c160048036038101906105bc9190613050565b611db7565b6040516105ce919061477b565b60405180910390f35b3480156105e357600080fd5b506105fe60048036038101906105f99190613027565b611e4b565b005b60007f80ac58cd000000000000000000000000000000000000000000000000000000007bffffffffffffffffffffffffffffffffffffffffffffffffffffffff1916827bffffffffffffffffffffffffffffffffffffffffffffffffffffffff191614806106cb57507f5b5e139f000000000000000000000000000000000000000000000000000000007bffffffffffffffffffffffffffffffffffffffffffffffffffffffff1916827bffffffffffffffffffffffffffffffffffffffffffffffffffffffff1916145b806106db57506106da82611f43565b5b9050919050565b6060600080546106f190614f14565b80601f016020809104026020016040519081016040528092919081815260200182805461071d90614f14565b801561076a5780601f1061073f5761010080835404028352916020019161076a565b820191906000526020600020905b81548152906001019060200180831161074d57829003601f168201915b5050505050905090565b600061077f82611fad565b6107be576040517f08c379a00000000000000000000000000000000000000000000000000000000081526004016107b590614978565b60405180910390fd5b6004600083815260200190815260200160002060009054906101000a900473ffffffffffffffffffffffffffffffffffffffff169050919050565b6000610804826114a1565b90508073ffffffffffffffffffffffffffffffffffffffff168373ffffffffffffffffffffffffffffffffffffffff161415610875576040517f08c379a000000000000000000000000000000000000000000000000000000000815260040161086c906149f8565b60405180910390fd5b8073ffffffffffffffffffffffffffffffffffffffff16610894612019565b73ffffffffffffffffffffffffffffffffffffffff1614806108c357506108c2816108bd612019565b611db7565b5b610902576040517f08c379a00000000000000000000000000000000000000000000000000000000081526004016108f9906148f8565b60405180910390fd5b61090c8383612021565b505050565b80341015610954576040517f08c379a000000000000000000000000000000000000000000000000000000000815260040161094b90614a38565b60405180910390fd5b61095e60086120da565b600061096a60086120f0565b905061097633826120fe565b60006040518060e001604052808b81526020018a81526020018981526020018881526020018781526020018615158152602001858152509050600960003373ffffffffffffffffffffffffffffffffffffffff1673ffffffffffffffffffffffffffffffffffffffff16815260200190815260200160002082908060018154018082558091505060019003906000526020600020016000909190919091505580600a60008481526020019081526020016000206000820151816000019080519060200190610a45929190612dcc565b506020820151816001019080519060200190610a62929190612dcc565b506040820151816002019080519060200190610a7f929190612dcc565b506060820151816003019080519060200190610a9c929190612dcc565b506080820151816004019080519060200190610ab9929190612dcc565b5060a08201518160050160006101000a81548160ff02191690831515021790555060c0820151816006015590505050505050505050505050565b600047905090565b6060600960003373ffffffffffffffffffffffffffffffffffffffff1673ffffffffffffffffffffffffffffffffffffffff168152602001908152602001600020805480602002602001604051908101604052809291908181526020018280548015610b8657602002820191906000526020600020905b815481526020019060010190808311610b72575b5050505050905090565b610ba1610b9b612019565b8261211c565b610be0576040517f08c379a0000000000000000000000000000000000000000000000000000000008152600401610bd790614a18565b60405180910390fd5b610beb8383836121fa565b505050565b610bf9816114a1565b73ffffffffffffffffffffffffffffffffffffffff163373ffffffffffffffffffffffffffffffffffffffff1614610c66576040517f08c379a0000000000000000000000000000000000000000000000000000000008152600401610c5d906147b8565b60405180910390fd5b6000610c87600a60008481526020019081526020016000206006015461138f565b90506003600482610c989190614c01565b610ca29190614da3565b9050804711610ce6576040517f08c379a0000000000000000000000000000000000000000000000000000000008152600401610cdd90614a58565b60405180910390fd5b610cef82612456565b600960003373ffffffffffffffffffffffffffffffffffffffff1673ffffffffffffffffffffffffffffffffffffffff168152602001908152602001600020600183610d3b9190614dfd565b81548110610d72577f4e487b7100000000000000000000000000000000000000000000000000000000600052603260045260246000fd5b9060005260206000200160009055600a600083815260200190815260200160002060008082016000610da49190612e52565b600182016000610db49190612e52565b600282016000610dc49190612e52565b600382016000610dd49190612e52565b600482016000610de49190612e52565b6005820160006101000a81549060ff0219169055600682016000905550506000803373ffffffffffffffffffffffffffffffffffffffff1683604051610e29906146dd565b60006040518083038185875af1925050503d8060008114610e66576040519150601f19603f3d011682016040523d82523d6000602084013e610e6b565b606091505b509150915081610eb0576040517f08c379a0000000000000000000000000000000000000000000000000000000008152600401610ea790614858565b60405180910390fd5b50505050565b600080600080600080600760009054906101000a900473ffffffffffffffffffffffffffffffffffffffff1673ffffffffffffffffffffffffffffffffffffffff1663feaf968c6040518163ffffffff1660e01b815260040160a06040518083038186803b158015610f2757600080fd5b505afa158015610f3b573d6000803e3d6000fd5b505050506040513d601f19601f82011682018060405250810190610f5f91906133af565b94509450945094509450839550505050505090565b6060610f7f82611fad565b610fbe576040517f08c379a0000000000000000000000000000000000000000000000000000000008152600401610fb5906148b8565b60405180910390fd5b6000600a60008481526020019081526020016000206040518060e0016040529081600082018054610fee90614f14565b80601f016020809104026020016040519081016040528092919081815260200182805461101a90614f14565b80156110675780601f1061103c57610100808354040283529160200191611067565b820191906000526020600020905b81548152906001019060200180831161104a57829003601f168201915b5050505050815260200160018201805461108090614f14565b80601f01602080910402602001604051908101604052809291908181526020018280546110ac90614f14565b80156110f95780601f106110ce576101008083540402835291602001916110f9565b820191906000526020600020905b8154815290600101906020018083116110dc57829003601f168201915b5050505050815260200160028201805461111290614f14565b80601f016020809104026020016040519081016040528092919081815260200182805461113e90614f14565b801561118b5780601f106111605761010080835404028352916020019161118b565b820191906000526020600020905b81548152906001019060200180831161116e57829003601f168201915b505050505081526020016003820180546111a490614f14565b80601f01602080910402602001604051908101604052809291908181526020018280546111d090614f14565b801561121d5780601f106111f25761010080835404028352916020019161121d565b820191906000526020600020905b81548152906001019060200180831161120057829003601f168201915b5050505050815260200160048201805461123690614f14565b80601f016020809104026020016040519081016040528092919081815260200182805461126290614f14565b80156112af5780601f10611284576101008083540402835291602001916112af565b820191906000526020600020905b81548152906001019060200180831161129257829003601f168201915b505050505081526020016005820160009054906101000a900460ff16151515158152602001600682015481525050905060006112ff8260a001516112f45760006112f7565b60015b60ff16612567565b905060006113108360c00151612567565b9050600061135c84600001518560200151866040015187606001518860800151888860405160200161134897969594939291906145a6565b604051602081830303815290604052612714565b905060008160405160200161137191906146bb565b60405160208183030381529060405290508095505050505050919050565b60008061139a610eb6565b9050600081116113df576040517f08c379a00000000000000000000000000000000000000000000000000000000081526004016113d6906147d8565b60405180910390fd5b60006012826008866113f19190614c85565b6113fb9190614c01565b6114059190614c85565b90506000811161144a576040517f08c379a0000000000000000000000000000000000000000000000000000000008152600401611441906149d8565b60405180910390fd5b8092505050919050565b6000600a600083815260200190815260200160002060050160009054906101000a900460ff169050919050565b61149c83838360405180602001604052806000815250611978565b505050565b6000806002600084815260200190815260200160002060009054906101000a900473ffffffffffffffffffffffffffffffffffffffff169050600073ffffffffffffffffffffffffffffffffffffffff168173ffffffffffffffffffffffffffffffffffffffff16141561154a576040517f08c379a000000000000000000000000000000000000000000000000000000000815260040161154190614938565b60405180910390fd5b80915050919050565b60008073ffffffffffffffffffffffffffffffffffffffff168273ffffffffffffffffffffffffffffffffffffffff1614156115c4576040517f08c379a00000000000000000000000000000000000000000000000000000000081526004016115bb90614918565b60405180910390fd5b600360008373ffffffffffffffffffffffffffffffffffffffff1673ffffffffffffffffffffffffffffffffffffffff168152602001908152602001600020549050919050565b611613612019565b73ffffffffffffffffffffffffffffffffffffffff1661163161173b565b73ffffffffffffffffffffffffffffffffffffffff1614611687576040517f08c379a000000000000000000000000000000000000000000000000000000000815260040161167e90614998565b60405180910390fd5b61169160006128d2565b565b61169c826114a1565b73ffffffffffffffffffffffffffffffffffffffff163373ffffffffffffffffffffffffffffffffffffffff1614611709576040517f08c379a0000000000000000000000000000000000000000000000000000000008152600401611700906147b8565b60405180910390fd5b80600a600084815260200190815260200160002060050160006101000a81548160ff0219169083151502179055505050565b6000600660009054906101000a900473ffffffffffffffffffffffffffffffffffffffff16905090565b60606001805461177490614f14565b80601f01602080910402602001604051908101604052809291908181526020018280546117a090614f14565b80156117ed5780601f106117c2576101008083540402835291602001916117ed565b820191906000526020600020905b8154815290600101906020018083116117d057829003601f168201915b5050505050905090565b6117ff612019565b73ffffffffffffffffffffffffffffffffffffffff168273ffffffffffffffffffffffffffffffffffffffff16141561186d576040517f08c379a000000000000000000000000000000000000000000000000000000000815260040161186490614898565b60405180910390fd5b806005600061187a612019565b73ffffffffffffffffffffffffffffffffffffffff1673ffffffffffffffffffffffffffffffffffffffff16815260200190815260200160002060008473ffffffffffffffffffffffffffffffffffffffff1673ffffffffffffffffffffffffffffffffffffffff16815260200190815260200160002060006101000a81548160ff0219169083151502179055508173ffffffffffffffffffffffffffffffffffffffff16611927612019565b73ffffffffffffffffffffffffffffffffffffffff167f17307eab39ab6107e8899845ad3d59bd9653f200f220920489ca2b5937696c318360405161196c919061477b565b60405180910390a35050565b611989611983612019565b8361211c565b6119c8576040517f08c379a00000000000000000000000000000000000000000000000000000000081526004016119bf90614a18565b60405180910390fd5b6119d484848484612998565b50505050565b60606000600a60008481526020019081526020016000206040518060e0016040529081600082018054611a0c90614f14565b80601f0160208091040260200160405190810160405280929190818152602001828054611a3890614f14565b8015611a855780601f10611a5a57610100808354040283529160200191611a85565b820191906000526020600020905b815481529060010190602001808311611a6857829003601f168201915b50505050508152602001600182018054611a9e90614f14565b80601f0160208091040260200160405190810160405280929190818152602001828054611aca90614f14565b8015611b175780601f10611aec57610100808354040283529160200191611b17565b820191906000526020600020905b815481529060010190602001808311611afa57829003601f168201915b50505050508152602001600282018054611b3090614f14565b80601f0160208091040260200160405190810160405280929190818152602001828054611b5c90614f14565b8015611ba95780601f10611b7e57610100808354040283529160200191611ba9565b820191906000526020600020905b815481529060010190602001808311611b8c57829003601f168201915b50505050508152602001600382018054611bc290614f14565b80601f0160208091040260200160405190810160405280929190818152602001828054611bee90614f14565b8015611c3b5780601f10611c1057610100808354040283529160200191611c3b565b820191906000526020600020905b815481529060010190602001808311611c1e57829003601f168201915b50505050508152602001600482018054611c5490614f14565b80601f0160208091040260200160405190810160405280929190818152602001828054611c8090614f14565b8015611ccd5780601f10611ca257610100808354040283529160200191611ccd565b820191906000526020600020905b815481529060010190602001808311611cb057829003601f168201915b505050505081526020016005820160009054906101000a900460ff1615151515815260200160068201548152505090506000611d1d8260a00151611d12576000611d15565b60015b60ff16612567565b90506000611d2e8360c00151612567565b90506000611d84611d3e87612567565b856000015186602001518760400151886060015189608001518989604051602001611d709897969594939291906144a5565b604051602081830303815290604052612714565b9050600081604051602001611d9991906146bb565b60405160208183030381529060405290508095505050505050919050565b6000600560008473ffffffffffffffffffffffffffffffffffffffff1673ffffffffffffffffffffffffffffffffffffffff16815260200190815260200160002060008373ffffffffffffffffffffffffffffffffffffffff1673ffffffffffffffffffffffffffffffffffffffff16815260200190815260200160002060009054906101000a900460ff16905092915050565b611e53612019565b73ffffffffffffffffffffffffffffffffffffffff16611e7161173b565b73ffffffffffffffffffffffffffffffffffffffff1614611ec7576040517f08c379a0000000000000000000000000000000000000000000000000000000008152600401611ebe90614998565b60405180910390fd5b600073ffffffffffffffffffffffffffffffffffffffff168173ffffffffffffffffffffffffffffffffffffffff161415611f37576040517f08c379a0000000000000000000000000000000000000000000000000000000008152600401611f2e90614818565b60405180910390fd5b611f40816128d2565b50565b60007f01ffc9a7000000000000000000000000000000000000000000000000000000007bffffffffffffffffffffffffffffffffffffffffffffffffffffffff1916827bffffffffffffffffffffffffffffffffffffffffffffffffffffffff1916149050919050565b60008073ffffffffffffffffffffffffffffffffffffffff166002600084815260200190815260200160002060009054906101000a900473ffffffffffffffffffffffffffffffffffffffff1673ffffffffffffffffffffffffffffffffffffffff1614159050919050565b600033905090565b816004600083815260200190815260200160002060006101000a81548173ffffffffffffffffffffffffffffffffffffffff021916908373ffffffffffffffffffffffffffffffffffffffff160217905550808273ffffffffffffffffffffffffffffffffffffffff16612094836114a1565b73ffffffffffffffffffffffffffffffffffffffff167f8c5be1e5ebec7d5bd14f71427d1e84f3dd0314c0f7b2291e5b200ac8c7c3b92560405160405180910390a45050565b6001816000016000828254019250508190555050565b600081600001549050919050565b6121188282604051806020016040528060008152506129f4565b5050565b600061212782611fad565b612166576040517f08c379a000000000000000000000000000000000000000000000000000000000815260040161215d906148d8565b60405180910390fd5b6000612171836114a1565b90508073ffffffffffffffffffffffffffffffffffffffff168473ffffffffffffffffffffffffffffffffffffffff1614806121e057508373ffffffffffffffffffffffffffffffffffffffff166121c884610774565b73ffffffffffffffffffffffffffffffffffffffff16145b806121f157506121f08185611db7565b5b91505092915050565b8273ffffffffffffffffffffffffffffffffffffffff1661221a826114a1565b73ffffffffffffffffffffffffffffffffffffffff1614612270576040517f08c379a0000000000000000000000000000000000000000000000000000000008152600401612267906149b8565b60405180910390fd5b600073ffffffffffffffffffffffffffffffffffffffff168273ffffffffffffffffffffffffffffffffffffffff1614156122e0576040517f08c379a00000000000000000000000000000000000000000000000000000000081526004016122d790614878565b60405180910390fd5b6122eb838383612a4f565b6122f6600082612021565b6001600360008573ffffffffffffffffffffffffffffffffffffffff1673ffffffffffffffffffffffffffffffffffffffff16815260200190815260200160002060008282546123469190614dfd565b925050819055506001600360008473ffffffffffffffffffffffffffffffffffffffff1673ffffffffffffffffffffffffffffffffffffffff168152602001908152602001600020600082825461239d9190614bab565b92505081905550816002600083815260200190815260200160002060006101000a81548173ffffffffffffffffffffffffffffffffffffffff021916908373ffffffffffffffffffffffffffffffffffffffff160217905550808273ffffffffffffffffffffffffffffffffffffffff168473ffffffffffffffffffffffffffffffffffffffff167fddf252ad1be2c89b69c2b068fc378daa952ba7f163c4a11628f55a4df523b3ef60405160405180910390a4505050565b6000612461826114a1565b905061246f81600084612a4f565b61247a600083612021565b6001600360008373ffffffffffffffffffffffffffffffffffffffff1673ffffffffffffffffffffffffffffffffffffffff16815260200190815260200160002060008282546124ca9190614dfd565b925050819055506002600083815260200190815260200160002060006101000a81549073ffffffffffffffffffffffffffffffffffffffff021916905581600073ffffffffffffffffffffffffffffffffffffffff168273ffffffffffffffffffffffffffffffffffffffff167fddf252ad1be2c89b69c2b068fc378daa952ba7f163c4a11628f55a4df523b3ef60405160405180910390a45050565b606060008214156125af576040518060400160405280600181526020017f3000000000000000000000000000000000000000000000000000000000000000815250905061270f565b600082905060005b600082146125e15780806125ca90614f46565b915050600a826125da9190614c01565b91506125b7565b60008167ffffffffffffffff811115612623577f4e487b7100000000000000000000000000000000000000000000000000000000600052604160045260246000fd5b6040519080825280601f01601f1916602001820160405280156126555781602001600182028036833780820191505090505b5090505b600085146127085760018261266e9190614dfd565b9150600a8561267d9190614f8f565b60306126899190614bab565b60f81b8183815181106126c5577f4e487b7100000000000000000000000000000000000000000000000000000000600052603260045260246000fd5b60200101907effffffffffffffffffffffffffffffffffffffffffffffffffffffffffffff1916908160001a905350600a856127019190614c01565b9450612659565b8093505050505b919050565b6060600082519050600081141561273d57604051806020016040528060008152509150506128cd565b6000600360028361274e9190614bab565b6127589190614c01565b60046127649190614da3565b905060006020826127759190614bab565b67ffffffffffffffff8111156127b4577f4e487b7100000000000000000000000000000000000000000000000000000000600052604160045260246000fd5b6040519080825280601f01601f1916602001820160405280156127e65781602001600182028036833780820191505090505b5090506000604051806060016040528060408152602001615125604091399050600181016020830160005b8681101561288a5760038101905062ffffff818a015116603f8160121c168401518060081b905060ff603f83600c1c1686015116810190508060081b905060ff603f8360061c1686015116810190508060081b905060ff603f831686015116810190508060e01b90508084526004840193505050612811565b5060038606600181146128a457600281146128b4576128bf565b613d3d60f01b60028303526128bf565b603d60f81b60018303525b508484525050819450505050505b919050565b6000600660009054906101000a900473ffffffffffffffffffffffffffffffffffffffff16905081600660006101000a81548173ffffffffffffffffffffffffffffffffffffffff021916908373ffffffffffffffffffffffffffffffffffffffff1602179055508173ffffffffffffffffffffffffffffffffffffffff168173ffffffffffffffffffffffffffffffffffffffff167f8be0079c531659141344cd1fd0a4f28419497f9722a3daafe3b4186f6b6457e060405160405180910390a35050565b6129a38484846121fa565b6129af84848484612a54565b6129ee576040517f08c379a00000000000000000000000000000000000000000000000000000000081526004016129e5906147f8565b60405180910390fd5b50505050565b6129fe8383612beb565b612a0b6000848484612a54565b612a4a576040517f08c379a0000000000000000000000000000000000000000000000000000000008152600401612a41906147f8565b60405180910390fd5b505050565b505050565b6000612a758473ffffffffffffffffffffffffffffffffffffffff16612db9565b15612bde578373ffffffffffffffffffffffffffffffffffffffff1663150b7a02612a9e612019565b8786866040518563ffffffff1660e01b8152600401612ac0949392919061470d565b602060405180830381600087803b158015612ada57600080fd5b505af1925050508015612b0b57506040513d601f19601f82011682018060405250810190612b0891906131f7565b60015b612b8e573d8060008114612b3b576040519150601f19603f3d011682016040523d82523d6000602084013e612b40565b606091505b50600081511415612b86576040517f08c379a0000000000000000000000000000000000000000000000000000000008152600401612b7d906147f8565b60405180910390fd5b805181602001fd5b63150b7a0260e01b7bffffffffffffffffffffffffffffffffffffffffffffffffffffffff1916817bffffffffffffffffffffffffffffffffffffffffffffffffffffffff191614915050612be3565b600190505b949350505050565b600073ffffffffffffffffffffffffffffffffffffffff168273ffffffffffffffffffffffffffffffffffffffff161415612c5b576040517f08c379a0000000000000000000000000000000000000000000000000000000008152600401612c5290614958565b60405180910390fd5b612c6481611fad565b15612ca4576040517f08c379a0000000000000000000000000000000000000000000000000000000008152600401612c9b90614838565b60405180910390fd5b612cb060008383612a4f565b6001600360008473ffffffffffffffffffffffffffffffffffffffff1673ffffffffffffffffffffffffffffffffffffffff1681526020019081526020016000206000828254612d009190614bab565b92505081905550816002600083815260200190815260200160002060006101000a81548173ffffffffffffffffffffffffffffffffffffffff021916908373ffffffffffffffffffffffffffffffffffffffff160217905550808273ffffffffffffffffffffffffffffffffffffffff16600073ffffffffffffffffffffffffffffffffffffffff167fddf252ad1be2c89b69c2b068fc378daa952ba7f163c4a11628f55a4df523b3ef60405160405180910390a45050565b600080823b905060008111915050919050565b828054612dd890614f14565b90600052602060002090601f016020900481019282612dfa5760008555612e41565b82601f10612e1357805160ff1916838001178555612e41565b82800160010185558215612e41579182015b82811115612e40578251825591602001919060010190612e25565b5b509050612e4e9190612e92565b5090565b508054612e5e90614f14565b6000825580601f10612e705750612e8f565b601f016020900490600052602060002090810190612e8e9190612e92565b5b50565b5b80821115612eab576000816000905550600101612e93565b5090565b6000612ec2612ebd84614ac4565b614a93565b905082815260208101848484011115612eda57600080fd5b612ee5848285614ed2565b509392505050565b6000612f00612efb84614af4565b614a93565b905082815260208101848484011115612f1857600080fd5b612f23848285614ed2565b509392505050565b600081359050612f3a8161509a565b92915050565b600081359050612f4f816150b1565b92915050565b600081359050612f64816150c8565b92915050565b600081519050612f79816150c8565b92915050565b600082601f830112612f9057600080fd5b8135612fa0848260208601612eaf565b91505092915050565b600081519050612fb8816150df565b92915050565b600082601f830112612fcf57600080fd5b8135612fdf848260208601612eed565b91505092915050565b600081359050612ff7816150f6565b92915050565b60008151905061300c816150f6565b92915050565b6000815190506130218161510d565b92915050565b60006020828403121561303957600080fd5b600061304784828501612f2b565b91505092915050565b6000806040838503121561306357600080fd5b600061307185828601612f2b565b925050602061308285828601612f2b565b9150509250929050565b6000806000606084860312156130a157600080fd5b60006130af86828701612f2b565b93505060206130c086828701612f2b565b92505060406130d186828701612fe8565b9150509250925092565b600080600080608085870312156130f157600080fd5b60006130ff87828801612f2b565b945050602061311087828801612f2b565b935050604061312187828801612fe8565b925050606085013567ffffffffffffffff81111561313e57600080fd5b61314a87828801612f7f565b91505092959194509250565b6000806040838503121561316957600080fd5b600061317785828601612f2b565b925050602061318885828601612f40565b9150509250929050565b600080604083850312156131a557600080fd5b60006131b385828601612f2b565b92505060206131c485828601612fe8565b9150509250929050565b6000602082840312156131e057600080fd5b60006131ee84828501612f55565b91505092915050565b60006020828403121561320957600080fd5b600061321784828501612f6a565b91505092915050565b600080600080600080600080610100898b03121561323d57600080fd5b600089013567ffffffffffffffff81111561325757600080fd5b6132638b828c01612fbe565b985050602089013567ffffffffffffffff81111561328057600080fd5b61328c8b828c01612fbe565b975050604089013567ffffffffffffffff8111156132a957600080fd5b6132b58b828c01612fbe565b965050606089013567ffffffffffffffff8111156132d257600080fd5b6132de8b828c01612fbe565b955050608089013567ffffffffffffffff8111156132fb57600080fd5b6133078b828c01612fbe565b94505060a06133188b828c01612f40565b93505060c06133298b828c01612fe8565b92505060e061333a8b828c01612fe8565b9150509295985092959890939650565b60006020828403121561335c57600080fd5b600061336a84828501612fe8565b91505092915050565b6000806040838503121561338657600080fd5b600061339485828601612fe8565b92505060206133a585828601612f40565b9150509250929050565b600080600080600060a086880312156133c757600080fd5b60006133d588828901613012565b95505060206133e688828901612fa9565b94505060406133f788828901612ffd565b935050606061340888828901612ffd565b925050608061341988828901613012565b9150509295509295909350565b60006134328383614487565b60208301905092915050565b61344781614e31565b82525050565b600061345882614b34565b6134628185614b62565b935061346d83614b24565b8060005b8381101561349e5781516134858882613426565b975061349083614b55565b925050600181019050613471565b5085935050505092915050565b6134b481614e43565b82525050565b60006134c582614b3f565b6134cf8185614b73565b93506134df818560208601614ee1565b6134e88161507c565b840191505092915050565b60006134fe82614b4a565b6135088185614b8f565b9350613518818560208601614ee1565b6135218161507c565b840191505092915050565b600061353782614b4a565b6135418185614ba0565b9350613551818560208601614ee1565b80840191505092915050565b600061356a600b83614ba0565b91507f2263616e63656c6564223a0000000000000000000000000000000000000000006000830152600b82019050919050565b60006135aa600b83614ba0565b91507f202d2d204e465420233a200000000000000000000000000000000000000000006000830152600b82019050919050565b60006135ea600f83614b8f565b91507f4e6f7420796f757220746f6b656e2100000000000000000000000000000000006000830152602082019050919050565b600061362a603383614b8f565b91507f4574686572207072696365206861736e2774206265656e20726574726965766560008301527f207965742066726f6d20436861696e6c696e6b000000000000000000000000006020830152604082019050919050565b6000613690602983614ba0565b91507f7d2c20207b202274726169745f74797065223a202243616e63656c6564222c2060008301527f2276616c7565223a2000000000000000000000000000000000000000000000006020830152602982019050919050565b60006136f6603283614b8f565b91507f4552433732313a207472616e7366657220746f206e6f6e20455243373231526560008301527f63656976657220696d706c656d656e74657200000000000000000000000000006020830152604082019050919050565b600061375c600f83614ba0565b91507f22626f617264696e6754696d65223a00000000000000000000000000000000006000830152600f82019050919050565b600061379c602683614b8f565b91507f4f776e61626c653a206e6577206f776e657220697320746865207a65726f206160008301527f64647265737300000000000000000000000000000000000000000000000000006020830152604082019050919050565b6000613802601c83614b8f565b91507f4552433732313a20746f6b656e20616c7265616479206d696e746564000000006000830152602082019050919050565b6000613842602e83614ba0565b91507f7d2c20207b202274726169745f74797065223a2022426f617264696e6720546960008301527f6d65222c202276616c7565223a200000000000000000000000000000000000006020830152602e82019050919050565b60006138a8600883614ba0565b91507f227072696365223a0000000000000000000000000000000000000000000000006000830152600882019050919050565b60006138e8602e83614ba0565b91507f7d2c20207b202274726169745f74797065223a2022426f617264696e6720446160008301527f7465222c202276616c7565223a200000000000000000000000000000000000006020830152602e82019050919050565b600061394e600183614ba0565b91507f2c000000000000000000000000000000000000000000000000000000000000006000830152600182019050919050565b600061398e601483614b8f565b91507f4661696c656420746f2073656e642045746865720000000000000000000000006000830152602082019050919050565b60006139ce602483614b8f565b91507f4552433732313a207472616e7366657220746f20746865207a65726f2061646460008301527f72657373000000000000000000000000000000000000000000000000000000006020830152604082019050919050565b6000613a34601983614b8f565b91507f4552433732313a20617070726f766520746f2063616c6c6572000000000000006000830152602082019050919050565b6000613a74601483614b8f565b91507f546f6b656e20646f65736e2774206578697374730000000000000000000000006000830152602082019050919050565b6000613ab4602c83614b8f565b91507f4552433732313a206f70657261746f7220717565727920666f72206e6f6e657860008301527f697374656e7420746f6b656e00000000000000000000000000000000000000006020830152604082019050919050565b6000613b1a602983614ba0565b91507f7d2c207b202274726169745f74797065223a2022446570617274757265222c2060008301527f2276616c7565223a2000000000000000000000000000000000000000000000006020830152602982019050919050565b6000613b80603883614b8f565b91507f4552433732313a20617070726f76652063616c6c6572206973206e6f74206f7760008301527f6e6572206e6f7220617070726f76656420666f7220616c6c00000000000000006020830152604082019050919050565b6000613be6602a83614b8f565b91507f4552433732313a2062616c616e636520717565727920666f7220746865207a6560008301527f726f2061646472657373000000000000000000000000000000000000000000006020830152604082019050919050565b6000613c4c602983614b8f565b91507f4552433732313a206f776e657220717565727920666f72206e6f6e657869737460008301527f656e7420746f6b656e00000000000000000000000000000000000000000000006020830152604082019050919050565b6000613cb2600c83614ba0565b91507f426f617264696e675061737300000000000000000000000000000000000000006000830152600c82019050919050565b6000613cf2600483614ba0565b91507f7d205d7d000000000000000000000000000000000000000000000000000000006000830152600482019050919050565b6000613d32600683614ba0565b91507f226e756d223a00000000000000000000000000000000000000000000000000006000830152600682019050919050565b6000613d72602083614b8f565b91507f4552433732313a206d696e7420746f20746865207a65726f20616464726573736000830152602082019050919050565b6000613db2602b83614ba0565b91507f7d2c207b202274726169745f74797065223a202244657374696e6174696f6e2260008301527f2c202276616c7565223a200000000000000000000000000000000000000000006020830152602b82019050919050565b6000613e18600183614ba0565b91507f7d000000000000000000000000000000000000000000000000000000000000006000830152600182019050919050565b6000613e58602c83614b8f565b91507f4552433732313a20617070726f76656420717565727920666f72206e6f6e657860008301527f697374656e7420746f6b656e00000000000000000000000000000000000000006020830152604082019050919050565b6000613ebe602083614b8f565b91507f4f776e61626c653a2063616c6c6572206973206e6f7420746865206f776e65726000830152602082019050919050565b6000613efe602983614b8f565b91507f4552433732313a207472616e73666572206f6620746f6b656e2074686174206960008301527f73206e6f74206f776e00000000000000000000000000000000000000000000006020830152604082019050919050565b6000613f64600a83614ba0565b91507f7b226e616d65223a2022000000000000000000000000000000000000000000006000830152600a82019050919050565b6000613fa4600183614ba0565b91507f7b000000000000000000000000000000000000000000000000000000000000006000830152600182019050919050565b6000613fe4602583614b8f565b91507f50726f626c656d20696e20636f6e76657273696f6e20696e7369646520636f6e60008301527f74726163740000000000000000000000000000000000000000000000000000006020830152604082019050919050565b600061404a603383614ba0565b91507f222c202261747472696275746573223a205b207b202274726169745f7479706560008301527f223a20224e756d222c202276616c7565223a20000000000000000000000000006020830152603382019050919050565b60006140b0605083614ba0565b91507f222c20226465736372697074696f6e223a2022556e6520636f6c6c656374696f60008301527f6e2071756920726570726573656e7465206465732062696c6c6574732064276160208301527f76696f6e222c22696d616765223a2022000000000000000000000000000000006040830152605082019050919050565b600061413c602183614b8f565b91507f4552433732313a20617070726f76616c20746f2063757272656e74206f776e6560008301527f72000000000000000000000000000000000000000000000000000000000000006020830152604082019050919050565b60006141a2603e83614ba0565b91507f68747470733a2f2f696d616765732e656d6f6a6974657272612e636f6d2f676f60008301527f6f676c652f616e64726f69642d31312f35313270782f323730382e706e6700006020830152603e82019050919050565b6000614208601d83614ba0565b91507f646174613a6170706c69636174696f6e2f6a736f6e3b6261736536342c0000006000830152601d82019050919050565b6000614248602a83614ba0565b91507f7d2c20207b202274726169745f74797065223a2022555344205072696365222c60008301527f202276616c7565223a20000000000000000000000000000000000000000000006020830152602a82019050919050565b60006142ae600083614b84565b9150600082019050919050565b60006142c8600e83614ba0565b91507f2264657374696e6174696f6e223a0000000000000000000000000000000000006000830152600e82019050919050565b6000614308603183614b8f565b91507f4552433732313a207472616e736665722063616c6c6572206973206e6f74206f60008301527f776e6572206e6f7220617070726f7665640000000000000000000000000000006020830152604082019050919050565b600061436e601083614b8f565b91507f4e6f7420656e6f756768204574686572000000000000000000000000000000006000830152602082019050919050565b60006143ae600c83614ba0565b91507f22646570617274757265223a00000000000000000000000000000000000000006000830152600c82019050919050565b60006143ee600f83614ba0565b91507f22626f617264696e6744617465223a00000000000000000000000000000000006000830152600f82019050919050565b600061442e602683614b8f565b91507f436f6e747261637427732062616c616e6365206861736e277420656e6f75676860008301527f20457468657200000000000000000000000000000000000000000000000000006020830152604082019050919050565b61449081614ea5565b82525050565b61449f81614ea5565b82525050565b60006144b082613f57565b91506144bb82613ca5565b91506144c68261359d565b91506144d2828b61352c565b91506144dd826140a3565b91506144e882614195565b91506144f38261403d565b91506144ff828a61352c565b915061450a82613b0d565b9150614516828961352c565b915061452182613da5565b915061452d828861352c565b9150614538826138db565b9150614544828761352c565b915061454f82613835565b915061455b828661352c565b915061456682613683565b9150614572828561352c565b915061457d8261423b565b9150614589828461352c565b915061459482613ce5565b91508190509998505050505050505050565b60006145b182613f97565b91506145bc82613d25565b91506145c8828a61352c565b91506145d382613941565b91506145de826143a1565b91506145ea828961352c565b91506145f582613941565b9150614600826142bb565b915061460c828861352c565b915061461782613941565b9150614622826143e1565b915061462e828761352c565b915061463982613941565b91506146448261374f565b9150614650828661352c565b915061465b82613941565b91506146668261355d565b9150614672828561352c565b915061467d82613941565b91506146888261389b565b9150614694828461352c565b915061469f82613941565b91506146aa82613e0b565b915081905098975050505050505050565b60006146c6826141fb565b91506146d2828461352c565b915081905092915050565b60006146e8826142a1565b9150819050919050565b6000602082019050614707600083018461343e565b92915050565b6000608082019050614722600083018761343e565b61472f602083018661343e565b61473c6040830185614496565b818103606083015261474e81846134ba565b905095945050505050565b60006020820190508181036000830152614773818461344d565b905092915050565b600060208201905061479060008301846134ab565b92915050565b600060208201905081810360008301526147b081846134f3565b905092915050565b600060208201905081810360008301526147d1816135dd565b9050919050565b600060208201905081810360008301526147f18161361d565b9050919050565b60006020820190508181036000830152614811816136e9565b9050919050565b600060208201905081810360008301526148318161378f565b9050919050565b60006020820190508181036000830152614851816137f5565b9050919050565b6000602082019050818103600083015261487181613981565b9050919050565b60006020820190508181036000830152614891816139c1565b9050919050565b600060208201905081810360008301526148b181613a27565b9050919050565b600060208201905081810360008301526148d181613a67565b9050919050565b600060208201905081810360008301526148f181613aa7565b9050919050565b6000602082019050818103600083015261491181613b73565b9050919050565b6000602082019050818103600083015261493181613bd9565b9050919050565b6000602082019050818103600083015261495181613c3f565b9050919050565b6000602082019050818103600083015261497181613d65565b9050919050565b6000602082019050818103600083015261499181613e4b565b9050919050565b600060208201905081810360008301526149b181613eb1565b9050919050565b600060208201905081810360008301526149d181613ef1565b9050919050565b600060208201905081810360008301526149f181613fd7565b9050919050565b60006020820190508181036000830152614a118161412f565b9050919050565b60006020820190508181036000830152614a31816142fb565b9050919050565b60006020820190508181036000830152614a5181614361565b9050919050565b60006020820190508181036000830152614a7181614421565b9050919050565b6000602082019050614a8d6000830184614496565b92915050565b6000604051905081810181811067ffffffffffffffff82111715614aba57614ab961504d565b5b8060405250919050565b600067ffffffffffffffff821115614adf57614ade61504d565b5b601f19601f8301169050602081019050919050565b600067ffffffffffffffff821115614b0f57614b0e61504d565b5b601f19601f8301169050602081019050919050565b6000819050602082019050919050565b600081519050919050565b600081519050919050565b600081519050919050565b6000602082019050919050565b600082825260208201905092915050565b600082825260208201905092915050565b600081905092915050565b600082825260208201905092915050565b600081905092915050565b6000614bb682614ea5565b9150614bc183614ea5565b9250827fffffffffffffffffffffffffffffffffffffffffffffffffffffffffffffffff03821115614bf657614bf5614fc0565b5b828201905092915050565b6000614c0c82614ea5565b9150614c1783614ea5565b925082614c2757614c26614fef565b5b828204905092915050565b6000808291508390505b6001851115614c7c57808604811115614c5857614c57614fc0565b5b6001851615614c675780820291505b8081029050614c758561508d565b9450614c3c565b94509492505050565b6000614c9082614ea5565b9150614c9b83614eaf565b9250614cc87fffffffffffffffffffffffffffffffffffffffffffffffffffffffffffffffff8484614cd0565b905092915050565b600082614ce05760019050614d9c565b81614cee5760009050614d9c565b8160018114614d045760028114614d0e57614d3d565b6001915050614d9c565b60ff841115614d2057614d1f614fc0565b5b8360020a915084821115614d3757614d36614fc0565b5b50614d9c565b5060208310610133831016604e8410600b8410161715614d725782820a905083811115614d6d57614d6c614fc0565b5b614d9c565b614d7f8484846001614c32565b92509050818404811115614d9657614d95614fc0565b5b81810290505b9392505050565b6000614dae82614ea5565b9150614db983614ea5565b9250817fffffffffffffffffffffffffffffffffffffffffffffffffffffffffffffffff0483118215151615614df257614df1614fc0565b5b828202905092915050565b6000614e0882614ea5565b9150614e1383614ea5565b925082821015614e2657614e25614fc0565b5b828203905092915050565b6000614e3c82614e85565b9050919050565b60008115159050919050565b60007fffffffff0000000000000000000000000000000000000000000000000000000082169050919050565b6000819050919050565b600073ffffffffffffffffffffffffffffffffffffffff82169050919050565b6000819050919050565b600060ff82169050919050565b600069ffffffffffffffffffff82169050919050565b82818337600083830152505050565b60005b83811015614eff578082015181840152602081019050614ee4565b83811115614f0e576000848401525b50505050565b60006002820490506001821680614f2c57607f821691505b60208210811415614f4057614f3f61501e565b5b50919050565b6000614f5182614ea5565b91507fffffffffffffffffffffffffffffffffffffffffffffffffffffffffffffffff821415614f8457614f83614fc0565b5b600182019050919050565b6000614f9a82614ea5565b9150614fa583614ea5565b925082614fb557614fb4614fef565b5b828206905092915050565b7f4e487b7100000000000000000000000000000000000000000000000000000000600052601160045260246000fd5b7f4e487b7100000000000000000000000000000000000000000000000000000000600052601260045260246000fd5b7f4e487b7100000000000000000000000000000000000000000000000000000000600052602260045260246000fd5b7f4e487b7100000000000000000000000000000000000000000000000000000000600052604160045260246000fd5b6000601f19601f8301169050919050565b60008160011c9050919050565b6150a381614e31565b81146150ae57600080fd5b50565b6150ba81614e43565b81146150c557600080fd5b50565b6150d181614e4f565b81146150dc57600080fd5b50565b6150e881614e7b565b81146150f357600080fd5b50565b6150ff81614ea5565b811461510a57600080fd5b50565b61511681614ebc565b811461512157600080fd5b5056fe4142434445464748494a4b4c4d4e4f505152535455565758595a6162636465666768696a6b6c6d6e6f707172737475767778797a303132333435363738392b2fa26469706673582212200497b60fc50fe0f807e38f61d24de5b743182358383599dda6b42a2ee0bea4a264736f6c63430008000033",
  "linkReferences": {},
  "deployedLinkReferences": {}
}