{
  "_format": "hh-sol-artifact-1",
  "contractName": "BoardingPass",
  "sourceName": "contracts/BoardingPass.sol",
  "abi": [
    {
      "inputs": [],
      "stateMutability": "nonpayable",
      "type": "constructor"
    },
    {
      "anonymous": false,
      "inputs": [
        {
          "indexed": true,
          "internalType": "address",
          "name": "owner",
          "type": "address"
        },
        {
          "indexed": true,
          "internalType": "address",
          "name": "approved",
          "type": "address"
        },
        {
          "indexed": true,
          "internalType": "uint256",
          "name": "tokenId",
          "type": "uint256"
        }
      ],
      "name": "Approval",
      "type": "event"
    },
    {
      "anonymous": false,
      "inputs": [
        {
          "indexed": true,
          "internalType": "address",
          "name": "owner",
          "type": "address"
        },
        {
          "indexed": true,
          "internalType": "address",
          "name": "operator",
          "type": "address"
        },
        {
          "indexed": false,
          "internalType": "bool",
          "name": "approved",
          "type": "bool"
        }
      ],
      "name": "ApprovalForAll",
      "type": "event"
    },
    {
      "anonymous": false,
      "inputs": [
        {
          "indexed": true,
          "internalType": "address",
          "name": "previousOwner",
          "type": "address"
        },
        {
          "indexed": true,
          "internalType": "address",
          "name": "newOwner",
          "type": "address"
        }
      ],
      "name": "OwnershipTransferred",
      "type": "event"
    },
    {
      "anonymous": false,
      "inputs": [
        {
          "indexed": true,
          "internalType": "address",
          "name": "from",
          "type": "address"
        },
        {
          "indexed": true,
          "internalType": "address",
          "name": "to",
          "type": "address"
        },
        {
          "indexed": true,
          "internalType": "uint256",
          "name": "tokenId",
          "type": "uint256"
        }
      ],
      "name": "Transfer",
      "type": "event"
    },
    {
      "inputs": [
        {
          "internalType": "address",
          "name": "to",
          "type": "address"
        },
        {
          "internalType": "uint256",
          "name": "tokenId",
          "type": "uint256"
        }
      ],
      "name": "approve",
      "outputs": [],
      "stateMutability": "nonpayable",
      "type": "function"
    },
    {
      "inputs": [
        {
          "internalType": "address",
          "name": "owner",
          "type": "address"
        }
      ],
      "name": "balanceOf",
      "outputs": [
        {
          "internalType": "uint256",
          "name": "",
          "type": "uint256"
        }
      ],
      "stateMutability": "view",
      "type": "function"
    },
    {
      "inputs": [
        {
          "internalType": "address",
          "name": "_address",
          "type": "address"
        }
      ],
      "name": "getAllTokensFromAdress",
      "outputs": [
        {
          "internalType": "uint256[]",
          "name": "",
          "type": "uint256[]"
        }
      ],
      "stateMutability": "view",
      "type": "function"
    },
    {
      "inputs": [
        {
          "internalType": "uint256",
          "name": "tokenId",
          "type": "uint256"
        }
      ],
      "name": "getApproved",
      "outputs": [
        {
          "internalType": "address",
          "name": "",
          "type": "address"
        }
      ],
      "stateMutability": "view",
      "type": "function"
    },
    {
      "inputs": [],
      "name": "getBalance",
      "outputs": [
        {
          "internalType": "uint256",
          "name": "",
          "type": "uint256"
        }
      ],
      "stateMutability": "view",
      "type": "function"
    },
    {
      "inputs": [],
      "name": "getLatestEthPrice",
      "outputs": [
        {
          "internalType": "uint256",
          "name": "",
          "type": "uint256"
        }
      ],
      "stateMutability": "view",
      "type": "function"
    },
    {
      "inputs": [
        {
          "internalType": "uint256",
          "name": "_tokenId",
          "type": "uint256"
        }
      ],
      "name": "getTokenCanceledValue",
      "outputs": [
        {
          "internalType": "bool",
          "name": "",
          "type": "bool"
        }
      ],
      "stateMutability": "view",
      "type": "function"
    },
    {
      "inputs": [
        {
          "internalType": "uint256",
          "name": "_tokenId",
          "type": "uint256"
        }
      ],
      "name": "getTokenURI",
      "outputs": [
        {
          "internalType": "string",
          "name": "",
          "type": "string"
        }
      ],
      "stateMutability": "view",
      "type": "function"
    },
    {
      "inputs": [
        {
          "internalType": "uint256",
          "name": "usdPrice",
          "type": "uint256"
        }
      ],
      "name": "getWeiByUSD",
      "outputs": [
        {
          "internalType": "uint256",
          "name": "",
          "type": "uint256"
        }
      ],
      "stateMutability": "view",
      "type": "function"
    },
    {
      "inputs": [
        {
          "internalType": "address",
          "name": "owner",
          "type": "address"
        },
        {
          "internalType": "address",
          "name": "operator",
          "type": "address"
        }
      ],
      "name": "isApprovedForAll",
      "outputs": [
        {
          "internalType": "bool",
          "name": "",
          "type": "bool"
        }
      ],
      "stateMutability": "view",
      "type": "function"
    },
    {
      "inputs": [
        {
          "internalType": "string",
          "name": "_num",
          "type": "string"
        },
        {
          "internalType": "string",
          "name": "_departure",
          "type": "string"
        },
        {
          "internalType": "string",
          "name": "_destination",
          "type": "string"
        },
        {
          "internalType": "string",
          "name": "_boardingDate",
          "type": "string"
        },
        {
          "internalType": "string",
          "name": "_boardingTime",
          "type": "string"
        },
        {
          "internalType": "bool",
          "name": "_canceled",
          "type": "bool"
        },
        {
          "internalType": "uint256",
          "name": "_price",
          "type": "uint256"
        },
        {
          "internalType": "uint256",
          "name": "_wei",
          "type": "uint256"
        }
      ],
      "name": "mint",
      "outputs": [],
      "stateMutability": "payable",
      "type": "function"
    },
    {
      "inputs": [],
      "name": "name",
      "outputs": [
        {
          "internalType": "string",
          "name": "",
          "type": "string"
        }
      ],
      "stateMutability": "view",
      "type": "function"
    },
    {
      "inputs": [],
      "name": "owner",
      "outputs": [
        {
          "internalType": "address",
          "name": "",
          "type": "address"
        }
      ],
      "stateMutability": "view",
      "type": "function"
    },
    {
      "inputs": [
        {
          "internalType": "uint256",
          "name": "tokenId",
          "type": "uint256"
        }
      ],
      "name": "ownerOf",
      "outputs": [
        {
          "internalType": "address",
          "name": "",
          "type": "address"
        }
      ],
      "stateMutability": "view",
      "type": "function"
    },
    {
      "inputs": [
        {
          "internalType": "uint256",
          "name": "_tokenId",
          "type": "uint256"
        }
      ],
      "name": "refund",
      "outputs": [],
      "stateMutability": "payable",
      "type": "function"
    },
    {
      "inputs": [],
      "name": "renounceOwnership",
      "outputs": [],
      "stateMutability": "nonpayable",
      "type": "function"
    },
    {
      "inputs": [
        {
          "internalType": "address",
          "name": "from",
          "type": "address"
        },
        {
          "internalType": "address",
          "name": "to",
          "type": "address"
        },
        {
          "internalType": "uint256",
          "name": "tokenId",
          "type": "uint256"
        }
      ],
      "name": "safeTransferFrom",
      "outputs": [],
      "stateMutability": "nonpayable",
      "type": "function"
    },
    {
      "inputs": [
        {
          "internalType": "address",
          "name": "from",
          "type": "address"
        },
        {
          "internalType": "address",
          "name": "to",
          "type": "address"
        },
        {
          "internalType": "uint256",
          "name": "tokenId",
          "type": "uint256"
        },
        {
          "internalType": "bytes",
          "name": "_data",
          "type": "bytes"
        }
      ],
      "name": "safeTransferFrom",
      "outputs": [],
      "stateMutability": "nonpayable",
      "type": "function"
    },
    {
      "inputs": [
        {
          "internalType": "address",
          "name": "operator",
          "type": "address"
        },
        {
          "internalType": "bool",
          "name": "approved",
          "type": "bool"
        }
      ],
      "name": "setApprovalForAll",
      "outputs": [],
      "stateMutability": "nonpayable",
      "type": "function"
    },
    {
      "inputs": [
        {
          "internalType": "bytes4",
          "name": "interfaceId",
          "type": "bytes4"
        }
      ],
      "name": "supportsInterface",
      "outputs": [
        {
          "internalType": "bool",
          "name": "",
          "type": "bool"
        }
      ],
      "stateMutability": "view",
      "type": "function"
    },
    {
      "inputs": [],
      "name": "symbol",
      "outputs": [
        {
          "internalType": "string",
          "name": "",
          "type": "string"
        }
      ],
      "stateMutability": "view",
      "type": "function"
    },
    {
      "inputs": [
        {
          "internalType": "uint256",
          "name": "_tokenId",
          "type": "uint256"
        }
      ],
      "name": "tokenURI",
      "outputs": [
        {
          "internalType": "string",
          "name": "",
          "type": "string"
        }
      ],
      "stateMutability": "view",
      "type": "function"
    },
    {
      "inputs": [
        {
          "internalType": "address",
          "name": "from",
          "type": "address"
        },
        {
          "internalType": "address",
          "name": "to",
          "type": "address"
        },
        {
          "internalType": "uint256",
          "name": "tokenId",
          "type": "uint256"
        }
      ],
      "name": "transferFrom",
      "outputs": [],
      "stateMutability": "nonpayable",
      "type": "function"
    },
    {
      "inputs": [
        {
          "internalType": "address",
          "name": "newOwner",
          "type": "address"
        }
      ],
      "name": "transferOwnership",
      "outputs": [],
      "stateMutability": "nonpayable",
      "type": "function"
    },
    {
      "inputs": [
        {
          "internalType": "uint256",
          "name": "_tokenId",
          "type": "uint256"
        },
        {
          "internalType": "bool",
          "name": "_isCanceled",
          "type": "bool"
        }
      ],
      "name": "updateTokenCanceledValue",
      "outputs": [],
      "stateMutability": "nonpayable",
      "type": "function"
    }
  ],
  "bytecode": "0x60806040523480156200001157600080fd5b506040518060400160405280600e81526020017f506c616e6548756220546f6b656e0000000000000000000000000000000000008152506040518060400160405280600381526020017f5048540000000000000000000000000000000000000000000000000000000000815250816000908051906020019062000096929190620001fb565b508060019080519060200190620000af929190620001fb565b505050620000d2620000c66200012d60201b60201c565b6200013560201b60201c565b738a753747a1fa494ec906ce90e9f37563a8af630e600760006101000a81548173ffffffffffffffffffffffffffffffffffffffff021916908373ffffffffffffffffffffffffffffffffffffffff16021790555062000310565b600033905090565b6000600660009054906101000a900473ffffffffffffffffffffffffffffffffffffffff16905081600660006101000a81548173ffffffffffffffffffffffffffffffffffffffff021916908373ffffffffffffffffffffffffffffffffffffffff1602179055508173ffffffffffffffffffffffffffffffffffffffff168173ffffffffffffffffffffffffffffffffffffffff167f8be0079c531659141344cd1fd0a4f28419497f9722a3daafe3b4186f6b6457e060405160405180910390a35050565b8280546200020990620002ab565b90600052602060002090601f0160209004810192826200022d576000855562000279565b82601f106200024857805160ff191683800117855562000279565b8280016001018555821562000279579182015b82811115620002785782518255916020019190600101906200025b565b5b5090506200028891906200028c565b5090565b5b80821115620002a75760008160009055506001016200028d565b5090565b60006002820490506001821680620002c457607f821691505b60208210811415620002db57620002da620002e1565b5b50919050565b7f4e487b7100000000000000000000000000000000000000000000000000000000600052602260045260246000fd5b61539a80620003206000396000f3fe6080604052600436106101665760003560e01c806342842e0e116100d157806395d89b411161008a578063c87b56dd11610064578063c87b56dd14610532578063dbbc7d801461056f578063e985e9c5146105ac578063f2fde38b146105e957610166565b806395d89b41146104b5578063a22cb465146104e0578063b88d4fde1461050957610166565b806342842e0e146103a75780636352211e146103d057806370a082311461040d578063715018a61461044a57806381166f57146104615780638da5cb5b1461048a57610166565b806323b872dd1161012357806323b872dd14610280578063278ecde1146102a957806330c0b9ec146102c55780633bb3a24d146102f05780633d71dbd71461032d5780633ea5025d1461036a57610166565b806301ffc9a71461016b57806306fdde03146101a8578063081812fc146101d3578063095ea7b3146102105780630f647b001461023957806312065fe014610255575b600080fd5b34801561017757600080fd5b50610192600480360381019061018d9190613273565b610612565b60405161019f919061495b565b60405180910390f35b3480156101b457600080fd5b506101bd6106f4565b6040516101ca9190614976565b60405180910390f35b3480156101df57600080fd5b506101fa60048036038101906101f591906133ef565b610786565b60405161020791906148d2565b60405180910390f35b34801561021c57600080fd5b5061023760048036038101906102329190613237565b61080b565b005b610253600480360381019061024e91906132c5565b610923565b005b34801561026157600080fd5b5061026a610b05565b6040516102779190614c78565b60405180910390f35b34801561028c57600080fd5b506102a760048036038101906102a29190613131565b610b0d565b005b6102c360048036038101906102be91906133ef565b610b6d565b005b3480156102d157600080fd5b506102da610e9d565b6040516102e79190614c78565b60405180910390f35b3480156102fc57600080fd5b50610317600480360381019061031291906133ef565b610f5b565b6040516103249190614976565b60405180910390f35b34801561033957600080fd5b50610354600480360381019061034f91906133ef565b61139d565b6040516103619190614c78565b60405180910390f35b34801561037657600080fd5b50610391600480360381019061038c91906133ef565b611462565b60405161039e919061495b565b60405180910390f35b3480156103b357600080fd5b506103ce60048036038101906103c99190613131565b61148f565b005b3480156103dc57600080fd5b506103f760048036038101906103f291906133ef565b6114af565b60405161040491906148d2565b60405180910390f35b34801561041957600080fd5b50610434600480360381019061042f91906130cc565b611561565b6040516104419190614c78565b60405180910390f35b34801561045657600080fd5b5061045f611619565b005b34801561046d57600080fd5b5061048860048036038101906104839190613418565b6116a1565b005b34801561049657600080fd5b5061049f611749565b6040516104ac91906148d2565b60405180910390f35b3480156104c157600080fd5b506104ca611773565b6040516104d79190614976565b60405180910390f35b3480156104ec57600080fd5b50610507600480360381019061050291906131fb565b611805565b005b34801561051557600080fd5b50610530600480360381019061052b9190613180565b611986565b005b34801561053e57600080fd5b50610559600480360381019061055491906133ef565b6119e8565b6040516105669190614976565b60405180910390f35b34801561057b57600080fd5b50610596600480360381019061059191906130cc565b611dc5565b6040516105a39190614939565b60405180910390f35b3480156105b857600080fd5b506105d360048036038101906105ce91906130f5565b611e5c565b6040516105e0919061495b565b60405180910390f35b3480156105f557600080fd5b50610610600480360381019061060b91906130cc565b611ef0565b005b60007f80ac58cd000000000000000000000000000000000000000000000000000000007bffffffffffffffffffffffffffffffffffffffffffffffffffffffff1916827bffffffffffffffffffffffffffffffffffffffffffffffffffffffff191614806106dd57507f5b5e139f000000000000000000000000000000000000000000000000000000007bffffffffffffffffffffffffffffffffffffffffffffffffffffffff1916827bffffffffffffffffffffffffffffffffffffffffffffffffffffffff1916145b806106ed57506106ec82611fe8565b5b9050919050565b60606000805461070390615114565b80601f016020809104026020016040519081016040528092919081815260200182805461072f90615114565b801561077c5780601f106107515761010080835404028352916020019161077c565b820191906000526020600020905b81548152906001019060200180831161075f57829003601f168201915b5050505050905090565b600061079182612052565b6107d0576040517f08c379a00000000000000000000000000000000000000000000000000000000081526004016107c790614b78565b60405180910390fd5b6004600083815260200190815260200160002060009054906101000a900473ffffffffffffffffffffffffffffffffffffffff169050919050565b6000610816826114af565b90508073ffffffffffffffffffffffffffffffffffffffff168373ffffffffffffffffffffffffffffffffffffffff161415610887576040517f08c379a000000000000000000000000000000000000000000000000000000000815260040161087e90614bf8565b60405180910390fd5b8073ffffffffffffffffffffffffffffffffffffffff166108a66120be565b73ffffffffffffffffffffffffffffffffffffffff1614806108d557506108d4816108cf6120be565b611e5c565b5b610914576040517f08c379a000000000000000000000000000000000000000000000000000000000815260040161090b90614af8565b60405180910390fd5b61091e83836120c6565b505050565b80341015610966576040517f08c379a000000000000000000000000000000000000000000000000000000000815260040161095d90614c38565b60405180910390fd5b610970600861217f565b600061097c6008612195565b905061098833826121a3565b60006040518060e001604052808b81526020018a81526020018981526020018881526020018781526020018615158152602001858152509050600960003373ffffffffffffffffffffffffffffffffffffffff1673ffffffffffffffffffffffffffffffffffffffff16815260200190815260200160002082908060018154018082558091505060019003906000526020600020016000909190919091505580600a60008481526020019081526020016000206000820151816000019080519060200190610a57929190612e71565b506020820151816001019080519060200190610a74929190612e71565b506040820151816002019080519060200190610a91929190612e71565b506060820151816003019080519060200190610aae929190612e71565b506080820151816004019080519060200190610acb929190612e71565b5060a08201518160050160006101000a81548160ff02191690831515021790555060c0820151816006015590505050505050505050505050565b600047905090565b610b1e610b186120be565b826121c1565b610b5d576040517f08c379a0000000000000000000000000000000000000000000000000000000008152600401610b5490614c18565b60405180910390fd5b610b6883838361229f565b505050565b610b76816114af565b73ffffffffffffffffffffffffffffffffffffffff163373ffffffffffffffffffffffffffffffffffffffff1614610be3576040517f08c379a0000000000000000000000000000000000000000000000000000000008152600401610bda906149b8565b60405180910390fd5b60011515600a600083815260200190815260200160002060050160009054906101000a900460ff16151514610c4d576040517f08c379a0000000000000000000000000000000000000000000000000000000008152600401610c4490614998565b60405180910390fd5b6000610c6e600a60008481526020019081526020016000206006015461139d565b90506003600482610c7f9190614e01565b610c899190614fa3565b9050804711610ccd576040517f08c379a0000000000000000000000000000000000000000000000000000000008152600401610cc490614c58565b60405180910390fd5b610cd6826124fb565b600960003373ffffffffffffffffffffffffffffffffffffffff1673ffffffffffffffffffffffffffffffffffffffff168152602001908152602001600020600183610d229190614ffd565b81548110610d59577f4e487b7100000000000000000000000000000000000000000000000000000000600052603260045260246000fd5b9060005260206000200160009055600a600083815260200190815260200160002060008082016000610d8b9190612ef7565b600182016000610d9b9190612ef7565b600282016000610dab9190612ef7565b600382016000610dbb9190612ef7565b600482016000610dcb9190612ef7565b6005820160006101000a81549060ff0219169055600682016000905550506000803373ffffffffffffffffffffffffffffffffffffffff1683604051610e10906148bd565b60006040518083038185875af1925050503d8060008114610e4d576040519150601f19603f3d011682016040523d82523d6000602084013e610e52565b606091505b509150915081610e97576040517f08c379a0000000000000000000000000000000000000000000000000000000008152600401610e8e90614a58565b60405180910390fd5b50505050565b600080600080600080600760009054906101000a900473ffffffffffffffffffffffffffffffffffffffff1673ffffffffffffffffffffffffffffffffffffffff1663feaf968c6040518163ffffffff1660e01b815260040160a06040518083038186803b158015610f0e57600080fd5b505afa158015610f22573d6000803e3d6000fd5b505050506040513d601f19601f82011682018060405250810190610f469190613454565b94509450945094509450839550505050505090565b6060610f6682612052565b610fa5576040517f08c379a0000000000000000000000000000000000000000000000000000000008152600401610f9c90614ab8565b60405180910390fd5b6000600a60008481526020019081526020016000206040518060e0016040529081600082018054610fd590615114565b80601f016020809104026020016040519081016040528092919081815260200182805461100190615114565b801561104e5780601f106110235761010080835404028352916020019161104e565b820191906000526020600020905b81548152906001019060200180831161103157829003601f168201915b5050505050815260200160018201805461106790615114565b80601f016020809104026020016040519081016040528092919081815260200182805461109390615114565b80156110e05780601f106110b5576101008083540402835291602001916110e0565b820191906000526020600020905b8154815290600101906020018083116110c357829003601f168201915b505050505081526020016002820180546110f990615114565b80601f016020809104026020016040519081016040528092919081815260200182805461112590615114565b80156111725780601f1061114757610100808354040283529160200191611172565b820191906000526020600020905b81548152906001019060200180831161115557829003601f168201915b5050505050815260200160038201805461118b90615114565b80601f01602080910402602001604051908101604052809291908181526020018280546111b790615114565b80156112045780601f106111d957610100808354040283529160200191611204565b820191906000526020600020905b8154815290600101906020018083116111e757829003601f168201915b5050505050815260200160048201805461121d90615114565b80601f016020809104026020016040519081016040528092919081815260200182805461124990615114565b80156112965780601f1061126b57610100808354040283529160200191611296565b820191906000526020600020905b81548152906001019060200180831161127957829003601f168201915b505050505081526020016005820160009054906101000a900460ff16151515158152602001600682015481525050905060006112d18461260c565b905060006112f38360a001516112e85760006112eb565b60015b60ff1661260c565b905060006113048460c0015161260c565b90506000611318611313610e9d565b61260c565b90506000611368858760000151886020015189604001518a606001518b608001518a8a8a6040516020016113549998979695949392919061464a565b6040516020818303038152906040526127b9565b905060008160405160200161137d919061489b565b604051602081830303815290604052905080975050505050505050919050565b6000806113a8610e9d565b9050600081116113ed576040517f08c379a00000000000000000000000000000000000000000000000000000000081526004016113e4906149d8565b60405180910390fd5b60006012826008866113ff9190614e85565b6114099190614e01565b6114139190614e85565b905060008111611458576040517f08c379a000000000000000000000000000000000000000000000000000000000815260040161144f90614bd8565b60405180910390fd5b8092505050919050565b6000600a600083815260200190815260200160002060050160009054906101000a900460ff169050919050565b6114aa83838360405180602001604052806000815250611986565b505050565b6000806002600084815260200190815260200160002060009054906101000a900473ffffffffffffffffffffffffffffffffffffffff169050600073ffffffffffffffffffffffffffffffffffffffff168173ffffffffffffffffffffffffffffffffffffffff161415611558576040517f08c379a000000000000000000000000000000000000000000000000000000000815260040161154f90614b38565b60405180910390fd5b80915050919050565b60008073ffffffffffffffffffffffffffffffffffffffff168273ffffffffffffffffffffffffffffffffffffffff1614156115d2576040517f08c379a00000000000000000000000000000000000000000000000000000000081526004016115c990614b18565b60405180910390fd5b600360008373ffffffffffffffffffffffffffffffffffffffff1673ffffffffffffffffffffffffffffffffffffffff168152602001908152602001600020549050919050565b6116216120be565b73ffffffffffffffffffffffffffffffffffffffff1661163f611749565b73ffffffffffffffffffffffffffffffffffffffff1614611695576040517f08c379a000000000000000000000000000000000000000000000000000000000815260040161168c90614b98565b60405180910390fd5b61169f6000612977565b565b6116aa826114af565b73ffffffffffffffffffffffffffffffffffffffff163373ffffffffffffffffffffffffffffffffffffffff1614611717576040517f08c379a000000000000000000000000000000000000000000000000000000000815260040161170e906149b8565b60405180910390fd5b80600a600084815260200190815260200160002060050160006101000a81548160ff0219169083151502179055505050565b6000600660009054906101000a900473ffffffffffffffffffffffffffffffffffffffff16905090565b60606001805461178290615114565b80601f01602080910402602001604051908101604052809291908181526020018280546117ae90615114565b80156117fb5780601f106117d0576101008083540402835291602001916117fb565b820191906000526020600020905b8154815290600101906020018083116117de57829003601f168201915b5050505050905090565b61180d6120be565b73ffffffffffffffffffffffffffffffffffffffff168273ffffffffffffffffffffffffffffffffffffffff16141561187b576040517f08c379a000000000000000000000000000000000000000000000000000000000815260040161187290614a98565b60405180910390fd5b80600560006118886120be565b73ffffffffffffffffffffffffffffffffffffffff1673ffffffffffffffffffffffffffffffffffffffff16815260200190815260200160002060008473ffffffffffffffffffffffffffffffffffffffff1673ffffffffffffffffffffffffffffffffffffffff16815260200190815260200160002060006101000a81548160ff0219169083151502179055508173ffffffffffffffffffffffffffffffffffffffff166119356120be565b73ffffffffffffffffffffffffffffffffffffffff167f17307eab39ab6107e8899845ad3d59bd9653f200f220920489ca2b5937696c318360405161197a919061495b565b60405180910390a35050565b6119976119916120be565b836121c1565b6119d6576040517f08c379a00000000000000000000000000000000000000000000000000000000081526004016119cd90614c18565b60405180910390fd5b6119e284848484612a3d565b50505050565b60606000600a60008481526020019081526020016000206040518060e0016040529081600082018054611a1a90615114565b80601f0160208091040260200160405190810160405280929190818152602001828054611a4690615114565b8015611a935780601f10611a6857610100808354040283529160200191611a93565b820191906000526020600020905b815481529060010190602001808311611a7657829003601f168201915b50505050508152602001600182018054611aac90615114565b80601f0160208091040260200160405190810160405280929190818152602001828054611ad890615114565b8015611b255780601f10611afa57610100808354040283529160200191611b25565b820191906000526020600020905b815481529060010190602001808311611b0857829003601f168201915b50505050508152602001600282018054611b3e90615114565b80601f0160208091040260200160405190810160405280929190818152602001828054611b6a90615114565b8015611bb75780601f10611b8c57610100808354040283529160200191611bb7565b820191906000526020600020905b815481529060010190602001808311611b9a57829003601f168201915b50505050508152602001600382018054611bd090615114565b80601f0160208091040260200160405190810160405280929190818152602001828054611bfc90615114565b8015611c495780601f10611c1e57610100808354040283529160200191611c49565b820191906000526020600020905b815481529060010190602001808311611c2c57829003601f168201915b50505050508152602001600482018054611c6290615114565b80601f0160208091040260200160405190810160405280929190818152602001828054611c8e90615114565b8015611cdb5780601f10611cb057610100808354040283529160200191611cdb565b820191906000526020600020905b815481529060010190602001808311611cbe57829003601f168201915b505050505081526020016005820160009054906101000a900460ff1615151515815260200160068201548152505090506000611d2b8260a00151611d20576000611d23565b60015b60ff1661260c565b90506000611d3c8360c0015161260c565b90506000611d92611d4c8761260c565b856000015186602001518760400151886060015189608001518989604051602001611d7e98979695949392919061479a565b6040516020818303038152906040526127b9565b9050600081604051602001611da7919061489b565b60405160208183030381529060405290508095505050505050919050565b6060600960008373ffffffffffffffffffffffffffffffffffffffff1673ffffffffffffffffffffffffffffffffffffffff168152602001908152602001600020805480602002602001604051908101604052809291908181526020018280548015611e5057602002820191906000526020600020905b815481526020019060010190808311611e3c575b50505050509050919050565b6000600560008473ffffffffffffffffffffffffffffffffffffffff1673ffffffffffffffffffffffffffffffffffffffff16815260200190815260200160002060008373ffffffffffffffffffffffffffffffffffffffff1673ffffffffffffffffffffffffffffffffffffffff16815260200190815260200160002060009054906101000a900460ff16905092915050565b611ef86120be565b73ffffffffffffffffffffffffffffffffffffffff16611f16611749565b73ffffffffffffffffffffffffffffffffffffffff1614611f6c576040517f08c379a0000000000000000000000000000000000000000000000000000000008152600401611f6390614b98565b60405180910390fd5b600073ffffffffffffffffffffffffffffffffffffffff168173ffffffffffffffffffffffffffffffffffffffff161415611fdc576040517f08c379a0000000000000000000000000000000000000000000000000000000008152600401611fd390614a18565b60405180910390fd5b611fe581612977565b50565b60007f01ffc9a7000000000000000000000000000000000000000000000000000000007bffffffffffffffffffffffffffffffffffffffffffffffffffffffff1916827bffffffffffffffffffffffffffffffffffffffffffffffffffffffff1916149050919050565b60008073ffffffffffffffffffffffffffffffffffffffff166002600084815260200190815260200160002060009054906101000a900473ffffffffffffffffffffffffffffffffffffffff1673ffffffffffffffffffffffffffffffffffffffff1614159050919050565b600033905090565b816004600083815260200190815260200160002060006101000a81548173ffffffffffffffffffffffffffffffffffffffff021916908373ffffffffffffffffffffffffffffffffffffffff160217905550808273ffffffffffffffffffffffffffffffffffffffff16612139836114af565b73ffffffffffffffffffffffffffffffffffffffff167f8c5be1e5ebec7d5bd14f71427d1e84f3dd0314c0f7b2291e5b200ac8c7c3b92560405160405180910390a45050565b6001816000016000828254019250508190555050565b600081600001549050919050565b6121bd828260405180602001604052806000815250612a99565b5050565b60006121cc82612052565b61220b576040517f08c379a000000000000000000000000000000000000000000000000000000000815260040161220290614ad8565b60405180910390fd5b6000612216836114af565b90508073ffffffffffffffffffffffffffffffffffffffff168473ffffffffffffffffffffffffffffffffffffffff16148061228557508373ffffffffffffffffffffffffffffffffffffffff1661226d84610786565b73ffffffffffffffffffffffffffffffffffffffff16145b8061229657506122958185611e5c565b5b91505092915050565b8273ffffffffffffffffffffffffffffffffffffffff166122bf826114af565b73ffffffffffffffffffffffffffffffffffffffff1614612315576040517f08c379a000000000000000000000000000000000000000000000000000000000815260040161230c90614bb8565b60405180910390fd5b600073ffffffffffffffffffffffffffffffffffffffff168273ffffffffffffffffffffffffffffffffffffffff161415612385576040517f08c379a000000000000000000000000000000000000000000000000000000000815260040161237c90614a78565b60405180910390fd5b612390838383612af4565b61239b6000826120c6565b6001600360008573ffffffffffffffffffffffffffffffffffffffff1673ffffffffffffffffffffffffffffffffffffffff16815260200190815260200160002060008282546123eb9190614ffd565b925050819055506001600360008473ffffffffffffffffffffffffffffffffffffffff1673ffffffffffffffffffffffffffffffffffffffff16815260200190815260200160002060008282546124429190614dab565b92505081905550816002600083815260200190815260200160002060006101000a81548173ffffffffffffffffffffffffffffffffffffffff021916908373ffffffffffffffffffffffffffffffffffffffff160217905550808273ffffffffffffffffffffffffffffffffffffffff168473ffffffffffffffffffffffffffffffffffffffff167fddf252ad1be2c89b69c2b068fc378daa952ba7f163c4a11628f55a4df523b3ef60405160405180910390a4505050565b6000612506826114af565b905061251481600084612af4565b61251f6000836120c6565b6001600360008373ffffffffffffffffffffffffffffffffffffffff1673ffffffffffffffffffffffffffffffffffffffff168152602001908152602001600020600082825461256f9190614ffd565b925050819055506002600083815260200190815260200160002060006101000a81549073ffffffffffffffffffffffffffffffffffffffff021916905581600073ffffffffffffffffffffffffffffffffffffffff168273ffffffffffffffffffffffffffffffffffffffff167fddf252ad1be2c89b69c2b068fc378daa952ba7f163c4a11628f55a4df523b3ef60405160405180910390a45050565b60606000821415612654576040518060400160405280600181526020017f300000000000000000000000000000000000000000000000000000000000000081525090506127b4565b600082905060005b6000821461268657808061266f90615146565b915050600a8261267f9190614e01565b915061265c565b60008167ffffffffffffffff8111156126c8577f4e487b7100000000000000000000000000000000000000000000000000000000600052604160045260246000fd5b6040519080825280601f01601f1916602001820160405280156126fa5781602001600182028036833780820191505090505b5090505b600085146127ad576001826127139190614ffd565b9150600a85612722919061518f565b603061272e9190614dab565b60f81b81838151811061276a577f4e487b7100000000000000000000000000000000000000000000000000000000600052603260045260246000fd5b60200101907effffffffffffffffffffffffffffffffffffffffffffffffffffffffffffff1916908160001a905350600a856127a69190614e01565b94506126fe565b8093505050505b919050565b606060008251905060008114156127e25760405180602001604052806000815250915050612972565b600060036002836127f39190614dab565b6127fd9190614e01565b60046128099190614fa3565b9050600060208261281a9190614dab565b67ffffffffffffffff811115612859577f4e487b7100000000000000000000000000000000000000000000000000000000600052604160045260246000fd5b6040519080825280601f01601f19166020018201604052801561288b5781602001600182028036833780820191505090505b5090506000604051806060016040528060408152602001615325604091399050600181016020830160005b8681101561292f5760038101905062ffffff818a015116603f8160121c168401518060081b905060ff603f83600c1c1686015116810190508060081b905060ff603f8360061c1686015116810190508060081b905060ff603f831686015116810190508060e01b905080845260048401935050506128b6565b506003860660018114612949576002811461295957612964565b613d3d60f01b6002830352612964565b603d60f81b60018303525b508484525050819450505050505b919050565b6000600660009054906101000a900473ffffffffffffffffffffffffffffffffffffffff16905081600660006101000a81548173ffffffffffffffffffffffffffffffffffffffff021916908373ffffffffffffffffffffffffffffffffffffffff1602179055508173ffffffffffffffffffffffffffffffffffffffff168173ffffffffffffffffffffffffffffffffffffffff167f8be0079c531659141344cd1fd0a4f28419497f9722a3daafe3b4186f6b6457e060405160405180910390a35050565b612a4884848461229f565b612a5484848484612af9565b612a93576040517f08c379a0000000000000000000000000000000000000000000000000000000008152600401612a8a906149f8565b60405180910390fd5b50505050565b612aa38383612c90565b612ab06000848484612af9565b612aef576040517f08c379a0000000000000000000000000000000000000000000000000000000008152600401612ae6906149f8565b60405180910390fd5b505050565b505050565b6000612b1a8473ffffffffffffffffffffffffffffffffffffffff16612e5e565b15612c83578373ffffffffffffffffffffffffffffffffffffffff1663150b7a02612b436120be565b8786866040518563ffffffff1660e01b8152600401612b6594939291906148ed565b602060405180830381600087803b158015612b7f57600080fd5b505af1925050508015612bb057506040513d601f19601f82011682018060405250810190612bad919061329c565b60015b612c33573d8060008114612be0576040519150601f19603f3d011682016040523d82523d6000602084013e612be5565b606091505b50600081511415612c2b576040517f08c379a0000000000000000000000000000000000000000000000000000000008152600401612c22906149f8565b60405180910390fd5b805181602001fd5b63150b7a0260e01b7bffffffffffffffffffffffffffffffffffffffffffffffffffffffff1916817bffffffffffffffffffffffffffffffffffffffffffffffffffffffff191614915050612c88565b600190505b949350505050565b600073ffffffffffffffffffffffffffffffffffffffff168273ffffffffffffffffffffffffffffffffffffffff161415612d00576040517f08c379a0000000000000000000000000000000000000000000000000000000008152600401612cf790614b58565b60405180910390fd5b612d0981612052565b15612d49576040517f08c379a0000000000000000000000000000000000000000000000000000000008152600401612d4090614a38565b60405180910390fd5b612d5560008383612af4565b6001600360008473ffffffffffffffffffffffffffffffffffffffff1673ffffffffffffffffffffffffffffffffffffffff1681526020019081526020016000206000828254612da59190614dab565b92505081905550816002600083815260200190815260200160002060006101000a81548173ffffffffffffffffffffffffffffffffffffffff021916908373ffffffffffffffffffffffffffffffffffffffff160217905550808273ffffffffffffffffffffffffffffffffffffffff16600073ffffffffffffffffffffffffffffffffffffffff167fddf252ad1be2c89b69c2b068fc378daa952ba7f163c4a11628f55a4df523b3ef60405160405180910390a45050565b600080823b905060008111915050919050565b828054612e7d90615114565b90600052602060002090601f016020900481019282612e9f5760008555612ee6565b82601f10612eb857805160ff1916838001178555612ee6565b82800160010185558215612ee6579182015b82811115612ee5578251825591602001919060010190612eca565b5b509050612ef39190612f37565b5090565b508054612f0390615114565b6000825580601f10612f155750612f34565b601f016020900490600052602060002090810190612f339190612f37565b5b50565b5b80821115612f50576000816000905550600101612f38565b5090565b6000612f67612f6284614cc4565b614c93565b905082815260208101848484011115612f7f57600080fd5b612f8a8482856150d2565b509392505050565b6000612fa5612fa084614cf4565b614c93565b905082815260208101848484011115612fbd57600080fd5b612fc88482856150d2565b509392505050565b600081359050612fdf8161529a565b92915050565b600081359050612ff4816152b1565b92915050565b600081359050613009816152c8565b92915050565b60008151905061301e816152c8565b92915050565b600082601f83011261303557600080fd5b8135613045848260208601612f54565b91505092915050565b60008151905061305d816152df565b92915050565b600082601f83011261307457600080fd5b8135613084848260208601612f92565b91505092915050565b60008135905061309c816152f6565b92915050565b6000815190506130b1816152f6565b92915050565b6000815190506130c68161530d565b92915050565b6000602082840312156130de57600080fd5b60006130ec84828501612fd0565b91505092915050565b6000806040838503121561310857600080fd5b600061311685828601612fd0565b925050602061312785828601612fd0565b9150509250929050565b60008060006060848603121561314657600080fd5b600061315486828701612fd0565b935050602061316586828701612fd0565b92505060406131768682870161308d565b9150509250925092565b6000806000806080858703121561319657600080fd5b60006131a487828801612fd0565b94505060206131b587828801612fd0565b93505060406131c68782880161308d565b925050606085013567ffffffffffffffff8111156131e357600080fd5b6131ef87828801613024565b91505092959194509250565b6000806040838503121561320e57600080fd5b600061321c85828601612fd0565b925050602061322d85828601612fe5565b9150509250929050565b6000806040838503121561324a57600080fd5b600061325885828601612fd0565b92505060206132698582860161308d565b9150509250929050565b60006020828403121561328557600080fd5b600061329384828501612ffa565b91505092915050565b6000602082840312156132ae57600080fd5b60006132bc8482850161300f565b91505092915050565b600080600080600080600080610100898b0312156132e257600080fd5b600089013567ffffffffffffffff8111156132fc57600080fd5b6133088b828c01613063565b985050602089013567ffffffffffffffff81111561332557600080fd5b6133318b828c01613063565b975050604089013567ffffffffffffffff81111561334e57600080fd5b61335a8b828c01613063565b965050606089013567ffffffffffffffff81111561337757600080fd5b6133838b828c01613063565b955050608089013567ffffffffffffffff8111156133a057600080fd5b6133ac8b828c01613063565b94505060a06133bd8b828c01612fe5565b93505060c06133ce8b828c0161308d565b92505060e06133df8b828c0161308d565b9150509295985092959890939650565b60006020828403121561340157600080fd5b600061340f8482850161308d565b91505092915050565b6000806040838503121561342b57600080fd5b60006134398582860161308d565b925050602061344a85828601612fe5565b9150509250929050565b600080600080600060a0868803121561346c57600080fd5b600061347a888289016130b7565b955050602061348b8882890161304e565b945050604061349c888289016130a2565b93505060606134ad888289016130a2565b92505060806134be888289016130b7565b9150509295509295909350565b60006134d7838361462c565b60208301905092915050565b6134ec81615031565b82525050565b60006134fd82614d34565b6135078185614d62565b935061351283614d24565b8060005b8381101561354357815161352a88826134cb565b975061353583614d55565b925050600181019050613516565b5085935050505092915050565b61355981615043565b82525050565b600061356a82614d3f565b6135748185614d73565b93506135848185602086016150e1565b61358d8161527c565b840191505092915050565b60006135a382614d4a565b6135ad8185614d8f565b93506135bd8185602086016150e1565b6135c68161527c565b840191505092915050565b60006135dc82614d4a565b6135e68185614da0565b93506135f68185602086016150e1565b80840191505092915050565b600061360f601083614da0565b91507f22626f617264696e6754696d65223a22000000000000000000000000000000006000830152601082019050919050565b600061364f600b83614da0565b91507f2263616e63656c6564223a0000000000000000000000000000000000000000006000830152600b82019050919050565b600061368f601c83614d8f565b91507f5468697320666c696768742069736e27742063616e63656c65642121000000006000830152602082019050919050565b60006136cf600b83614da0565b91507f202d2d204e465420233a200000000000000000000000000000000000000000006000830152600b82019050919050565b600061370f600f83614d8f565b91507f4e6f7420796f757220746f6b656e2100000000000000000000000000000000006000830152602082019050919050565b600061374f603383614d8f565b91507f4574686572207072696365206861736e2774206265656e20726574726965766560008301527f207965742066726f6d20436861696e6c696e6b000000000000000000000000006020830152604082019050919050565b60006137b5602983614da0565b91507f7d2c20207b202274726169745f74797065223a202243616e63656c6564222c2060008301527f2276616c7565223a2000000000000000000000000000000000000000000000006020830152602982019050919050565b600061381b603283614d8f565b91507f4552433732313a207472616e7366657220746f206e6f6e20455243373231526560008301527f63656976657220696d706c656d656e74657200000000000000000000000000006020830152604082019050919050565b6000613881602683614d8f565b91507f4f776e61626c653a206e6577206f776e657220697320746865207a65726f206160008301527f64647265737300000000000000000000000000000000000000000000000000006020830152604082019050919050565b60006138e7600283614da0565b91507f222c0000000000000000000000000000000000000000000000000000000000006000830152600282019050919050565b6000613927601c83614d8f565b91507f4552433732313a20746f6b656e20616c7265616479206d696e746564000000006000830152602082019050919050565b6000613967602e83614da0565b91507f7d2c20207b202274726169745f74797065223a2022426f617264696e6720546960008301527f6d65222c202276616c7565223a200000000000000000000000000000000000006020830152602e82019050919050565b60006139cd600283614da0565b91507f7d7d0000000000000000000000000000000000000000000000000000000000006000830152600282019050919050565b6000613a0d600883614da0565b91507f227072696365223a0000000000000000000000000000000000000000000000006000830152600882019050919050565b6000613a4d602e83614da0565b91507f7d2c20207b202274726169745f74797065223a2022426f617264696e6720446160008301527f7465222c202276616c7565223a200000000000000000000000000000000000006020830152602e82019050919050565b6000613ab3600183614da0565b91507f2c000000000000000000000000000000000000000000000000000000000000006000830152600182019050919050565b6000613af3600983614da0565b91507f7b2264617461223a7b00000000000000000000000000000000000000000000006000830152600982019050919050565b6000613b33601483614d8f565b91507f4661696c656420746f2073656e642045746865720000000000000000000000006000830152602082019050919050565b6000613b73602483614d8f565b91507f4552433732313a207472616e7366657220746f20746865207a65726f2061646460008301527f72657373000000000000000000000000000000000000000000000000000000006020830152604082019050919050565b6000613bd9601983614d8f565b91507f4552433732313a20617070726f766520746f2063616c6c6572000000000000006000830152602082019050919050565b6000613c19601483614d8f565b91507f546f6b656e20646f65736e2774206578697374730000000000000000000000006000830152602082019050919050565b6000613c59600d83614da0565b91507f22646570617274757265223a22000000000000000000000000000000000000006000830152600d82019050919050565b6000613c99600f83614da0565b91507f2264657374696e6174696f6e223a2200000000000000000000000000000000006000830152600f82019050919050565b6000613cd9602c83614d8f565b91507f4552433732313a206f70657261746f7220717565727920666f72206e6f6e657860008301527f697374656e7420746f6b656e00000000000000000000000000000000000000006020830152604082019050919050565b6000613d3f600b83614da0565b91507f22746f6b656e4964223a220000000000000000000000000000000000000000006000830152600b82019050919050565b6000613d7f602983614da0565b91507f7d2c207b202274726169745f74797065223a2022446570617274757265222c2060008301527f2276616c7565223a2000000000000000000000000000000000000000000000006020830152602982019050919050565b6000613de5603883614d8f565b91507f4552433732313a20617070726f76652063616c6c6572206973206e6f74206f7760008301527f6e6572206e6f7220617070726f76656420666f7220616c6c00000000000000006020830152604082019050919050565b6000613e4b602a83614d8f565b91507f4552433732313a2062616c616e636520717565727920666f7220746865207a6560008301527f726f2061646472657373000000000000000000000000000000000000000000006020830152604082019050919050565b6000613eb1602983614d8f565b91507f4552433732313a206f776e657220717565727920666f72206e6f6e657869737460008301527f656e7420746f6b656e00000000000000000000000000000000000000000000006020830152604082019050919050565b6000613f17600c83614da0565b91507f426f617264696e675061737300000000000000000000000000000000000000006000830152600c82019050919050565b6000613f57600483614da0565b91507f7d205d7d000000000000000000000000000000000000000000000000000000006000830152600482019050919050565b6000613f97602083614d8f565b91507f4552433732313a206d696e7420746f20746865207a65726f20616464726573736000830152602082019050919050565b6000613fd7602b83614da0565b91507f7d2c207b202274726169745f74797065223a202244657374696e6174696f6e2260008301527f2c202276616c7565223a200000000000000000000000000000000000000000006020830152602b82019050919050565b600061403d602c83614d8f565b91507f4552433732313a20617070726f76656420717565727920666f72206e6f6e657860008301527f697374656e7420746f6b656e00000000000000000000000000000000000000006020830152604082019050919050565b60006140a3602083614d8f565b91507f4f776e61626c653a2063616c6c6572206973206e6f7420746865206f776e65726000830152602082019050919050565b60006140e3602983614d8f565b91507f4552433732313a207472616e73666572206f6620746f6b656e2074686174206960008301527f73206e6f74206f776e00000000000000000000000000000000000000000000006020830152604082019050919050565b6000614149601083614da0565b91507f22626f617264696e6744617465223a22000000000000000000000000000000006000830152601082019050919050565b6000614189600a83614da0565b91507f7b226e616d65223a2022000000000000000000000000000000000000000000006000830152600a82019050919050565b60006141c9602583614d8f565b91507f50726f626c656d20696e20636f6e76657273696f6e20696e7369646520636f6e60008301527f74726163740000000000000000000000000000000000000000000000000000006020830152604082019050919050565b600061422f603383614da0565b91507f222c202261747472696275746573223a205b207b202274726169745f7479706560008301527f223a20224e756d222c202276616c7565223a20000000000000000000000000006020830152603382019050919050565b6000614295605083614da0565b91507f222c20226465736372697074696f6e223a2022556e6520636f6c6c656374696f60008301527f6e2071756920726570726573656e7465206465732062696c6c6574732064276160208301527f76696f6e222c22696d616765223a2022000000000000000000000000000000006040830152605082019050919050565b6000614321602183614d8f565b91507f4552433732313a20617070726f76616c20746f2063757272656e74206f776e6560008301527f72000000000000000000000000000000000000000000000000000000000000006020830152604082019050919050565b6000614387603e83614da0565b91507f68747470733a2f2f696d616765732e656d6f6a6974657272612e636f6d2f676f60008301527f6f676c652f616e64726f69642d31312f35313270782f323730382e706e6700006020830152603e82019050919050565b60006143ed601d83614da0565b91507f646174613a6170706c69636174696f6e2f6a736f6e3b6261736536342c0000006000830152601d82019050919050565b600061442d602a83614da0565b91507f7d2c20207b202274726169745f74797065223a2022555344205072696365222c60008301527f202276616c7565223a20000000000000000000000000000000000000000000006020830152602a82019050919050565b6000614493600083614d84565b9150600082019050919050565b60006144ad603183614d8f565b91507f4552433732313a207472616e736665722063616c6c6572206973206e6f74206f60008301527f776e6572206e6f7220617070726f7665640000000000000000000000000000006020830152604082019050919050565b6000614513601083614d8f565b91507f4e6f7420656e6f756768204574686572000000000000000000000000000000006000830152602082019050919050565b6000614553600b83614da0565b91507f226574685072696365223a0000000000000000000000000000000000000000006000830152600b82019050919050565b6000614593602683614d8f565b91507f436f6e747261637427732062616c616e6365206861736e277420656e6f75676860008301527f20457468657200000000000000000000000000000000000000000000000000006020830152604082019050919050565b60006145f9600783614da0565b91507f226e756d223a22000000000000000000000000000000000000000000000000006000830152600782019050919050565b614635816150a5565b82525050565b614644816150a5565b82525050565b600061465582613ae6565b915061466082613d32565b915061466c828c6135d1565b9150614677826138da565b9150614682826145ec565b915061468e828b6135d1565b9150614699826138da565b91506146a482613c4c565b91506146b0828a6135d1565b91506146bb826138da565b91506146c682613c8c565b91506146d282896135d1565b91506146dd826138da565b91506146e88261413c565b91506146f482886135d1565b91506146ff826138da565b915061470a82613602565b915061471682876135d1565b9150614721826138da565b915061472c82613642565b915061473882866135d1565b915061474382613aa6565b915061474e82613a00565b915061475a82856135d1565b915061476582613aa6565b915061477082614546565b915061477c82846135d1565b9150614787826139c0565b91508190509a9950505050505050505050565b60006147a58261417c565b91506147b082613f0a565b91506147bb826136c2565b91506147c7828b6135d1565b91506147d282614288565b91506147dd8261437a565b91506147e882614222565b91506147f4828a6135d1565b91506147ff82613d72565b915061480b82896135d1565b915061481682613fca565b915061482282886135d1565b915061482d82613a40565b915061483982876135d1565b91506148448261395a565b915061485082866135d1565b915061485b826137a8565b915061486782856135d1565b915061487282614420565b915061487e82846135d1565b915061488982613f4a565b91508190509998505050505050505050565b60006148a6826143e0565b91506148b282846135d1565b915081905092915050565b60006148c882614486565b9150819050919050565b60006020820190506148e760008301846134e3565b92915050565b600060808201905061490260008301876134e3565b61490f60208301866134e3565b61491c604083018561463b565b818103606083015261492e818461355f565b905095945050505050565b6000602082019050818103600083015261495381846134f2565b905092915050565b60006020820190506149706000830184613550565b92915050565b600060208201905081810360008301526149908184613598565b905092915050565b600060208201905081810360008301526149b181613682565b9050919050565b600060208201905081810360008301526149d181613702565b9050919050565b600060208201905081810360008301526149f181613742565b9050919050565b60006020820190508181036000830152614a118161380e565b9050919050565b60006020820190508181036000830152614a3181613874565b9050919050565b60006020820190508181036000830152614a518161391a565b9050919050565b60006020820190508181036000830152614a7181613b26565b9050919050565b60006020820190508181036000830152614a9181613b66565b9050919050565b60006020820190508181036000830152614ab181613bcc565b9050919050565b60006020820190508181036000830152614ad181613c0c565b9050919050565b60006020820190508181036000830152614af181613ccc565b9050919050565b60006020820190508181036000830152614b1181613dd8565b9050919050565b60006020820190508181036000830152614b3181613e3e565b9050919050565b60006020820190508181036000830152614b5181613ea4565b9050919050565b60006020820190508181036000830152614b7181613f8a565b9050919050565b60006020820190508181036000830152614b9181614030565b9050919050565b60006020820190508181036000830152614bb181614096565b9050919050565b60006020820190508181036000830152614bd1816140d6565b9050919050565b60006020820190508181036000830152614bf1816141bc565b9050919050565b60006020820190508181036000830152614c1181614314565b9050919050565b60006020820190508181036000830152614c31816144a0565b9050919050565b60006020820190508181036000830152614c5181614506565b9050919050565b60006020820190508181036000830152614c7181614586565b9050919050565b6000602082019050614c8d600083018461463b565b92915050565b6000604051905081810181811067ffffffffffffffff82111715614cba57614cb961524d565b5b8060405250919050565b600067ffffffffffffffff821115614cdf57614cde61524d565b5b601f19601f8301169050602081019050919050565b600067ffffffffffffffff821115614d0f57614d0e61524d565b5b601f19601f8301169050602081019050919050565b6000819050602082019050919050565b600081519050919050565b600081519050919050565b600081519050919050565b6000602082019050919050565b600082825260208201905092915050565b600082825260208201905092915050565b600081905092915050565b600082825260208201905092915050565b600081905092915050565b6000614db6826150a5565b9150614dc1836150a5565b9250827fffffffffffffffffffffffffffffffffffffffffffffffffffffffffffffffff03821115614df657614df56151c0565b5b828201905092915050565b6000614e0c826150a5565b9150614e17836150a5565b925082614e2757614e266151ef565b5b828204905092915050565b6000808291508390505b6001851115614e7c57808604811115614e5857614e576151c0565b5b6001851615614e675780820291505b8081029050614e758561528d565b9450614e3c565b94509492505050565b6000614e90826150a5565b9150614e9b836150af565b9250614ec87fffffffffffffffffffffffffffffffffffffffffffffffffffffffffffffffff8484614ed0565b905092915050565b600082614ee05760019050614f9c565b81614eee5760009050614f9c565b8160018114614f045760028114614f0e57614f3d565b6001915050614f9c565b60ff841115614f2057614f1f6151c0565b5b8360020a915084821115614f3757614f366151c0565b5b50614f9c565b5060208310610133831016604e8410600b8410161715614f725782820a905083811115614f6d57614f6c6151c0565b5b614f9c565b614f7f8484846001614e32565b92509050818404811115614f9657614f956151c0565b5b81810290505b9392505050565b6000614fae826150a5565b9150614fb9836150a5565b9250817fffffffffffffffffffffffffffffffffffffffffffffffffffffffffffffffff0483118215151615614ff257614ff16151c0565b5b828202905092915050565b6000615008826150a5565b9150615013836150a5565b925082821015615026576150256151c0565b5b828203905092915050565b600061503c82615085565b9050919050565b60008115159050919050565b60007fffffffff0000000000000000000000000000000000000000000000000000000082169050919050565b6000819050919050565b600073ffffffffffffffffffffffffffffffffffffffff82169050919050565b6000819050919050565b600060ff82169050919050565b600069ffffffffffffffffffff82169050919050565b82818337600083830152505050565b60005b838110156150ff5780820151818401526020810190506150e4565b8381111561510e576000848401525b50505050565b6000600282049050600182168061512c57607f821691505b602082108114156151405761513f61521e565b5b50919050565b6000615151826150a5565b91507fffffffffffffffffffffffffffffffffffffffffffffffffffffffffffffffff821415615184576151836151c0565b5b600182019050919050565b600061519a826150a5565b91506151a5836150a5565b9250826151b5576151b46151ef565b5b828206905092915050565b7f4e487b7100000000000000000000000000000000000000000000000000000000600052601160045260246000fd5b7f4e487b7100000000000000000000000000000000000000000000000000000000600052601260045260246000fd5b7f4e487b7100000000000000000000000000000000000000000000000000000000600052602260045260246000fd5b7f4e487b7100000000000000000000000000000000000000000000000000000000600052604160045260246000fd5b6000601f19601f8301169050919050565b60008160011c9050919050565b6152a381615031565b81146152ae57600080fd5b50565b6152ba81615043565b81146152c557600080fd5b50565b6152d18161504f565b81146152dc57600080fd5b50565b6152e88161507b565b81146152f357600080fd5b50565b6152ff816150a5565b811461530a57600080fd5b50565b615316816150bc565b811461532157600080fd5b5056fe4142434445464748494a4b4c4d4e4f505152535455565758595a6162636465666768696a6b6c6d6e6f707172737475767778797a303132333435363738392b2fa26469706673582212202a4c728bb00a40d42a1e546f9072e8f8e2353768cc0b2081785179a070a2e58b64736f6c63430008000033",
  "linkReferences": {},
  "deployedLinkReferences": {}
}