{
  "_format": "hh-sol-artifact-1",
  "contractName": "BoardingPass",
  "sourceName": "contracts/BoardingPass.sol",
  "abi": [
    {
      "inputs": [],
      "stateMutability": "nonpayable",
      "type": "constructor"
    },
    {
      "anonymous": false,
      "inputs": [
        {
          "indexed": true,
          "internalType": "address",
          "name": "owner",
          "type": "address"
        },
        {
          "indexed": true,
          "internalType": "address",
          "name": "approved",
          "type": "address"
        },
        {
          "indexed": true,
          "internalType": "uint256",
          "name": "tokenId",
          "type": "uint256"
        }
      ],
      "name": "Approval",
      "type": "event"
    },
    {
      "anonymous": false,
      "inputs": [
        {
          "indexed": true,
          "internalType": "address",
          "name": "owner",
          "type": "address"
        },
        {
          "indexed": true,
          "internalType": "address",
          "name": "operator",
          "type": "address"
        },
        {
          "indexed": false,
          "internalType": "bool",
          "name": "approved",
          "type": "bool"
        }
      ],
      "name": "ApprovalForAll",
      "type": "event"
    },
    {
      "anonymous": false,
      "inputs": [
        {
          "indexed": true,
          "internalType": "address",
          "name": "previousOwner",
          "type": "address"
        },
        {
          "indexed": true,
          "internalType": "address",
          "name": "newOwner",
          "type": "address"
        }
      ],
      "name": "OwnershipTransferred",
      "type": "event"
    },
    {
      "anonymous": false,
      "inputs": [
        {
          "indexed": true,
          "internalType": "address",
          "name": "from",
          "type": "address"
        },
        {
          "indexed": true,
          "internalType": "address",
          "name": "to",
          "type": "address"
        },
        {
          "indexed": true,
          "internalType": "uint256",
          "name": "tokenId",
          "type": "uint256"
        }
      ],
      "name": "Transfer",
      "type": "event"
    },
    {
      "inputs": [
        {
          "internalType": "address",
          "name": "to",
          "type": "address"
        },
        {
          "internalType": "uint256",
          "name": "tokenId",
          "type": "uint256"
        }
      ],
      "name": "approve",
      "outputs": [],
      "stateMutability": "nonpayable",
      "type": "function"
    },
    {
      "inputs": [
        {
          "internalType": "address",
          "name": "owner",
          "type": "address"
        }
      ],
      "name": "balanceOf",
      "outputs": [
        {
          "internalType": "uint256",
          "name": "",
          "type": "uint256"
        }
      ],
      "stateMutability": "view",
      "type": "function"
    },
    {
      "inputs": [
        {
          "internalType": "uint256",
          "name": "_tokenId",
          "type": "uint256"
        }
      ],
      "name": "deleteTOken",
      "outputs": [],
      "stateMutability": "nonpayable",
      "type": "function"
    },
    {
      "inputs": [
        {
          "internalType": "address",
          "name": "_address",
          "type": "address"
        }
      ],
      "name": "getAllTokensFromAdress",
      "outputs": [
        {
          "internalType": "uint256[]",
          "name": "",
          "type": "uint256[]"
        }
      ],
      "stateMutability": "view",
      "type": "function"
    },
    {
      "inputs": [
        {
          "internalType": "uint256",
          "name": "tokenId",
          "type": "uint256"
        }
      ],
      "name": "getApproved",
      "outputs": [
        {
          "internalType": "address",
          "name": "",
          "type": "address"
        }
      ],
      "stateMutability": "view",
      "type": "function"
    },
    {
      "inputs": [],
      "name": "getBalance",
      "outputs": [
        {
          "internalType": "uint256",
          "name": "",
          "type": "uint256"
        }
      ],
      "stateMutability": "view",
      "type": "function"
    },
    {
      "inputs": [],
      "name": "getLatestEthPrice",
      "outputs": [
        {
          "internalType": "uint256",
          "name": "",
          "type": "uint256"
        }
      ],
      "stateMutability": "view",
      "type": "function"
    },
    {
      "inputs": [
        {
          "internalType": "uint256",
          "name": "_tokenId",
          "type": "uint256"
        }
      ],
      "name": "getTokenCanceledValue",
      "outputs": [
        {
          "internalType": "bool",
          "name": "",
          "type": "bool"
        }
      ],
      "stateMutability": "view",
      "type": "function"
    },
    {
      "inputs": [
        {
          "internalType": "uint256",
          "name": "_tokenId",
          "type": "uint256"
        }
      ],
      "name": "getTokenURI",
      "outputs": [
        {
          "internalType": "string",
          "name": "",
          "type": "string"
        }
      ],
      "stateMutability": "view",
      "type": "function"
    },
    {
      "inputs": [
        {
          "internalType": "uint256",
          "name": "usdPrice",
          "type": "uint256"
        }
      ],
      "name": "getWeiByUSD",
      "outputs": [
        {
          "internalType": "uint256",
          "name": "",
          "type": "uint256"
        }
      ],
      "stateMutability": "view",
      "type": "function"
    },
    {
      "inputs": [
        {
          "internalType": "address",
          "name": "owner",
          "type": "address"
        },
        {
          "internalType": "address",
          "name": "operator",
          "type": "address"
        }
      ],
      "name": "isApprovedForAll",
      "outputs": [
        {
          "internalType": "bool",
          "name": "",
          "type": "bool"
        }
      ],
      "stateMutability": "view",
      "type": "function"
    },
    {
      "inputs": [
        {
          "internalType": "string",
          "name": "_num",
          "type": "string"
        },
        {
          "internalType": "string",
          "name": "_departure",
          "type": "string"
        },
        {
          "internalType": "string",
          "name": "_destination",
          "type": "string"
        },
        {
          "internalType": "string",
          "name": "_boardingDate",
          "type": "string"
        },
        {
          "internalType": "string",
          "name": "_boardingTime",
          "type": "string"
        },
        {
          "internalType": "bool",
          "name": "_canceled",
          "type": "bool"
        },
        {
          "internalType": "uint256",
          "name": "_price",
          "type": "uint256"
        },
        {
          "internalType": "uint256",
          "name": "_wei",
          "type": "uint256"
        }
      ],
      "name": "mint",
      "outputs": [],
      "stateMutability": "payable",
      "type": "function"
    },
    {
      "inputs": [],
      "name": "name",
      "outputs": [
        {
          "internalType": "string",
          "name": "",
          "type": "string"
        }
      ],
      "stateMutability": "view",
      "type": "function"
    },
    {
      "inputs": [],
      "name": "owner",
      "outputs": [
        {
          "internalType": "address",
          "name": "",
          "type": "address"
        }
      ],
      "stateMutability": "view",
      "type": "function"
    },
    {
      "inputs": [
        {
          "internalType": "uint256",
          "name": "tokenId",
          "type": "uint256"
        }
      ],
      "name": "ownerOf",
      "outputs": [
        {
          "internalType": "address",
          "name": "",
          "type": "address"
        }
      ],
      "stateMutability": "view",
      "type": "function"
    },
    {
      "inputs": [
        {
          "internalType": "uint256",
          "name": "_tokenId",
          "type": "uint256"
        }
      ],
      "name": "refund",
      "outputs": [],
      "stateMutability": "payable",
      "type": "function"
    },
    {
      "inputs": [],
      "name": "renounceOwnership",
      "outputs": [],
      "stateMutability": "nonpayable",
      "type": "function"
    },
    {
      "inputs": [
        {
          "internalType": "address",
          "name": "from",
          "type": "address"
        },
        {
          "internalType": "address",
          "name": "to",
          "type": "address"
        },
        {
          "internalType": "uint256",
          "name": "tokenId",
          "type": "uint256"
        }
      ],
      "name": "safeTransferFrom",
      "outputs": [],
      "stateMutability": "nonpayable",
      "type": "function"
    },
    {
      "inputs": [
        {
          "internalType": "address",
          "name": "from",
          "type": "address"
        },
        {
          "internalType": "address",
          "name": "to",
          "type": "address"
        },
        {
          "internalType": "uint256",
          "name": "tokenId",
          "type": "uint256"
        },
        {
          "internalType": "bytes",
          "name": "_data",
          "type": "bytes"
        }
      ],
      "name": "safeTransferFrom",
      "outputs": [],
      "stateMutability": "nonpayable",
      "type": "function"
    },
    {
      "inputs": [
        {
          "internalType": "address",
          "name": "operator",
          "type": "address"
        },
        {
          "internalType": "bool",
          "name": "approved",
          "type": "bool"
        }
      ],
      "name": "setApprovalForAll",
      "outputs": [],
      "stateMutability": "nonpayable",
      "type": "function"
    },
    {
      "inputs": [
        {
          "internalType": "bytes4",
          "name": "interfaceId",
          "type": "bytes4"
        }
      ],
      "name": "supportsInterface",
      "outputs": [
        {
          "internalType": "bool",
          "name": "",
          "type": "bool"
        }
      ],
      "stateMutability": "view",
      "type": "function"
    },
    {
      "inputs": [],
      "name": "symbol",
      "outputs": [
        {
          "internalType": "string",
          "name": "",
          "type": "string"
        }
      ],
      "stateMutability": "view",
      "type": "function"
    },
    {
      "inputs": [
        {
          "internalType": "uint256",
          "name": "_tokenId",
          "type": "uint256"
        }
      ],
      "name": "tokenURI",
      "outputs": [
        {
          "internalType": "string",
          "name": "",
          "type": "string"
        }
      ],
      "stateMutability": "view",
      "type": "function"
    },
    {
      "inputs": [
        {
          "internalType": "address",
          "name": "from",
          "type": "address"
        },
        {
          "internalType": "address",
          "name": "to",
          "type": "address"
        },
        {
          "internalType": "uint256",
          "name": "tokenId",
          "type": "uint256"
        }
      ],
      "name": "transferFrom",
      "outputs": [],
      "stateMutability": "nonpayable",
      "type": "function"
    },
    {
      "inputs": [
        {
          "internalType": "address",
          "name": "newOwner",
          "type": "address"
        }
      ],
      "name": "transferOwnership",
      "outputs": [],
      "stateMutability": "nonpayable",
      "type": "function"
    },
    {
      "inputs": [
        {
          "internalType": "uint256",
          "name": "_tokenId",
          "type": "uint256"
        },
        {
          "internalType": "bool",
          "name": "_isCanceled",
          "type": "bool"
        }
      ],
      "name": "updateTokenCanceledValue",
      "outputs": [],
      "stateMutability": "nonpayable",
      "type": "function"
    }
  ],
  "bytecode": "0x60806040523480156200001157600080fd5b506040518060400160405280600e81526020017f506c616e6548756220546f6b656e0000000000000000000000000000000000008152506040518060400160405280600381526020017f5048540000000000000000000000000000000000000000000000000000000000815250816000908051906020019062000096929190620001fb565b508060019080519060200190620000af929190620001fb565b505050620000d2620000c66200012d60201b60201c565b6200013560201b60201c565b738a753747a1fa494ec906ce90e9f37563a8af630e600760006101000a81548173ffffffffffffffffffffffffffffffffffffffff021916908373ffffffffffffffffffffffffffffffffffffffff16021790555062000310565b600033905090565b6000600660009054906101000a900473ffffffffffffffffffffffffffffffffffffffff16905081600660006101000a81548173ffffffffffffffffffffffffffffffffffffffff021916908373ffffffffffffffffffffffffffffffffffffffff1602179055508173ffffffffffffffffffffffffffffffffffffffff168173ffffffffffffffffffffffffffffffffffffffff167f8be0079c531659141344cd1fd0a4f28419497f9722a3daafe3b4186f6b6457e060405160405180910390a35050565b8280546200020990620002ab565b90600052602060002090601f0160209004810192826200022d576000855562000279565b82601f106200024857805160ff191683800117855562000279565b8280016001018555821562000279579182015b82811115620002785782518255916020019190600101906200025b565b5b5090506200028891906200028c565b5090565b5b80821115620002a75760008160009055506001016200028d565b5090565b60006002820490506001821680620002c457607f821691505b60208210811415620002db57620002da620002e1565b5b50919050565b7f4e487b7100000000000000000000000000000000000000000000000000000000600052602260045260246000fd5b61543380620003206000396000f3fe6080604052600436106101815760003560e01c80636352211e116100d1578063a22cb4651161008a578063dbbc7d8011610064578063dbbc7d801461058a578063e7010874146105c7578063e985e9c5146105f0578063f2fde38b1461062d57610181565b8063a22cb465146104fb578063b88d4fde14610524578063c87b56dd1461054d57610181565b80636352211e146103eb57806370a0823114610428578063715018a61461046557806381166f571461047c5780638da5cb5b146104a557806395d89b41146104d057610181565b806323b872dd1161013e5780633bb3a24d116101185780633bb3a24d1461030b5780633d71dbd7146103485780633ea5025d1461038557806342842e0e146103c257610181565b806323b872dd1461029b578063278ecde1146102c457806330c0b9ec146102e057610181565b806301ffc9a71461018657806306fdde03146101c3578063081812fc146101ee578063095ea7b31461022b5780630f647b001461025457806312065fe014610270575b600080fd5b34801561019257600080fd5b506101ad60048036038101906101a8919061336c565b610656565b6040516101ba9190614a14565b60405180910390f35b3480156101cf57600080fd5b506101d8610738565b6040516101e59190614a2f565b60405180910390f35b3480156101fa57600080fd5b50610215600480360381019061021091906134e8565b6107ca565b604051610222919061498b565b60405180910390f35b34801561023757600080fd5b50610252600480360381019061024d9190613330565b61084f565b005b61026e600480360381019061026991906133be565b610967565b005b34801561027c57600080fd5b50610285610b49565b6040516102929190614d11565b60405180910390f35b3480156102a757600080fd5b506102c260048036038101906102bd919061322a565b610b51565b005b6102de60048036038101906102d991906134e8565b610bb1565b005b3480156102ec57600080fd5b506102f5610e77565b6040516103029190614d11565b60405180910390f35b34801561031757600080fd5b50610332600480360381019061032d91906134e8565b610f35565b60405161033f9190614a2f565b60405180910390f35b34801561035457600080fd5b5061036f600480360381019061036a91906134e8565b611377565b60405161037c9190614d11565b60405180910390f35b34801561039157600080fd5b506103ac60048036038101906103a791906134e8565b61143c565b6040516103b99190614a14565b60405180910390f35b3480156103ce57600080fd5b506103e960048036038101906103e4919061322a565b611469565b005b3480156103f757600080fd5b50610412600480360381019061040d91906134e8565b611489565b60405161041f919061498b565b60405180910390f35b34801561043457600080fd5b5061044f600480360381019061044a91906131c5565b61153b565b60405161045c9190614d11565b60405180910390f35b34801561047157600080fd5b5061047a6115f3565b005b34801561048857600080fd5b506104a3600480360381019061049e9190613511565b61167b565b005b3480156104b157600080fd5b506104ba611723565b6040516104c7919061498b565b60405180910390f35b3480156104dc57600080fd5b506104e561174d565b6040516104f29190614a2f565b60405180910390f35b34801561050757600080fd5b50610522600480360381019061051d91906132f4565b6117df565b005b34801561053057600080fd5b5061054b60048036038101906105469190613279565b611960565b005b34801561055957600080fd5b50610574600480360381019061056f91906134e8565b6119c2565b6040516105819190614a2f565b60405180910390f35b34801561059657600080fd5b506105b160048036038101906105ac91906131c5565b611d9f565b6040516105be91906149f2565b60405180910390f35b3480156105d357600080fd5b506105ee60048036038101906105e991906134e8565b611e36565b005b3480156105fc57600080fd5b50610617600480360381019061061291906131ee565b611f55565b6040516106249190614a14565b60405180910390f35b34801561063957600080fd5b50610654600480360381019061064f91906131c5565b611fe9565b005b60007f80ac58cd000000000000000000000000000000000000000000000000000000007bffffffffffffffffffffffffffffffffffffffffffffffffffffffff1916827bffffffffffffffffffffffffffffffffffffffffffffffffffffffff1916148061072157507f5b5e139f000000000000000000000000000000000000000000000000000000007bffffffffffffffffffffffffffffffffffffffffffffffffffffffff1916827bffffffffffffffffffffffffffffffffffffffffffffffffffffffff1916145b806107315750610730826120e1565b5b9050919050565b606060008054610747906151ad565b80601f0160208091040260200160405190810160405280929190818152602001828054610773906151ad565b80156107c05780601f10610795576101008083540402835291602001916107c0565b820191906000526020600020905b8154815290600101906020018083116107a357829003601f168201915b5050505050905090565b60006107d58261214b565b610814576040517f08c379a000000000000000000000000000000000000000000000000000000000815260040161080b90614c11565b60405180910390fd5b6004600083815260200190815260200160002060009054906101000a900473ffffffffffffffffffffffffffffffffffffffff169050919050565b600061085a82611489565b90508073ffffffffffffffffffffffffffffffffffffffff168373ffffffffffffffffffffffffffffffffffffffff1614156108cb576040517f08c379a00000000000000000000000000000000000000000000000000000000081526004016108c290614c91565b60405180910390fd5b8073ffffffffffffffffffffffffffffffffffffffff166108ea6121b7565b73ffffffffffffffffffffffffffffffffffffffff1614806109195750610918816109136121b7565b611f55565b5b610958576040517f08c379a000000000000000000000000000000000000000000000000000000000815260040161094f90614b91565b60405180910390fd5b61096283836121bf565b505050565b803410156109aa576040517f08c379a00000000000000000000000000000000000000000000000000000000081526004016109a190614cd1565b60405180910390fd5b6109b46008612278565b60006109c0600861228e565b90506109cc338261229c565b60006040518060e001604052808b81526020018a81526020018981526020018881526020018781526020018615158152602001858152509050600960003373ffffffffffffffffffffffffffffffffffffffff1673ffffffffffffffffffffffffffffffffffffffff16815260200190815260200160002082908060018154018082558091505060019003906000526020600020016000909190919091505580600a60008481526020019081526020016000206000820151816000019080519060200190610a9b929190612f6a565b506020820151816001019080519060200190610ab8929190612f6a565b506040820151816002019080519060200190610ad5929190612f6a565b506060820151816003019080519060200190610af2929190612f6a565b506080820151816004019080519060200190610b0f929190612f6a565b5060a08201518160050160006101000a81548160ff02191690831515021790555060c0820151816006015590505050505050505050505050565b600047905090565b610b62610b5c6121b7565b826122ba565b610ba1576040517f08c379a0000000000000000000000000000000000000000000000000000000008152600401610b9890614cb1565b60405180910390fd5b610bac838383612398565b505050565b610bba81611489565b73ffffffffffffffffffffffffffffffffffffffff163373ffffffffffffffffffffffffffffffffffffffff1614610c27576040517f08c379a0000000000000000000000000000000000000000000000000000000008152600401610c1e90614a51565b60405180910390fd5b6000610c48600a600084815260200190815260200160002060060154611377565b90506003600482610c599190614e9a565b610c63919061503c565b9050804711610ca7576040517f08c379a0000000000000000000000000000000000000000000000000000000008152600401610c9e90614cf1565b60405180910390fd5b610cb0826125f4565b600960003373ffffffffffffffffffffffffffffffffffffffff1673ffffffffffffffffffffffffffffffffffffffff168152602001908152602001600020600183610cfc9190615096565b81548110610d33577f4e487b7100000000000000000000000000000000000000000000000000000000600052603260045260246000fd5b9060005260206000200160009055600a600083815260200190815260200160002060008082016000610d659190612ff0565b600182016000610d759190612ff0565b600282016000610d859190612ff0565b600382016000610d959190612ff0565b600482016000610da59190612ff0565b6005820160006101000a81549060ff0219169055600682016000905550506000803373ffffffffffffffffffffffffffffffffffffffff1683604051610dea90614976565b60006040518083038185875af1925050503d8060008114610e27576040519150601f19603f3d011682016040523d82523d6000602084013e610e2c565b606091505b509150915081610e71576040517f08c379a0000000000000000000000000000000000000000000000000000000008152600401610e6890614af1565b60405180910390fd5b50505050565b600080600080600080600760009054906101000a900473ffffffffffffffffffffffffffffffffffffffff1673ffffffffffffffffffffffffffffffffffffffff1663feaf968c6040518163ffffffff1660e01b815260040160a06040518083038186803b158015610ee857600080fd5b505afa158015610efc573d6000803e3d6000fd5b505050506040513d601f19601f82011682018060405250810190610f20919061354d565b94509450945094509450839550505050505090565b6060610f408261214b565b610f7f576040517f08c379a0000000000000000000000000000000000000000000000000000000008152600401610f7690614b51565b60405180910390fd5b6000600a60008481526020019081526020016000206040518060e0016040529081600082018054610faf906151ad565b80601f0160208091040260200160405190810160405280929190818152602001828054610fdb906151ad565b80156110285780601f10610ffd57610100808354040283529160200191611028565b820191906000526020600020905b81548152906001019060200180831161100b57829003601f168201915b50505050508152602001600182018054611041906151ad565b80601f016020809104026020016040519081016040528092919081815260200182805461106d906151ad565b80156110ba5780601f1061108f576101008083540402835291602001916110ba565b820191906000526020600020905b81548152906001019060200180831161109d57829003601f168201915b505050505081526020016002820180546110d3906151ad565b80601f01602080910402602001604051908101604052809291908181526020018280546110ff906151ad565b801561114c5780601f106111215761010080835404028352916020019161114c565b820191906000526020600020905b81548152906001019060200180831161112f57829003601f168201915b50505050508152602001600382018054611165906151ad565b80601f0160208091040260200160405190810160405280929190818152602001828054611191906151ad565b80156111de5780601f106111b3576101008083540402835291602001916111de565b820191906000526020600020905b8154815290600101906020018083116111c157829003601f168201915b505050505081526020016004820180546111f7906151ad565b80601f0160208091040260200160405190810160405280929190818152602001828054611223906151ad565b80156112705780601f1061124557610100808354040283529160200191611270565b820191906000526020600020905b81548152906001019060200180831161125357829003601f168201915b505050505081526020016005820160009054906101000a900460ff16151515158152602001600682015481525050905060006112ab84612705565b905060006112cd8360a001516112c25760006112c5565b60015b60ff16612705565b905060006112de8460c00151612705565b905060006112f26112ed610e77565b612705565b90506000611342858760000151886020015189604001518a606001518b608001518a8a8a60405160200161132e99989796959493929190614703565b6040516020818303038152906040526128b2565b90506000816040516020016113579190614954565b604051602081830303815290604052905080975050505050505050919050565b600080611382610e77565b9050600081116113c7576040517f08c379a00000000000000000000000000000000000000000000000000000000081526004016113be90614a71565b60405180910390fd5b60006012826008866113d99190614f1e565b6113e39190614e9a565b6113ed9190614f1e565b905060008111611432576040517f08c379a000000000000000000000000000000000000000000000000000000000815260040161142990614c71565b60405180910390fd5b8092505050919050565b6000600a600083815260200190815260200160002060050160009054906101000a900460ff169050919050565b61148483838360405180602001604052806000815250611960565b505050565b6000806002600084815260200190815260200160002060009054906101000a900473ffffffffffffffffffffffffffffffffffffffff169050600073ffffffffffffffffffffffffffffffffffffffff168173ffffffffffffffffffffffffffffffffffffffff161415611532576040517f08c379a000000000000000000000000000000000000000000000000000000000815260040161152990614bd1565b60405180910390fd5b80915050919050565b60008073ffffffffffffffffffffffffffffffffffffffff168273ffffffffffffffffffffffffffffffffffffffff1614156115ac576040517f08c379a00000000000000000000000000000000000000000000000000000000081526004016115a390614bb1565b60405180910390fd5b600360008373ffffffffffffffffffffffffffffffffffffffff1673ffffffffffffffffffffffffffffffffffffffff168152602001908152602001600020549050919050565b6115fb6121b7565b73ffffffffffffffffffffffffffffffffffffffff16611619611723565b73ffffffffffffffffffffffffffffffffffffffff161461166f576040517f08c379a000000000000000000000000000000000000000000000000000000000815260040161166690614c31565b60405180910390fd5b6116796000612a70565b565b61168482611489565b73ffffffffffffffffffffffffffffffffffffffff163373ffffffffffffffffffffffffffffffffffffffff16146116f1576040517f08c379a00000000000000000000000000000000000000000000000000000000081526004016116e890614a51565b60405180910390fd5b80600a600084815260200190815260200160002060050160006101000a81548160ff0219169083151502179055505050565b6000600660009054906101000a900473ffffffffffffffffffffffffffffffffffffffff16905090565b60606001805461175c906151ad565b80601f0160208091040260200160405190810160405280929190818152602001828054611788906151ad565b80156117d55780601f106117aa576101008083540402835291602001916117d5565b820191906000526020600020905b8154815290600101906020018083116117b857829003601f168201915b5050505050905090565b6117e76121b7565b73ffffffffffffffffffffffffffffffffffffffff168273ffffffffffffffffffffffffffffffffffffffff161415611855576040517f08c379a000000000000000000000000000000000000000000000000000000000815260040161184c90614b31565b60405180910390fd5b80600560006118626121b7565b73ffffffffffffffffffffffffffffffffffffffff1673ffffffffffffffffffffffffffffffffffffffff16815260200190815260200160002060008473ffffffffffffffffffffffffffffffffffffffff1673ffffffffffffffffffffffffffffffffffffffff16815260200190815260200160002060006101000a81548160ff0219169083151502179055508173ffffffffffffffffffffffffffffffffffffffff1661190f6121b7565b73ffffffffffffffffffffffffffffffffffffffff167f17307eab39ab6107e8899845ad3d59bd9653f200f220920489ca2b5937696c31836040516119549190614a14565b60405180910390a35050565b61197161196b6121b7565b836122ba565b6119b0576040517f08c379a00000000000000000000000000000000000000000000000000000000081526004016119a790614cb1565b60405180910390fd5b6119bc84848484612b36565b50505050565b60606000600a60008481526020019081526020016000206040518060e00160405290816000820180546119f4906151ad565b80601f0160208091040260200160405190810160405280929190818152602001828054611a20906151ad565b8015611a6d5780601f10611a4257610100808354040283529160200191611a6d565b820191906000526020600020905b815481529060010190602001808311611a5057829003601f168201915b50505050508152602001600182018054611a86906151ad565b80601f0160208091040260200160405190810160405280929190818152602001828054611ab2906151ad565b8015611aff5780601f10611ad457610100808354040283529160200191611aff565b820191906000526020600020905b815481529060010190602001808311611ae257829003601f168201915b50505050508152602001600282018054611b18906151ad565b80601f0160208091040260200160405190810160405280929190818152602001828054611b44906151ad565b8015611b915780601f10611b6657610100808354040283529160200191611b91565b820191906000526020600020905b815481529060010190602001808311611b7457829003601f168201915b50505050508152602001600382018054611baa906151ad565b80601f0160208091040260200160405190810160405280929190818152602001828054611bd6906151ad565b8015611c235780601f10611bf857610100808354040283529160200191611c23565b820191906000526020600020905b815481529060010190602001808311611c0657829003601f168201915b50505050508152602001600482018054611c3c906151ad565b80601f0160208091040260200160405190810160405280929190818152602001828054611c68906151ad565b8015611cb55780601f10611c8a57610100808354040283529160200191611cb5565b820191906000526020600020905b815481529060010190602001808311611c9857829003601f168201915b505050505081526020016005820160009054906101000a900460ff1615151515815260200160068201548152505090506000611d058260a00151611cfa576000611cfd565b60015b60ff16612705565b90506000611d168360c00151612705565b90506000611d6c611d2687612705565b856000015186602001518760400151886060015189608001518989604051602001611d58989796959493929190614853565b6040516020818303038152906040526128b2565b9050600081604051602001611d819190614954565b60405160208183030381529060405290508095505050505050919050565b6060600960008373ffffffffffffffffffffffffffffffffffffffff1673ffffffffffffffffffffffffffffffffffffffff168152602001908152602001600020805480602002602001604051908101604052809291908181526020018280548015611e2a57602002820191906000526020600020905b815481526020019060010190808311611e16575b50505050509050919050565b611e3f816125f4565b600960003373ffffffffffffffffffffffffffffffffffffffff1673ffffffffffffffffffffffffffffffffffffffff168152602001908152602001600020600182611e8b9190615096565b81548110611ec2577f4e487b7100000000000000000000000000000000000000000000000000000000600052603260045260246000fd5b9060005260206000200160009055600a600082815260200190815260200160002060008082016000611ef49190612ff0565b600182016000611f049190612ff0565b600282016000611f149190612ff0565b600382016000611f249190612ff0565b600482016000611f349190612ff0565b6005820160006101000a81549060ff02191690556006820160009055505050565b6000600560008473ffffffffffffffffffffffffffffffffffffffff1673ffffffffffffffffffffffffffffffffffffffff16815260200190815260200160002060008373ffffffffffffffffffffffffffffffffffffffff1673ffffffffffffffffffffffffffffffffffffffff16815260200190815260200160002060009054906101000a900460ff16905092915050565b611ff16121b7565b73ffffffffffffffffffffffffffffffffffffffff1661200f611723565b73ffffffffffffffffffffffffffffffffffffffff1614612065576040517f08c379a000000000000000000000000000000000000000000000000000000000815260040161205c90614c31565b60405180910390fd5b600073ffffffffffffffffffffffffffffffffffffffff168173ffffffffffffffffffffffffffffffffffffffff1614156120d5576040517f08c379a00000000000000000000000000000000000000000000000000000000081526004016120cc90614ab1565b60405180910390fd5b6120de81612a70565b50565b60007f01ffc9a7000000000000000000000000000000000000000000000000000000007bffffffffffffffffffffffffffffffffffffffffffffffffffffffff1916827bffffffffffffffffffffffffffffffffffffffffffffffffffffffff1916149050919050565b60008073ffffffffffffffffffffffffffffffffffffffff166002600084815260200190815260200160002060009054906101000a900473ffffffffffffffffffffffffffffffffffffffff1673ffffffffffffffffffffffffffffffffffffffff1614159050919050565b600033905090565b816004600083815260200190815260200160002060006101000a81548173ffffffffffffffffffffffffffffffffffffffff021916908373ffffffffffffffffffffffffffffffffffffffff160217905550808273ffffffffffffffffffffffffffffffffffffffff1661223283611489565b73ffffffffffffffffffffffffffffffffffffffff167f8c5be1e5ebec7d5bd14f71427d1e84f3dd0314c0f7b2291e5b200ac8c7c3b92560405160405180910390a45050565b6001816000016000828254019250508190555050565b600081600001549050919050565b6122b6828260405180602001604052806000815250612b92565b5050565b60006122c58261214b565b612304576040517f08c379a00000000000000000000000000000000000000000000000000000000081526004016122fb90614b71565b60405180910390fd5b600061230f83611489565b90508073ffffffffffffffffffffffffffffffffffffffff168473ffffffffffffffffffffffffffffffffffffffff16148061237e57508373ffffffffffffffffffffffffffffffffffffffff16612366846107ca565b73ffffffffffffffffffffffffffffffffffffffff16145b8061238f575061238e8185611f55565b5b91505092915050565b8273ffffffffffffffffffffffffffffffffffffffff166123b882611489565b73ffffffffffffffffffffffffffffffffffffffff161461240e576040517f08c379a000000000000000000000000000000000000000000000000000000000815260040161240590614c51565b60405180910390fd5b600073ffffffffffffffffffffffffffffffffffffffff168273ffffffffffffffffffffffffffffffffffffffff16141561247e576040517f08c379a000000000000000000000000000000000000000000000000000000000815260040161247590614b11565b60405180910390fd5b612489838383612bed565b6124946000826121bf565b6001600360008573ffffffffffffffffffffffffffffffffffffffff1673ffffffffffffffffffffffffffffffffffffffff16815260200190815260200160002060008282546124e49190615096565b925050819055506001600360008473ffffffffffffffffffffffffffffffffffffffff1673ffffffffffffffffffffffffffffffffffffffff168152602001908152602001600020600082825461253b9190614e44565b92505081905550816002600083815260200190815260200160002060006101000a81548173ffffffffffffffffffffffffffffffffffffffff021916908373ffffffffffffffffffffffffffffffffffffffff160217905550808273ffffffffffffffffffffffffffffffffffffffff168473ffffffffffffffffffffffffffffffffffffffff167fddf252ad1be2c89b69c2b068fc378daa952ba7f163c4a11628f55a4df523b3ef60405160405180910390a4505050565b60006125ff82611489565b905061260d81600084612bed565b6126186000836121bf565b6001600360008373ffffffffffffffffffffffffffffffffffffffff1673ffffffffffffffffffffffffffffffffffffffff16815260200190815260200160002060008282546126689190615096565b925050819055506002600083815260200190815260200160002060006101000a81549073ffffffffffffffffffffffffffffffffffffffff021916905581600073ffffffffffffffffffffffffffffffffffffffff168273ffffffffffffffffffffffffffffffffffffffff167fddf252ad1be2c89b69c2b068fc378daa952ba7f163c4a11628f55a4df523b3ef60405160405180910390a45050565b6060600082141561274d576040518060400160405280600181526020017f300000000000000000000000000000000000000000000000000000000000000081525090506128ad565b600082905060005b6000821461277f578080612768906151df565b915050600a826127789190614e9a565b9150612755565b60008167ffffffffffffffff8111156127c1577f4e487b7100000000000000000000000000000000000000000000000000000000600052604160045260246000fd5b6040519080825280601f01601f1916602001820160405280156127f35781602001600182028036833780820191505090505b5090505b600085146128a65760018261280c9190615096565b9150600a8561281b9190615228565b60306128279190614e44565b60f81b818381518110612863577f4e487b7100000000000000000000000000000000000000000000000000000000600052603260045260246000fd5b60200101907effffffffffffffffffffffffffffffffffffffffffffffffffffffffffffff1916908160001a905350600a8561289f9190614e9a565b94506127f7565b8093505050505b919050565b606060008251905060008114156128db5760405180602001604052806000815250915050612a6b565b600060036002836128ec9190614e44565b6128f69190614e9a565b6004612902919061503c565b905060006020826129139190614e44565b67ffffffffffffffff811115612952577f4e487b7100000000000000000000000000000000000000000000000000000000600052604160045260246000fd5b6040519080825280601f01601f1916602001820160405280156129845781602001600182028036833780820191505090505b50905060006040518060600160405280604081526020016153be604091399050600181016020830160005b86811015612a285760038101905062ffffff818a015116603f8160121c168401518060081b905060ff603f83600c1c1686015116810190508060081b905060ff603f8360061c1686015116810190508060081b905060ff603f831686015116810190508060e01b905080845260048401935050506129af565b506003860660018114612a425760028114612a5257612a5d565b613d3d60f01b6002830352612a5d565b603d60f81b60018303525b508484525050819450505050505b919050565b6000600660009054906101000a900473ffffffffffffffffffffffffffffffffffffffff16905081600660006101000a81548173ffffffffffffffffffffffffffffffffffffffff021916908373ffffffffffffffffffffffffffffffffffffffff1602179055508173ffffffffffffffffffffffffffffffffffffffff168173ffffffffffffffffffffffffffffffffffffffff167f8be0079c531659141344cd1fd0a4f28419497f9722a3daafe3b4186f6b6457e060405160405180910390a35050565b612b41848484612398565b612b4d84848484612bf2565b612b8c576040517f08c379a0000000000000000000000000000000000000000000000000000000008152600401612b8390614a91565b60405180910390fd5b50505050565b612b9c8383612d89565b612ba96000848484612bf2565b612be8576040517f08c379a0000000000000000000000000000000000000000000000000000000008152600401612bdf90614a91565b60405180910390fd5b505050565b505050565b6000612c138473ffffffffffffffffffffffffffffffffffffffff16612f57565b15612d7c578373ffffffffffffffffffffffffffffffffffffffff1663150b7a02612c3c6121b7565b8786866040518563ffffffff1660e01b8152600401612c5e94939291906149a6565b602060405180830381600087803b158015612c7857600080fd5b505af1925050508015612ca957506040513d601f19601f82011682018060405250810190612ca69190613395565b60015b612d2c573d8060008114612cd9576040519150601f19603f3d011682016040523d82523d6000602084013e612cde565b606091505b50600081511415612d24576040517f08c379a0000000000000000000000000000000000000000000000000000000008152600401612d1b90614a91565b60405180910390fd5b805181602001fd5b63150b7a0260e01b7bffffffffffffffffffffffffffffffffffffffffffffffffffffffff1916817bffffffffffffffffffffffffffffffffffffffffffffffffffffffff191614915050612d81565b600190505b949350505050565b600073ffffffffffffffffffffffffffffffffffffffff168273ffffffffffffffffffffffffffffffffffffffff161415612df9576040517f08c379a0000000000000000000000000000000000000000000000000000000008152600401612df090614bf1565b60405180910390fd5b612e028161214b565b15612e42576040517f08c379a0000000000000000000000000000000000000000000000000000000008152600401612e3990614ad1565b60405180910390fd5b612e4e60008383612bed565b6001600360008473ffffffffffffffffffffffffffffffffffffffff1673ffffffffffffffffffffffffffffffffffffffff1681526020019081526020016000206000828254612e9e9190614e44565b92505081905550816002600083815260200190815260200160002060006101000a81548173ffffffffffffffffffffffffffffffffffffffff021916908373ffffffffffffffffffffffffffffffffffffffff160217905550808273ffffffffffffffffffffffffffffffffffffffff16600073ffffffffffffffffffffffffffffffffffffffff167fddf252ad1be2c89b69c2b068fc378daa952ba7f163c4a11628f55a4df523b3ef60405160405180910390a45050565b600080823b905060008111915050919050565b828054612f76906151ad565b90600052602060002090601f016020900481019282612f985760008555612fdf565b82601f10612fb157805160ff1916838001178555612fdf565b82800160010185558215612fdf579182015b82811115612fde578251825591602001919060010190612fc3565b5b509050612fec9190613030565b5090565b508054612ffc906151ad565b6000825580601f1061300e575061302d565b601f01602090049060005260206000209081019061302c9190613030565b5b50565b5b80821115613049576000816000905550600101613031565b5090565b600061306061305b84614d5d565b614d2c565b90508281526020810184848401111561307857600080fd5b61308384828561516b565b509392505050565b600061309e61309984614d8d565b614d2c565b9050828152602081018484840111156130b657600080fd5b6130c184828561516b565b509392505050565b6000813590506130d881615333565b92915050565b6000813590506130ed8161534a565b92915050565b60008135905061310281615361565b92915050565b60008151905061311781615361565b92915050565b600082601f83011261312e57600080fd5b813561313e84826020860161304d565b91505092915050565b60008151905061315681615378565b92915050565b600082601f83011261316d57600080fd5b813561317d84826020860161308b565b91505092915050565b6000813590506131958161538f565b92915050565b6000815190506131aa8161538f565b92915050565b6000815190506131bf816153a6565b92915050565b6000602082840312156131d757600080fd5b60006131e5848285016130c9565b91505092915050565b6000806040838503121561320157600080fd5b600061320f858286016130c9565b9250506020613220858286016130c9565b9150509250929050565b60008060006060848603121561323f57600080fd5b600061324d868287016130c9565b935050602061325e868287016130c9565b925050604061326f86828701613186565b9150509250925092565b6000806000806080858703121561328f57600080fd5b600061329d878288016130c9565b94505060206132ae878288016130c9565b93505060406132bf87828801613186565b925050606085013567ffffffffffffffff8111156132dc57600080fd5b6132e88782880161311d565b91505092959194509250565b6000806040838503121561330757600080fd5b6000613315858286016130c9565b9250506020613326858286016130de565b9150509250929050565b6000806040838503121561334357600080fd5b6000613351858286016130c9565b925050602061336285828601613186565b9150509250929050565b60006020828403121561337e57600080fd5b600061338c848285016130f3565b91505092915050565b6000602082840312156133a757600080fd5b60006133b584828501613108565b91505092915050565b600080600080600080600080610100898b0312156133db57600080fd5b600089013567ffffffffffffffff8111156133f557600080fd5b6134018b828c0161315c565b985050602089013567ffffffffffffffff81111561341e57600080fd5b61342a8b828c0161315c565b975050604089013567ffffffffffffffff81111561344757600080fd5b6134538b828c0161315c565b965050606089013567ffffffffffffffff81111561347057600080fd5b61347c8b828c0161315c565b955050608089013567ffffffffffffffff81111561349957600080fd5b6134a58b828c0161315c565b94505060a06134b68b828c016130de565b93505060c06134c78b828c01613186565b92505060e06134d88b828c01613186565b9150509295985092959890939650565b6000602082840312156134fa57600080fd5b600061350884828501613186565b91505092915050565b6000806040838503121561352457600080fd5b600061353285828601613186565b9250506020613543858286016130de565b9150509250929050565b600080600080600060a0868803121561356557600080fd5b6000613573888289016131b0565b955050602061358488828901613147565b94505060406135958882890161319b565b93505060606135a68882890161319b565b92505060806135b7888289016131b0565b9150509295509295909350565b60006135d083836146e5565b60208301905092915050565b6135e5816150ca565b82525050565b60006135f682614dcd565b6136008185614dfb565b935061360b83614dbd565b8060005b8381101561363c57815161362388826135c4565b975061362e83614dee565b92505060018101905061360f565b5085935050505092915050565b613652816150dc565b82525050565b600061366382614dd8565b61366d8185614e0c565b935061367d81856020860161517a565b61368681615315565b840191505092915050565b600061369c82614de3565b6136a68185614e28565b93506136b681856020860161517a565b6136bf81615315565b840191505092915050565b60006136d582614de3565b6136df8185614e39565b93506136ef81856020860161517a565b80840191505092915050565b6000613708601083614e39565b91507f22626f617264696e6754696d65223a22000000000000000000000000000000006000830152601082019050919050565b6000613748600b83614e39565b91507f2263616e63656c6564223a0000000000000000000000000000000000000000006000830152600b82019050919050565b6000613788600b83614e39565b91507f202d2d204e465420233a200000000000000000000000000000000000000000006000830152600b82019050919050565b60006137c8600f83614e28565b91507f4e6f7420796f757220746f6b656e2100000000000000000000000000000000006000830152602082019050919050565b6000613808603383614e28565b91507f4574686572207072696365206861736e2774206265656e20726574726965766560008301527f207965742066726f6d20436861696e6c696e6b000000000000000000000000006020830152604082019050919050565b600061386e602983614e39565b91507f7d2c20207b202274726169745f74797065223a202243616e63656c6564222c2060008301527f2276616c7565223a2000000000000000000000000000000000000000000000006020830152602982019050919050565b60006138d4603283614e28565b91507f4552433732313a207472616e7366657220746f206e6f6e20455243373231526560008301527f63656976657220696d706c656d656e74657200000000000000000000000000006020830152604082019050919050565b600061393a602683614e28565b91507f4f776e61626c653a206e6577206f776e657220697320746865207a65726f206160008301527f64647265737300000000000000000000000000000000000000000000000000006020830152604082019050919050565b60006139a0600283614e39565b91507f222c0000000000000000000000000000000000000000000000000000000000006000830152600282019050919050565b60006139e0601c83614e28565b91507f4552433732313a20746f6b656e20616c7265616479206d696e746564000000006000830152602082019050919050565b6000613a20602e83614e39565b91507f7d2c20207b202274726169745f74797065223a2022426f617264696e6720546960008301527f6d65222c202276616c7565223a200000000000000000000000000000000000006020830152602e82019050919050565b6000613a86600283614e39565b91507f7d7d0000000000000000000000000000000000000000000000000000000000006000830152600282019050919050565b6000613ac6600883614e39565b91507f227072696365223a0000000000000000000000000000000000000000000000006000830152600882019050919050565b6000613b06602e83614e39565b91507f7d2c20207b202274726169745f74797065223a2022426f617264696e6720446160008301527f7465222c202276616c7565223a200000000000000000000000000000000000006020830152602e82019050919050565b6000613b6c600183614e39565b91507f2c000000000000000000000000000000000000000000000000000000000000006000830152600182019050919050565b6000613bac600983614e39565b91507f7b2264617461223a7b00000000000000000000000000000000000000000000006000830152600982019050919050565b6000613bec601483614e28565b91507f4661696c656420746f2073656e642045746865720000000000000000000000006000830152602082019050919050565b6000613c2c602483614e28565b91507f4552433732313a207472616e7366657220746f20746865207a65726f2061646460008301527f72657373000000000000000000000000000000000000000000000000000000006020830152604082019050919050565b6000613c92601983614e28565b91507f4552433732313a20617070726f766520746f2063616c6c6572000000000000006000830152602082019050919050565b6000613cd2601483614e28565b91507f546f6b656e20646f65736e2774206578697374730000000000000000000000006000830152602082019050919050565b6000613d12600d83614e39565b91507f22646570617274757265223a22000000000000000000000000000000000000006000830152600d82019050919050565b6000613d52600f83614e39565b91507f2264657374696e6174696f6e223a2200000000000000000000000000000000006000830152600f82019050919050565b6000613d92602c83614e28565b91507f4552433732313a206f70657261746f7220717565727920666f72206e6f6e657860008301527f697374656e7420746f6b656e00000000000000000000000000000000000000006020830152604082019050919050565b6000613df8600b83614e39565b91507f22746f6b656e4964223a220000000000000000000000000000000000000000006000830152600b82019050919050565b6000613e38602983614e39565b91507f7d2c207b202274726169745f74797065223a2022446570617274757265222c2060008301527f2276616c7565223a2000000000000000000000000000000000000000000000006020830152602982019050919050565b6000613e9e603883614e28565b91507f4552433732313a20617070726f76652063616c6c6572206973206e6f74206f7760008301527f6e6572206e6f7220617070726f76656420666f7220616c6c00000000000000006020830152604082019050919050565b6000613f04602a83614e28565b91507f4552433732313a2062616c616e636520717565727920666f7220746865207a6560008301527f726f2061646472657373000000000000000000000000000000000000000000006020830152604082019050919050565b6000613f6a602983614e28565b91507f4552433732313a206f776e657220717565727920666f72206e6f6e657869737460008301527f656e7420746f6b656e00000000000000000000000000000000000000000000006020830152604082019050919050565b6000613fd0600c83614e39565b91507f426f617264696e675061737300000000000000000000000000000000000000006000830152600c82019050919050565b6000614010600483614e39565b91507f7d205d7d000000000000000000000000000000000000000000000000000000006000830152600482019050919050565b6000614050602083614e28565b91507f4552433732313a206d696e7420746f20746865207a65726f20616464726573736000830152602082019050919050565b6000614090602b83614e39565b91507f7d2c207b202274726169745f74797065223a202244657374696e6174696f6e2260008301527f2c202276616c7565223a200000000000000000000000000000000000000000006020830152602b82019050919050565b60006140f6602c83614e28565b91507f4552433732313a20617070726f76656420717565727920666f72206e6f6e657860008301527f697374656e7420746f6b656e00000000000000000000000000000000000000006020830152604082019050919050565b600061415c602083614e28565b91507f4f776e61626c653a2063616c6c6572206973206e6f7420746865206f776e65726000830152602082019050919050565b600061419c602983614e28565b91507f4552433732313a207472616e73666572206f6620746f6b656e2074686174206960008301527f73206e6f74206f776e00000000000000000000000000000000000000000000006020830152604082019050919050565b6000614202601083614e39565b91507f22626f617264696e6744617465223a22000000000000000000000000000000006000830152601082019050919050565b6000614242600a83614e39565b91507f7b226e616d65223a2022000000000000000000000000000000000000000000006000830152600a82019050919050565b6000614282602583614e28565b91507f50726f626c656d20696e20636f6e76657273696f6e20696e7369646520636f6e60008301527f74726163740000000000000000000000000000000000000000000000000000006020830152604082019050919050565b60006142e8603383614e39565b91507f222c202261747472696275746573223a205b207b202274726169745f7479706560008301527f223a20224e756d222c202276616c7565223a20000000000000000000000000006020830152603382019050919050565b600061434e605083614e39565b91507f222c20226465736372697074696f6e223a2022556e6520636f6c6c656374696f60008301527f6e2071756920726570726573656e7465206465732062696c6c6574732064276160208301527f76696f6e222c22696d616765223a2022000000000000000000000000000000006040830152605082019050919050565b60006143da602183614e28565b91507f4552433732313a20617070726f76616c20746f2063757272656e74206f776e6560008301527f72000000000000000000000000000000000000000000000000000000000000006020830152604082019050919050565b6000614440603e83614e39565b91507f68747470733a2f2f696d616765732e656d6f6a6974657272612e636f6d2f676f60008301527f6f676c652f616e64726f69642d31312f35313270782f323730382e706e6700006020830152603e82019050919050565b60006144a6601d83614e39565b91507f646174613a6170706c69636174696f6e2f6a736f6e3b6261736536342c0000006000830152601d82019050919050565b60006144e6602a83614e39565b91507f7d2c20207b202274726169745f74797065223a2022555344205072696365222c60008301527f202276616c7565223a20000000000000000000000000000000000000000000006020830152602a82019050919050565b600061454c600083614e1d565b9150600082019050919050565b6000614566603183614e28565b91507f4552433732313a207472616e736665722063616c6c6572206973206e6f74206f60008301527f776e6572206e6f7220617070726f7665640000000000000000000000000000006020830152604082019050919050565b60006145cc601083614e28565b91507f4e6f7420656e6f756768204574686572000000000000000000000000000000006000830152602082019050919050565b600061460c600b83614e39565b91507f226574685072696365223a0000000000000000000000000000000000000000006000830152600b82019050919050565b600061464c602683614e28565b91507f436f6e747261637427732062616c616e6365206861736e277420656e6f75676860008301527f20457468657200000000000000000000000000000000000000000000000000006020830152604082019050919050565b60006146b2600783614e39565b91507f226e756d223a22000000000000000000000000000000000000000000000000006000830152600782019050919050565b6146ee8161513e565b82525050565b6146fd8161513e565b82525050565b600061470e82613b9f565b915061471982613deb565b9150614725828c6136ca565b915061473082613993565b915061473b826146a5565b9150614747828b6136ca565b915061475282613993565b915061475d82613d05565b9150614769828a6136ca565b915061477482613993565b915061477f82613d45565b915061478b82896136ca565b915061479682613993565b91506147a1826141f5565b91506147ad82886136ca565b91506147b882613993565b91506147c3826136fb565b91506147cf82876136ca565b91506147da82613993565b91506147e58261373b565b91506147f182866136ca565b91506147fc82613b5f565b915061480782613ab9565b915061481382856136ca565b915061481e82613b5f565b9150614829826145ff565b915061483582846136ca565b915061484082613a79565b91508190509a9950505050505050505050565b600061485e82614235565b915061486982613fc3565b91506148748261377b565b9150614880828b6136ca565b915061488b82614341565b915061489682614433565b91506148a1826142db565b91506148ad828a6136ca565b91506148b882613e2b565b91506148c482896136ca565b91506148cf82614083565b91506148db82886136ca565b91506148e682613af9565b91506148f282876136ca565b91506148fd82613a13565b915061490982866136ca565b915061491482613861565b915061492082856136ca565b915061492b826144d9565b915061493782846136ca565b915061494282614003565b91508190509998505050505050505050565b600061495f82614499565b915061496b82846136ca565b915081905092915050565b60006149818261453f565b9150819050919050565b60006020820190506149a060008301846135dc565b92915050565b60006080820190506149bb60008301876135dc565b6149c860208301866135dc565b6149d560408301856146f4565b81810360608301526149e78184613658565b905095945050505050565b60006020820190508181036000830152614a0c81846135eb565b905092915050565b6000602082019050614a296000830184613649565b92915050565b60006020820190508181036000830152614a498184613691565b905092915050565b60006020820190508181036000830152614a6a816137bb565b9050919050565b60006020820190508181036000830152614a8a816137fb565b9050919050565b60006020820190508181036000830152614aaa816138c7565b9050919050565b60006020820190508181036000830152614aca8161392d565b9050919050565b60006020820190508181036000830152614aea816139d3565b9050919050565b60006020820190508181036000830152614b0a81613bdf565b9050919050565b60006020820190508181036000830152614b2a81613c1f565b9050919050565b60006020820190508181036000830152614b4a81613c85565b9050919050565b60006020820190508181036000830152614b6a81613cc5565b9050919050565b60006020820190508181036000830152614b8a81613d85565b9050919050565b60006020820190508181036000830152614baa81613e91565b9050919050565b60006020820190508181036000830152614bca81613ef7565b9050919050565b60006020820190508181036000830152614bea81613f5d565b9050919050565b60006020820190508181036000830152614c0a81614043565b9050919050565b60006020820190508181036000830152614c2a816140e9565b9050919050565b60006020820190508181036000830152614c4a8161414f565b9050919050565b60006020820190508181036000830152614c6a8161418f565b9050919050565b60006020820190508181036000830152614c8a81614275565b9050919050565b60006020820190508181036000830152614caa816143cd565b9050919050565b60006020820190508181036000830152614cca81614559565b9050919050565b60006020820190508181036000830152614cea816145bf565b9050919050565b60006020820190508181036000830152614d0a8161463f565b9050919050565b6000602082019050614d2660008301846146f4565b92915050565b6000604051905081810181811067ffffffffffffffff82111715614d5357614d526152e6565b5b8060405250919050565b600067ffffffffffffffff821115614d7857614d776152e6565b5b601f19601f8301169050602081019050919050565b600067ffffffffffffffff821115614da857614da76152e6565b5b601f19601f8301169050602081019050919050565b6000819050602082019050919050565b600081519050919050565b600081519050919050565b600081519050919050565b6000602082019050919050565b600082825260208201905092915050565b600082825260208201905092915050565b600081905092915050565b600082825260208201905092915050565b600081905092915050565b6000614e4f8261513e565b9150614e5a8361513e565b9250827fffffffffffffffffffffffffffffffffffffffffffffffffffffffffffffffff03821115614e8f57614e8e615259565b5b828201905092915050565b6000614ea58261513e565b9150614eb08361513e565b925082614ec057614ebf615288565b5b828204905092915050565b6000808291508390505b6001851115614f1557808604811115614ef157614ef0615259565b5b6001851615614f005780820291505b8081029050614f0e85615326565b9450614ed5565b94509492505050565b6000614f298261513e565b9150614f3483615148565b9250614f617fffffffffffffffffffffffffffffffffffffffffffffffffffffffffffffffff8484614f69565b905092915050565b600082614f795760019050615035565b81614f875760009050615035565b8160018114614f9d5760028114614fa757614fd6565b6001915050615035565b60ff841115614fb957614fb8615259565b5b8360020a915084821115614fd057614fcf615259565b5b50615035565b5060208310610133831016604e8410600b841016171561500b5782820a90508381111561500657615005615259565b5b615035565b6150188484846001614ecb565b9250905081840481111561502f5761502e615259565b5b81810290505b9392505050565b60006150478261513e565b91506150528361513e565b9250817fffffffffffffffffffffffffffffffffffffffffffffffffffffffffffffffff048311821515161561508b5761508a615259565b5b828202905092915050565b60006150a18261513e565b91506150ac8361513e565b9250828210156150bf576150be615259565b5b828203905092915050565b60006150d58261511e565b9050919050565b60008115159050919050565b60007fffffffff0000000000000000000000000000000000000000000000000000000082169050919050565b6000819050919050565b600073ffffffffffffffffffffffffffffffffffffffff82169050919050565b6000819050919050565b600060ff82169050919050565b600069ffffffffffffffffffff82169050919050565b82818337600083830152505050565b60005b8381101561519857808201518184015260208101905061517d565b838111156151a7576000848401525b50505050565b600060028204905060018216806151c557607f821691505b602082108114156151d9576151d86152b7565b5b50919050565b60006151ea8261513e565b91507fffffffffffffffffffffffffffffffffffffffffffffffffffffffffffffffff82141561521d5761521c615259565b5b600182019050919050565b60006152338261513e565b915061523e8361513e565b92508261524e5761524d615288565b5b828206905092915050565b7f4e487b7100000000000000000000000000000000000000000000000000000000600052601160045260246000fd5b7f4e487b7100000000000000000000000000000000000000000000000000000000600052601260045260246000fd5b7f4e487b7100000000000000000000000000000000000000000000000000000000600052602260045260246000fd5b7f4e487b7100000000000000000000000000000000000000000000000000000000600052604160045260246000fd5b6000601f19601f8301169050919050565b60008160011c9050919050565b61533c816150ca565b811461534757600080fd5b50565b615353816150dc565b811461535e57600080fd5b50565b61536a816150e8565b811461537557600080fd5b50565b61538181615114565b811461538c57600080fd5b50565b6153988161513e565b81146153a357600080fd5b50565b6153af81615155565b81146153ba57600080fd5b5056fe4142434445464748494a4b4c4d4e4f505152535455565758595a6162636465666768696a6b6c6d6e6f707172737475767778797a303132333435363738392b2fa2646970667358221220601ed58a3e32f0b5126bfb8f1acd8d60052984c068650d5b03a9f7f3c84e76f064736f6c63430008000033",
  "linkReferences": {},
  "deployedLinkReferences": {}
}