{
  "_format": "hh-sol-artifact-1",
  "contractName": "BoardingPass",
  "sourceName": "contracts/BoardingPass.sol",
  "abi": [
    {
      "inputs": [],
      "stateMutability": "nonpayable",
      "type": "constructor"
    },
    {
      "anonymous": false,
      "inputs": [
        {
          "indexed": true,
          "internalType": "address",
          "name": "owner",
          "type": "address"
        },
        {
          "indexed": true,
          "internalType": "address",
          "name": "approved",
          "type": "address"
        },
        {
          "indexed": true,
          "internalType": "uint256",
          "name": "tokenId",
          "type": "uint256"
        }
      ],
      "name": "Approval",
      "type": "event"
    },
    {
      "anonymous": false,
      "inputs": [
        {
          "indexed": true,
          "internalType": "address",
          "name": "owner",
          "type": "address"
        },
        {
          "indexed": true,
          "internalType": "address",
          "name": "operator",
          "type": "address"
        },
        {
          "indexed": false,
          "internalType": "bool",
          "name": "approved",
          "type": "bool"
        }
      ],
      "name": "ApprovalForAll",
      "type": "event"
    },
    {
      "anonymous": false,
      "inputs": [
        {
          "indexed": true,
          "internalType": "address",
          "name": "previousOwner",
          "type": "address"
        },
        {
          "indexed": true,
          "internalType": "address",
          "name": "newOwner",
          "type": "address"
        }
      ],
      "name": "OwnershipTransferred",
      "type": "event"
    },
    {
      "anonymous": false,
      "inputs": [
        {
          "indexed": true,
          "internalType": "address",
          "name": "from",
          "type": "address"
        },
        {
          "indexed": true,
          "internalType": "address",
          "name": "to",
          "type": "address"
        },
        {
          "indexed": true,
          "internalType": "uint256",
          "name": "tokenId",
          "type": "uint256"
        }
      ],
      "name": "Transfer",
      "type": "event"
    },
    {
      "inputs": [
        {
          "internalType": "address",
          "name": "to",
          "type": "address"
        },
        {
          "internalType": "uint256",
          "name": "tokenId",
          "type": "uint256"
        }
      ],
      "name": "approve",
      "outputs": [],
      "stateMutability": "nonpayable",
      "type": "function"
    },
    {
      "inputs": [
        {
          "internalType": "address",
          "name": "owner",
          "type": "address"
        }
      ],
      "name": "balanceOf",
      "outputs": [
        {
          "internalType": "uint256",
          "name": "",
          "type": "uint256"
        }
      ],
      "stateMutability": "view",
      "type": "function"
    },
    {
      "inputs": [
        {
          "internalType": "address",
          "name": "_from",
          "type": "address"
        }
      ],
      "name": "getAllTokensFromAdress",
      "outputs": [
        {
          "internalType": "uint256[]",
          "name": "",
          "type": "uint256[]"
        }
      ],
      "stateMutability": "view",
      "type": "function"
    },
    {
      "inputs": [
        {
          "internalType": "uint256",
          "name": "tokenId",
          "type": "uint256"
        }
      ],
      "name": "getApproved",
      "outputs": [
        {
          "internalType": "address",
          "name": "",
          "type": "address"
        }
      ],
      "stateMutability": "view",
      "type": "function"
    },
    {
      "inputs": [
        {
          "internalType": "uint256",
          "name": "tokenId",
          "type": "uint256"
        }
      ],
      "name": "getTokenURI",
      "outputs": [
        {
          "internalType": "string",
          "name": "",
          "type": "string"
        }
      ],
      "stateMutability": "view",
      "type": "function"
    },
    {
      "inputs": [
        {
          "internalType": "address",
          "name": "owner",
          "type": "address"
        },
        {
          "internalType": "address",
          "name": "operator",
          "type": "address"
        }
      ],
      "name": "isApprovedForAll",
      "outputs": [
        {
          "internalType": "bool",
          "name": "",
          "type": "bool"
        }
      ],
      "stateMutability": "view",
      "type": "function"
    },
    {
      "inputs": [
        {
          "internalType": "string",
          "name": "_tokenURI",
          "type": "string"
        },
        {
          "internalType": "uint256",
          "name": "price",
          "type": "uint256"
        }
      ],
      "name": "mint",
      "outputs": [],
      "stateMutability": "payable",
      "type": "function"
    },
    {
      "inputs": [],
      "name": "name",
      "outputs": [
        {
          "internalType": "string",
          "name": "",
          "type": "string"
        }
      ],
      "stateMutability": "view",
      "type": "function"
    },
    {
      "inputs": [],
      "name": "owner",
      "outputs": [
        {
          "internalType": "address",
          "name": "",
          "type": "address"
        }
      ],
      "stateMutability": "view",
      "type": "function"
    },
    {
      "inputs": [
        {
          "internalType": "uint256",
          "name": "tokenId",
          "type": "uint256"
        }
      ],
      "name": "ownerOf",
      "outputs": [
        {
          "internalType": "address",
          "name": "",
          "type": "address"
        }
      ],
      "stateMutability": "view",
      "type": "function"
    },
    {
      "inputs": [],
      "name": "renounceOwnership",
      "outputs": [],
      "stateMutability": "nonpayable",
      "type": "function"
    },
    {
      "inputs": [
        {
          "internalType": "address",
          "name": "from",
          "type": "address"
        },
        {
          "internalType": "address",
          "name": "to",
          "type": "address"
        },
        {
          "internalType": "uint256",
          "name": "tokenId",
          "type": "uint256"
        }
      ],
      "name": "safeTransferFrom",
      "outputs": [],
      "stateMutability": "nonpayable",
      "type": "function"
    },
    {
      "inputs": [
        {
          "internalType": "address",
          "name": "from",
          "type": "address"
        },
        {
          "internalType": "address",
          "name": "to",
          "type": "address"
        },
        {
          "internalType": "uint256",
          "name": "tokenId",
          "type": "uint256"
        },
        {
          "internalType": "bytes",
          "name": "_data",
          "type": "bytes"
        }
      ],
      "name": "safeTransferFrom",
      "outputs": [],
      "stateMutability": "nonpayable",
      "type": "function"
    },
    {
      "inputs": [
        {
          "internalType": "address",
          "name": "operator",
          "type": "address"
        },
        {
          "internalType": "bool",
          "name": "approved",
          "type": "bool"
        }
      ],
      "name": "setApprovalForAll",
      "outputs": [],
      "stateMutability": "nonpayable",
      "type": "function"
    },
    {
      "inputs": [
        {
          "internalType": "bytes4",
          "name": "interfaceId",
          "type": "bytes4"
        }
      ],
      "name": "supportsInterface",
      "outputs": [
        {
          "internalType": "bool",
          "name": "",
          "type": "bool"
        }
      ],
      "stateMutability": "view",
      "type": "function"
    },
    {
      "inputs": [],
      "name": "symbol",
      "outputs": [
        {
          "internalType": "string",
          "name": "",
          "type": "string"
        }
      ],
      "stateMutability": "view",
      "type": "function"
    },
    {
      "inputs": [
        {
          "internalType": "uint256",
          "name": "_tokenId",
          "type": "uint256"
        }
      ],
      "name": "tokenURI",
      "outputs": [
        {
          "internalType": "string",
          "name": "",
          "type": "string"
        }
      ],
      "stateMutability": "view",
      "type": "function"
    },
    {
      "inputs": [
        {
          "internalType": "address",
          "name": "from",
          "type": "address"
        },
        {
          "internalType": "address",
          "name": "to",
          "type": "address"
        },
        {
          "internalType": "uint256",
          "name": "tokenId",
          "type": "uint256"
        }
      ],
      "name": "transferFrom",
      "outputs": [],
      "stateMutability": "nonpayable",
      "type": "function"
    },
    {
      "inputs": [
        {
          "internalType": "address",
          "name": "newOwner",
          "type": "address"
        }
      ],
      "name": "transferOwnership",
      "outputs": [],
      "stateMutability": "nonpayable",
      "type": "function"
    }
  ],
  "bytecode": "0x60806040523480156200001157600080fd5b506040518060400160405280600e81526020017f506c616e6548756220546f6b656e0000000000000000000000000000000000008152506040518060400160405280600381526020017f5048540000000000000000000000000000000000000000000000000000000000815250816000908051906020019062000096929190620001a6565b508060019080519060200190620000af929190620001a6565b505050620000d2620000c6620000d860201b60201c565b620000e060201b60201c565b620002bb565b600033905090565b6000600660009054906101000a900473ffffffffffffffffffffffffffffffffffffffff16905081600660006101000a81548173ffffffffffffffffffffffffffffffffffffffff021916908373ffffffffffffffffffffffffffffffffffffffff1602179055508173ffffffffffffffffffffffffffffffffffffffff168173ffffffffffffffffffffffffffffffffffffffff167f8be0079c531659141344cd1fd0a4f28419497f9722a3daafe3b4186f6b6457e060405160405180910390a35050565b828054620001b49062000256565b90600052602060002090601f016020900481019282620001d8576000855562000224565b82601f10620001f357805160ff191683800117855562000224565b8280016001018555821562000224579182015b828111156200022357825182559160200191906001019062000206565b5b50905062000233919062000237565b5090565b5b808211156200025257600081600090555060010162000238565b5090565b600060028204905060018216806200026f57607f821691505b602082108114156200028657620002856200028c565b5b50919050565b7f4e487b7100000000000000000000000000000000000000000000000000000000600052602260045260246000fd5b61378980620002cb6000396000f3fe6080604052600436106101145760003560e01c806370a08231116100a0578063b88d4fde11610064578063b88d4fde146103a2578063c87b56dd146103cb578063dbbc7d8014610408578063e985e9c514610445578063f2fde38b1461048257610114565b806370a08231146102cf578063715018a61461030c5780638da5cb5b1461032357806395d89b411461034e578063a22cb4651461037957610114565b8063095ea7b3116100e7578063095ea7b3146101da57806323b872dd146102035780633bb3a24d1461022c57806342842e0e146102695780636352211e1461029257610114565b806301ffc9a714610119578063056b01ce1461015657806306fdde0314610172578063081812fc1461019d575b600080fd5b34801561012557600080fd5b50610140600480360381019061013b91906123a0565b6104ab565b60405161014d9190612fd9565b60405180910390f35b610170600480360381019061016b91906123f2565b61058d565b005b34801561017e57600080fd5b50610187610673565b6040516101949190612ff4565b60405180910390f35b3480156101a957600080fd5b506101c460048036038101906101bf9190612446565b610705565b6040516101d19190612f50565b60405180910390f35b3480156101e657600080fd5b5061020160048036038101906101fc9190612364565b61078a565b005b34801561020f57600080fd5b5061022a6004803603810190610225919061225e565b6108a2565b005b34801561023857600080fd5b50610253600480360381019061024e9190612446565b610902565b6040516102609190612ff4565b60405180910390f35b34801561027557600080fd5b50610290600480360381019061028b919061225e565b6109a7565b005b34801561029e57600080fd5b506102b960048036038101906102b49190612446565b6109c7565b6040516102c69190612f50565b60405180910390f35b3480156102db57600080fd5b506102f660048036038101906102f191906121f9565b610a79565b6040516103039190613236565b60405180910390f35b34801561031857600080fd5b50610321610b31565b005b34801561032f57600080fd5b50610338610bb9565b6040516103459190612f50565b60405180910390f35b34801561035a57600080fd5b50610363610be3565b6040516103709190612ff4565b60405180910390f35b34801561038557600080fd5b506103a0600480360381019061039b9190612328565b610c75565b005b3480156103ae57600080fd5b506103c960048036038101906103c491906122ad565b610df6565b005b3480156103d757600080fd5b506103f260048036038101906103ed9190612446565b610e58565b6040516103ff9190612ff4565b60405180910390f35b34801561041457600080fd5b5061042f600480360381019061042a91906121f9565b610ed0565b60405161043c9190612fb7565b60405180910390f35b34801561045157600080fd5b5061046c60048036038101906104679190612222565b610f67565b6040516104799190612fd9565b60405180910390f35b34801561048e57600080fd5b506104a960048036038101906104a491906121f9565b610ffb565b005b60007f80ac58cd000000000000000000000000000000000000000000000000000000007bffffffffffffffffffffffffffffffffffffffffffffffffffffffff1916827bffffffffffffffffffffffffffffffffffffffffffffffffffffffff1916148061057657507f5b5e139f000000000000000000000000000000000000000000000000000000007bffffffffffffffffffffffffffffffffffffffffffffffffffffffff1916827bffffffffffffffffffffffffffffffffffffffffffffffffffffffff1916145b806105865750610585826110f3565b5b9050919050565b803410156105d0576040517f08c379a00000000000000000000000000000000000000000000000000000000081526004016105c790613216565b60405180910390fd5b6105da600761115d565b6105ed336105e86007611173565b611181565b6106006105fa6007611173565b8361119f565b600860003373ffffffffffffffffffffffffffffffffffffffff1673ffffffffffffffffffffffffffffffffffffffff1681526020019081526020016000206106496007611173565b90806001815401808255809150506001900390600052602060002001600090919091909150555050565b6060600080546106829061353e565b80601f01602080910402602001604051908101604052809291908181526020018280546106ae9061353e565b80156106fb5780601f106106d0576101008083540402835291602001916106fb565b820191906000526020600020905b8154815290600101906020018083116106de57829003601f168201915b5050505050905090565b60006107108261128f565b61074f576040517f08c379a000000000000000000000000000000000000000000000000000000000815260040161074690613176565b60405180910390fd5b6004600083815260200190815260200160002060009054906101000a900473ffffffffffffffffffffffffffffffffffffffff169050919050565b6000610795826109c7565b90508073ffffffffffffffffffffffffffffffffffffffff168373ffffffffffffffffffffffffffffffffffffffff161415610806576040517f08c379a00000000000000000000000000000000000000000000000000000000081526004016107fd906131d6565b60405180910390fd5b8073ffffffffffffffffffffffffffffffffffffffff166108256112fb565b73ffffffffffffffffffffffffffffffffffffffff16148061085457506108538161084e6112fb565b610f67565b5b610893576040517f08c379a000000000000000000000000000000000000000000000000000000000815260040161088a906130f6565b60405180910390fd5b61089d8383611303565b505050565b6108b36108ad6112fb565b826113bc565b6108f2576040517f08c379a00000000000000000000000000000000000000000000000000000000081526004016108e9906131f6565b60405180910390fd5b6108fd83838361149a565b505050565b60606009600083815260200190815260200160002080546109229061353e565b80601f016020809104026020016040519081016040528092919081815260200182805461094e9061353e565b801561099b5780601f106109705761010080835404028352916020019161099b565b820191906000526020600020905b81548152906001019060200180831161097e57829003601f168201915b50505050509050919050565b6109c283838360405180602001604052806000815250610df6565b505050565b6000806002600084815260200190815260200160002060009054906101000a900473ffffffffffffffffffffffffffffffffffffffff169050600073ffffffffffffffffffffffffffffffffffffffff168173ffffffffffffffffffffffffffffffffffffffff161415610a70576040517f08c379a0000000000000000000000000000000000000000000000000000000008152600401610a6790613136565b60405180910390fd5b80915050919050565b60008073ffffffffffffffffffffffffffffffffffffffff168273ffffffffffffffffffffffffffffffffffffffff161415610aea576040517f08c379a0000000000000000000000000000000000000000000000000000000008152600401610ae190613116565b60405180910390fd5b600360008373ffffffffffffffffffffffffffffffffffffffff1673ffffffffffffffffffffffffffffffffffffffff168152602001908152602001600020549050919050565b610b396112fb565b73ffffffffffffffffffffffffffffffffffffffff16610b57610bb9565b73ffffffffffffffffffffffffffffffffffffffff1614610bad576040517f08c379a0000000000000000000000000000000000000000000000000000000008152600401610ba490613196565b60405180910390fd5b610bb760006116f6565b565b6000600660009054906101000a900473ffffffffffffffffffffffffffffffffffffffff16905090565b606060018054610bf29061353e565b80601f0160208091040260200160405190810160405280929190818152602001828054610c1e9061353e565b8015610c6b5780601f10610c4057610100808354040283529160200191610c6b565b820191906000526020600020905b815481529060010190602001808311610c4e57829003601f168201915b5050505050905090565b610c7d6112fb565b73ffffffffffffffffffffffffffffffffffffffff168273ffffffffffffffffffffffffffffffffffffffff161415610ceb576040517f08c379a0000000000000000000000000000000000000000000000000000000008152600401610ce290613096565b60405180910390fd5b8060056000610cf86112fb565b73ffffffffffffffffffffffffffffffffffffffff1673ffffffffffffffffffffffffffffffffffffffff16815260200190815260200160002060008473ffffffffffffffffffffffffffffffffffffffff1673ffffffffffffffffffffffffffffffffffffffff16815260200190815260200160002060006101000a81548160ff0219169083151502179055508173ffffffffffffffffffffffffffffffffffffffff16610da56112fb565b73ffffffffffffffffffffffffffffffffffffffff167f17307eab39ab6107e8899845ad3d59bd9653f200f220920489ca2b5937696c3183604051610dea9190612fd9565b60405180910390a35050565b610e07610e016112fb565b836113bc565b610e46576040517f08c379a0000000000000000000000000000000000000000000000000000000008152600401610e3d906131f6565b60405180910390fd5b610e52848484846117bc565b50505050565b60606000610ea0610e6884611818565b60096000868152602001908152602001600020604051602001610e8c929190612ebd565b6040516020818303038152906040526119c5565b9050600081604051602001610eb59190612f2e565b60405160208183030381529060405290508092505050919050565b6060600860008373ffffffffffffffffffffffffffffffffffffffff1673ffffffffffffffffffffffffffffffffffffffff168152602001908152602001600020805480602002602001604051908101604052809291908181526020018280548015610f5b57602002820191906000526020600020905b815481526020019060010190808311610f47575b50505050509050919050565b6000600560008473ffffffffffffffffffffffffffffffffffffffff1673ffffffffffffffffffffffffffffffffffffffff16815260200190815260200160002060008373ffffffffffffffffffffffffffffffffffffffff1673ffffffffffffffffffffffffffffffffffffffff16815260200190815260200160002060009054906101000a900460ff16905092915050565b6110036112fb565b73ffffffffffffffffffffffffffffffffffffffff16611021610bb9565b73ffffffffffffffffffffffffffffffffffffffff1614611077576040517f08c379a000000000000000000000000000000000000000000000000000000000815260040161106e90613196565b60405180910390fd5b600073ffffffffffffffffffffffffffffffffffffffff168173ffffffffffffffffffffffffffffffffffffffff1614156110e7576040517f08c379a00000000000000000000000000000000000000000000000000000000081526004016110de90613036565b60405180910390fd5b6110f0816116f6565b50565b60007f01ffc9a7000000000000000000000000000000000000000000000000000000007bffffffffffffffffffffffffffffffffffffffffffffffffffffffff1916827bffffffffffffffffffffffffffffffffffffffffffffffffffffffff1916149050919050565b6001816000016000828254019250508190555050565b600081600001549050919050565b61119b828260405180602001604052806000815250611b83565b5050565b6111dd6040518060400160405280601781526020017f4265666f726520746f6b656e5552492072657175697265000000000000000000815250611bde565b6111e68261128f565b611225576040517f08c379a000000000000000000000000000000000000000000000000000000000815260040161121c906130b6565b60405180910390fd5b6112636040518060400160405280601681526020017f416674657220746f6b656e555249207265717569726500000000000000000000815250611bde565b8060096000848152602001908152602001600020908051906020019061128a92919061201d565b505050565b60008073ffffffffffffffffffffffffffffffffffffffff166002600084815260200190815260200160002060009054906101000a900473ffffffffffffffffffffffffffffffffffffffff1673ffffffffffffffffffffffffffffffffffffffff1614159050919050565b600033905090565b816004600083815260200190815260200160002060006101000a81548173ffffffffffffffffffffffffffffffffffffffff021916908373ffffffffffffffffffffffffffffffffffffffff160217905550808273ffffffffffffffffffffffffffffffffffffffff16611376836109c7565b73ffffffffffffffffffffffffffffffffffffffff167f8c5be1e5ebec7d5bd14f71427d1e84f3dd0314c0f7b2291e5b200ac8c7c3b92560405160405180910390a45050565b60006113c78261128f565b611406576040517f08c379a00000000000000000000000000000000000000000000000000000000081526004016113fd906130d6565b60405180910390fd5b6000611411836109c7565b90508073ffffffffffffffffffffffffffffffffffffffff168473ffffffffffffffffffffffffffffffffffffffff16148061148057508373ffffffffffffffffffffffffffffffffffffffff1661146884610705565b73ffffffffffffffffffffffffffffffffffffffff16145b8061149157506114908185610f67565b5b91505092915050565b8273ffffffffffffffffffffffffffffffffffffffff166114ba826109c7565b73ffffffffffffffffffffffffffffffffffffffff1614611510576040517f08c379a0000000000000000000000000000000000000000000000000000000008152600401611507906131b6565b60405180910390fd5b600073ffffffffffffffffffffffffffffffffffffffff168273ffffffffffffffffffffffffffffffffffffffff161415611580576040517f08c379a000000000000000000000000000000000000000000000000000000000815260040161157790613076565b60405180910390fd5b61158b838383611c77565b611596600082611303565b6001600360008573ffffffffffffffffffffffffffffffffffffffff1673ffffffffffffffffffffffffffffffffffffffff16815260200190815260200160002060008282546115e69190613454565b925050819055506001600360008473ffffffffffffffffffffffffffffffffffffffff1673ffffffffffffffffffffffffffffffffffffffff168152602001908152602001600020600082825461163d9190613373565b92505081905550816002600083815260200190815260200160002060006101000a81548173ffffffffffffffffffffffffffffffffffffffff021916908373ffffffffffffffffffffffffffffffffffffffff160217905550808273ffffffffffffffffffffffffffffffffffffffff168473ffffffffffffffffffffffffffffffffffffffff167fddf252ad1be2c89b69c2b068fc378daa952ba7f163c4a11628f55a4df523b3ef60405160405180910390a4505050565b6000600660009054906101000a900473ffffffffffffffffffffffffffffffffffffffff16905081600660006101000a81548173ffffffffffffffffffffffffffffffffffffffff021916908373ffffffffffffffffffffffffffffffffffffffff1602179055508173ffffffffffffffffffffffffffffffffffffffff168173ffffffffffffffffffffffffffffffffffffffff167f8be0079c531659141344cd1fd0a4f28419497f9722a3daafe3b4186f6b6457e060405160405180910390a35050565b6117c784848461149a565b6117d384848484611c7c565b611812576040517f08c379a000000000000000000000000000000000000000000000000000000000815260040161180990613016565b60405180910390fd5b50505050565b60606000821415611860576040518060400160405280600181526020017f300000000000000000000000000000000000000000000000000000000000000081525090506119c0565b600082905060005b6000821461189257808061187b90613570565b915050600a8261188b91906133c9565b9150611868565b60008167ffffffffffffffff8111156118d4577f4e487b7100000000000000000000000000000000000000000000000000000000600052604160045260246000fd5b6040519080825280601f01601f1916602001820160405280156119065781602001600182028036833780820191505090505b5090505b600085146119b95760018261191f9190613454565b9150600a8561192e91906135b9565b603061193a9190613373565b60f81b818381518110611976577f4e487b7100000000000000000000000000000000000000000000000000000000600052603260045260246000fd5b60200101907effffffffffffffffffffffffffffffffffffffffffffffffffffffffffffff1916908160001a905350600a856119b291906133c9565b945061190a565b8093505050505b919050565b606060008251905060008114156119ee5760405180602001604052806000815250915050611b7e565b600060036002836119ff9190613373565b611a0991906133c9565b6004611a1591906133fa565b90506000602082611a269190613373565b67ffffffffffffffff811115611a65577f4e487b7100000000000000000000000000000000000000000000000000000000600052604160045260246000fd5b6040519080825280601f01601f191660200182016040528015611a975781602001600182028036833780820191505090505b5090506000604051806060016040528060408152602001613714604091399050600181016020830160005b86811015611b3b5760038101905062ffffff818a015116603f8160121c168401518060081b905060ff603f83600c1c1686015116810190508060081b905060ff603f8360061c1686015116810190508060081b905060ff603f831686015116810190508060e01b90508084526004840193505050611ac2565b506003860660018114611b555760028114611b6557611b70565b613d3d60f01b6002830352611b70565b603d60f81b60018303525b508484525050819450505050505b919050565b611b8d8383611e13565b611b9a6000848484611c7c565b611bd9576040517f08c379a0000000000000000000000000000000000000000000000000000000008152600401611bd090613016565b60405180910390fd5b505050565b611c7481604051602401611bf29190612ff4565b6040516020818303038152906040527f41304fac000000000000000000000000000000000000000000000000000000007bffffffffffffffffffffffffffffffffffffffffffffffffffffffff19166020820180517bffffffffffffffffffffffffffffffffffffffffffffffffffffffff8381831617835250505050611fe1565b50565b505050565b6000611c9d8473ffffffffffffffffffffffffffffffffffffffff1661200a565b15611e06578373ffffffffffffffffffffffffffffffffffffffff1663150b7a02611cc66112fb565b8786866040518563ffffffff1660e01b8152600401611ce89493929190612f6b565b602060405180830381600087803b158015611d0257600080fd5b505af1925050508015611d3357506040513d601f19601f82011682018060405250810190611d3091906123c9565b60015b611db6573d8060008114611d63576040519150601f19603f3d011682016040523d82523d6000602084013e611d68565b606091505b50600081511415611dae576040517f08c379a0000000000000000000000000000000000000000000000000000000008152600401611da590613016565b60405180910390fd5b805181602001fd5b63150b7a0260e01b7bffffffffffffffffffffffffffffffffffffffffffffffffffffffff1916817bffffffffffffffffffffffffffffffffffffffffffffffffffffffff191614915050611e0b565b600190505b949350505050565b600073ffffffffffffffffffffffffffffffffffffffff168273ffffffffffffffffffffffffffffffffffffffff161415611e83576040517f08c379a0000000000000000000000000000000000000000000000000000000008152600401611e7a90613156565b60405180910390fd5b611e8c8161128f565b15611ecc576040517f08c379a0000000000000000000000000000000000000000000000000000000008152600401611ec390613056565b60405180910390fd5b611ed860008383611c77565b6001600360008473ffffffffffffffffffffffffffffffffffffffff1673ffffffffffffffffffffffffffffffffffffffff1681526020019081526020016000206000828254611f289190613373565b92505081905550816002600083815260200190815260200160002060006101000a81548173ffffffffffffffffffffffffffffffffffffffff021916908373ffffffffffffffffffffffffffffffffffffffff160217905550808273ffffffffffffffffffffffffffffffffffffffff16600073ffffffffffffffffffffffffffffffffffffffff167fddf252ad1be2c89b69c2b068fc378daa952ba7f163c4a11628f55a4df523b3ef60405160405180910390a45050565b60008151905060006a636f6e736f6c652e6c6f679050602083016000808483855afa5050505050565b600080823b905060008111915050919050565b8280546120299061353e565b90600052602060002090601f01602090048101928261204b5760008555612092565b82601f1061206457805160ff1916838001178555612092565b82800160010185558215612092579182015b82811115612091578251825591602001919060010190612076565b5b50905061209f91906120a3565b5090565b5b808211156120bc5760008160009055506001016120a4565b5090565b60006120d36120ce84613282565b613251565b9050828152602081018484840111156120eb57600080fd5b6120f68482856134fc565b509392505050565b600061211161210c846132b2565b613251565b90508281526020810184848401111561212957600080fd5b6121348482856134fc565b509392505050565b60008135905061214b816136b7565b92915050565b600081359050612160816136ce565b92915050565b600081359050612175816136e5565b92915050565b60008151905061218a816136e5565b92915050565b600082601f8301126121a157600080fd5b81356121b18482602086016120c0565b91505092915050565b600082601f8301126121cb57600080fd5b81356121db8482602086016120fe565b91505092915050565b6000813590506121f3816136fc565b92915050565b60006020828403121561220b57600080fd5b60006122198482850161213c565b91505092915050565b6000806040838503121561223557600080fd5b60006122438582860161213c565b92505060206122548582860161213c565b9150509250929050565b60008060006060848603121561227357600080fd5b60006122818682870161213c565b93505060206122928682870161213c565b92505060406122a3868287016121e4565b9150509250925092565b600080600080608085870312156122c357600080fd5b60006122d18782880161213c565b94505060206122e28782880161213c565b93505060406122f3878288016121e4565b925050606085013567ffffffffffffffff81111561231057600080fd5b61231c87828801612190565b91505092959194509250565b6000806040838503121561233b57600080fd5b60006123498582860161213c565b925050602061235a85828601612151565b9150509250929050565b6000806040838503121561237757600080fd5b60006123858582860161213c565b9250506020612396858286016121e4565b9150509250929050565b6000602082840312156123b257600080fd5b60006123c084828501612166565b91505092915050565b6000602082840312156123db57600080fd5b60006123e98482850161217b565b91505092915050565b6000806040838503121561240557600080fd5b600083013567ffffffffffffffff81111561241f57600080fd5b61242b858286016121ba565b925050602061243c858286016121e4565b9150509250929050565b60006020828403121561245857600080fd5b6000612466848285016121e4565b91505092915050565b600061247b8383612e9f565b60208301905092915050565b61249081613488565b82525050565b60006124a182613307565b6124ab8185613335565b93506124b6836132e2565b8060005b838110156124e75781516124ce888261246f565b97506124d983613328565b9250506001810190506124ba565b5085935050505092915050565b6124fd8161349a565b82525050565b600061250e82613312565b6125188185613346565b935061252881856020860161350b565b612531816136a6565b840191505092915050565b60006125478261331d565b6125518185613357565b935061256181856020860161350b565b61256a816136a6565b840191505092915050565b60006125808261331d565b61258a8185613368565b935061259a81856020860161350b565b80840191505092915050565b600081546125b38161353e565b6125bd8186613368565b945060018216600081146125d857600181146125e95761261c565b60ff1983168652818601935061261c565b6125f2856132f2565b60005b83811015612614578154818901526001820191506020810190506125f5565b838801955050505b50505092915050565b6000612632600b83613368565b91507f202d2d204e465420233a200000000000000000000000000000000000000000006000830152600b82019050919050565b6000612672601283613368565b91507f222c202261747472696275746573223a205b00000000000000000000000000006000830152601282019050919050565b60006126b2603283613357565b91507f4552433732313a207472616e7366657220746f206e6f6e20455243373231526560008301527f63656976657220696d706c656d656e74657200000000000000000000000000006020830152604082019050919050565b6000612718602683613357565b91507f4f776e61626c653a206e6577206f776e657220697320746865207a65726f206160008301527f64647265737300000000000000000000000000000000000000000000000000006020830152604082019050919050565b600061277e601c83613357565b91507f4552433732313a20746f6b656e20616c7265616479206d696e746564000000006000830152602082019050919050565b60006127be602483613357565b91507f4552433732313a207472616e7366657220746f20746865207a65726f2061646460008301527f72657373000000000000000000000000000000000000000000000000000000006020830152604082019050919050565b6000612824601983613357565b91507f4552433732313a20617070726f766520746f2063616c6c6572000000000000006000830152602082019050919050565b6000612864602d83613357565b91507f4552433732314d65746164617461203a2055524920736574206f66206e6f6e6560008301527f78697374656e7420746f6b656e000000000000000000000000000000000000006020830152604082019050919050565b60006128ca604f83613368565b91507f222c20226465736372697074696f6e223a2022556e6520636f6c6c656374696f60008301527f6e2071756920726570726573656e7465206465732062696c6c6574732064617660208301527f696f6e222c22696d616765223a202200000000000000000000000000000000006040830152604f82019050919050565b6000612956602c83613357565b91507f4552433732313a206f70657261746f7220717565727920666f72206e6f6e657860008301527f697374656e7420746f6b656e00000000000000000000000000000000000000006020830152604082019050919050565b60006129bc603883613357565b91507f4552433732313a20617070726f76652063616c6c6572206973206e6f74206f7760008301527f6e6572206e6f7220617070726f76656420666f7220616c6c00000000000000006020830152604082019050919050565b6000612a22602a83613357565b91507f4552433732313a2062616c616e636520717565727920666f7220746865207a6560008301527f726f2061646472657373000000000000000000000000000000000000000000006020830152604082019050919050565b6000612a88602983613357565b91507f4552433732313a206f776e657220717565727920666f72206e6f6e657869737460008301527f656e7420746f6b656e00000000000000000000000000000000000000000000006020830152604082019050919050565b6000612aee600c83613368565b91507f426f617264696e675061737300000000000000000000000000000000000000006000830152600c82019050919050565b6000612b2e602083613357565b91507f4552433732313a206d696e7420746f20746865207a65726f20616464726573736000830152602082019050919050565b6000612b6e602c83613357565b91507f4552433732313a20617070726f76656420717565727920666f72206e6f6e657860008301527f697374656e7420746f6b656e00000000000000000000000000000000000000006020830152604082019050919050565b6000612bd4602083613357565b91507f4f776e61626c653a2063616c6c6572206973206e6f7420746865206f776e65726000830152602082019050919050565b6000612c14602983613357565b91507f4552433732313a207472616e73666572206f6620746f6b656e2074686174206960008301527f73206e6f74206f776e00000000000000000000000000000000000000000000006020830152604082019050919050565b6000612c7a600a83613368565b91507f7b226e616d65223a2022000000000000000000000000000000000000000000006000830152600a82019050919050565b6000612cba600283613368565b91507f5d7d0000000000000000000000000000000000000000000000000000000000006000830152600282019050919050565b6000612cfa602183613357565b91507f4552433732313a20617070726f76616c20746f2063757272656e74206f776e6560008301527f72000000000000000000000000000000000000000000000000000000000000006020830152604082019050919050565b6000612d60603e83613368565b91507f68747470733a2f2f696d616765732e656d6f6a6974657272612e636f6d2f676f60008301527f6f676c652f616e64726f69642d31312f35313270782f323730382e706e6700006020830152603e82019050919050565b6000612dc6601d83613368565b91507f646174613a6170706c69636174696f6e2f6a736f6e3b6261736536342c0000006000830152601d82019050919050565b6000612e06603183613357565b91507f4552433732313a207472616e736665722063616c6c6572206973206e6f74206f60008301527f776e6572206e6f7220617070726f7665640000000000000000000000000000006020830152604082019050919050565b6000612e6c601083613357565b91507f4e6f7420656e6f756768204574686572000000000000000000000000000000006000830152602082019050919050565b612ea8816134f2565b82525050565b612eb7816134f2565b82525050565b6000612ec882612c6d565b9150612ed382612ae1565b9150612ede82612625565b9150612eea8285612575565b9150612ef5826128bd565b9150612f0082612d53565b9150612f0b82612665565b9150612f1782846125a6565b9150612f2282612cad565b91508190509392505050565b6000612f3982612db9565b9150612f458284612575565b915081905092915050565b6000602082019050612f656000830184612487565b92915050565b6000608082019050612f806000830187612487565b612f8d6020830186612487565b612f9a6040830185612eae565b8181036060830152612fac8184612503565b905095945050505050565b60006020820190508181036000830152612fd18184612496565b905092915050565b6000602082019050612fee60008301846124f4565b92915050565b6000602082019050818103600083015261300e818461253c565b905092915050565b6000602082019050818103600083015261302f816126a5565b9050919050565b6000602082019050818103600083015261304f8161270b565b9050919050565b6000602082019050818103600083015261306f81612771565b9050919050565b6000602082019050818103600083015261308f816127b1565b9050919050565b600060208201905081810360008301526130af81612817565b9050919050565b600060208201905081810360008301526130cf81612857565b9050919050565b600060208201905081810360008301526130ef81612949565b9050919050565b6000602082019050818103600083015261310f816129af565b9050919050565b6000602082019050818103600083015261312f81612a15565b9050919050565b6000602082019050818103600083015261314f81612a7b565b9050919050565b6000602082019050818103600083015261316f81612b21565b9050919050565b6000602082019050818103600083015261318f81612b61565b9050919050565b600060208201905081810360008301526131af81612bc7565b9050919050565b600060208201905081810360008301526131cf81612c07565b9050919050565b600060208201905081810360008301526131ef81612ced565b9050919050565b6000602082019050818103600083015261320f81612df9565b9050919050565b6000602082019050818103600083015261322f81612e5f565b9050919050565b600060208201905061324b6000830184612eae565b92915050565b6000604051905081810181811067ffffffffffffffff8211171561327857613277613677565b5b8060405250919050565b600067ffffffffffffffff82111561329d5761329c613677565b5b601f19601f8301169050602081019050919050565b600067ffffffffffffffff8211156132cd576132cc613677565b5b601f19601f8301169050602081019050919050565b6000819050602082019050919050565b60008190508160005260206000209050919050565b600081519050919050565b600081519050919050565b600081519050919050565b6000602082019050919050565b600082825260208201905092915050565b600082825260208201905092915050565b600082825260208201905092915050565b600081905092915050565b600061337e826134f2565b9150613389836134f2565b9250827fffffffffffffffffffffffffffffffffffffffffffffffffffffffffffffffff038211156133be576133bd6135ea565b5b828201905092915050565b60006133d4826134f2565b91506133df836134f2565b9250826133ef576133ee613619565b5b828204905092915050565b6000613405826134f2565b9150613410836134f2565b9250817fffffffffffffffffffffffffffffffffffffffffffffffffffffffffffffffff0483118215151615613449576134486135ea565b5b828202905092915050565b600061345f826134f2565b915061346a836134f2565b92508282101561347d5761347c6135ea565b5b828203905092915050565b6000613493826134d2565b9050919050565b60008115159050919050565b60007fffffffff0000000000000000000000000000000000000000000000000000000082169050919050565b600073ffffffffffffffffffffffffffffffffffffffff82169050919050565b6000819050919050565b82818337600083830152505050565b60005b8381101561352957808201518184015260208101905061350e565b83811115613538576000848401525b50505050565b6000600282049050600182168061355657607f821691505b6020821081141561356a57613569613648565b5b50919050565b600061357b826134f2565b91507fffffffffffffffffffffffffffffffffffffffffffffffffffffffffffffffff8214156135ae576135ad6135ea565b5b600182019050919050565b60006135c4826134f2565b91506135cf836134f2565b9250826135df576135de613619565b5b828206905092915050565b7f4e487b7100000000000000000000000000000000000000000000000000000000600052601160045260246000fd5b7f4e487b7100000000000000000000000000000000000000000000000000000000600052601260045260246000fd5b7f4e487b7100000000000000000000000000000000000000000000000000000000600052602260045260246000fd5b7f4e487b7100000000000000000000000000000000000000000000000000000000600052604160045260246000fd5b6000601f19601f8301169050919050565b6136c081613488565b81146136cb57600080fd5b50565b6136d78161349a565b81146136e257600080fd5b50565b6136ee816134a6565b81146136f957600080fd5b50565b613705816134f2565b811461371057600080fd5b5056fe4142434445464748494a4b4c4d4e4f505152535455565758595a6162636465666768696a6b6c6d6e6f707172737475767778797a303132333435363738392b2fa264697066735822122018e2350dd9938ea53c7349b72d3db077d189bf3d6791ff49d622e920c40e04df64736f6c63430008000033",
  "linkReferences": {},
  "deployedLinkReferences": {}
}