{
  "_format": "hh-sol-artifact-1",
  "contractName": "BoardingPass",
  "sourceName": "contracts/BoardingPass.sol",
  "abi": [
    {
      "inputs": [],
      "stateMutability": "nonpayable",
      "type": "constructor"
    },
    {
      "anonymous": false,
      "inputs": [
        {
          "indexed": true,
          "internalType": "address",
          "name": "owner",
          "type": "address"
        },
        {
          "indexed": true,
          "internalType": "address",
          "name": "approved",
          "type": "address"
        },
        {
          "indexed": true,
          "internalType": "uint256",
          "name": "tokenId",
          "type": "uint256"
        }
      ],
      "name": "Approval",
      "type": "event"
    },
    {
      "anonymous": false,
      "inputs": [
        {
          "indexed": true,
          "internalType": "address",
          "name": "owner",
          "type": "address"
        },
        {
          "indexed": true,
          "internalType": "address",
          "name": "operator",
          "type": "address"
        },
        {
          "indexed": false,
          "internalType": "bool",
          "name": "approved",
          "type": "bool"
        }
      ],
      "name": "ApprovalForAll",
      "type": "event"
    },
    {
      "anonymous": false,
      "inputs": [
        {
          "indexed": true,
          "internalType": "address",
          "name": "previousOwner",
          "type": "address"
        },
        {
          "indexed": true,
          "internalType": "address",
          "name": "newOwner",
          "type": "address"
        }
      ],
      "name": "OwnershipTransferred",
      "type": "event"
    },
    {
      "anonymous": false,
      "inputs": [
        {
          "indexed": true,
          "internalType": "address",
          "name": "from",
          "type": "address"
        },
        {
          "indexed": true,
          "internalType": "address",
          "name": "to",
          "type": "address"
        },
        {
          "indexed": true,
          "internalType": "uint256",
          "name": "tokenId",
          "type": "uint256"
        }
      ],
      "name": "Transfer",
      "type": "event"
    },
    {
      "inputs": [
        {
          "internalType": "address",
          "name": "to",
          "type": "address"
        },
        {
          "internalType": "uint256",
          "name": "tokenId",
          "type": "uint256"
        }
      ],
      "name": "approve",
      "outputs": [],
      "stateMutability": "nonpayable",
      "type": "function"
    },
    {
      "inputs": [
        {
          "internalType": "address",
          "name": "owner",
          "type": "address"
        }
      ],
      "name": "balanceOf",
      "outputs": [
        {
          "internalType": "uint256",
          "name": "",
          "type": "uint256"
        }
      ],
      "stateMutability": "view",
      "type": "function"
    },
    {
      "inputs": [
        {
          "internalType": "address",
          "name": "_address",
          "type": "address"
        }
      ],
      "name": "getAllTokensFromAdress",
      "outputs": [
        {
          "internalType": "uint256[]",
          "name": "",
          "type": "uint256[]"
        }
      ],
      "stateMutability": "view",
      "type": "function"
    },
    {
      "inputs": [
        {
          "internalType": "uint256",
          "name": "tokenId",
          "type": "uint256"
        }
      ],
      "name": "getApproved",
      "outputs": [
        {
          "internalType": "address",
          "name": "",
          "type": "address"
        }
      ],
      "stateMutability": "view",
      "type": "function"
    },
    {
      "inputs": [],
      "name": "getBalance",
      "outputs": [
        {
          "internalType": "uint256",
          "name": "",
          "type": "uint256"
        }
      ],
      "stateMutability": "view",
      "type": "function"
    },
    {
      "inputs": [],
      "name": "getLatestEthPrice",
      "outputs": [
        {
          "internalType": "uint256",
          "name": "",
          "type": "uint256"
        }
      ],
      "stateMutability": "view",
      "type": "function"
    },
    {
      "inputs": [
        {
          "internalType": "uint256",
          "name": "_tokenId",
          "type": "uint256"
        }
      ],
      "name": "getTokenCanceledValue",
      "outputs": [
        {
          "internalType": "bool",
          "name": "",
          "type": "bool"
        }
      ],
      "stateMutability": "view",
      "type": "function"
    },
    {
      "inputs": [
        {
          "internalType": "uint256",
          "name": "_tokenId",
          "type": "uint256"
        }
      ],
      "name": "getTokenURI",
      "outputs": [
        {
          "internalType": "string",
          "name": "",
          "type": "string"
        }
      ],
      "stateMutability": "view",
      "type": "function"
    },
    {
      "inputs": [
        {
          "internalType": "address",
          "name": "owner",
          "type": "address"
        },
        {
          "internalType": "address",
          "name": "operator",
          "type": "address"
        }
      ],
      "name": "isApprovedForAll",
      "outputs": [
        {
          "internalType": "bool",
          "name": "",
          "type": "bool"
        }
      ],
      "stateMutability": "view",
      "type": "function"
    },
    {
      "inputs": [
        {
          "internalType": "string",
          "name": "_num",
          "type": "string"
        },
        {
          "internalType": "string",
          "name": "_departure",
          "type": "string"
        },
        {
          "internalType": "string",
          "name": "_destination",
          "type": "string"
        },
        {
          "internalType": "string",
          "name": "_boardingDate",
          "type": "string"
        },
        {
          "internalType": "string",
          "name": "_boardingTime",
          "type": "string"
        },
        {
          "internalType": "bool",
          "name": "_canceled",
          "type": "bool"
        },
        {
          "internalType": "uint256",
          "name": "_price",
          "type": "uint256"
        },
        {
          "internalType": "uint256",
          "name": "_wei",
          "type": "uint256"
        }
      ],
      "name": "mint",
      "outputs": [],
      "stateMutability": "payable",
      "type": "function"
    },
    {
      "inputs": [],
      "name": "name",
      "outputs": [
        {
          "internalType": "string",
          "name": "",
          "type": "string"
        }
      ],
      "stateMutability": "view",
      "type": "function"
    },
    {
      "inputs": [],
      "name": "owner",
      "outputs": [
        {
          "internalType": "address",
          "name": "",
          "type": "address"
        }
      ],
      "stateMutability": "view",
      "type": "function"
    },
    {
      "inputs": [
        {
          "internalType": "uint256",
          "name": "tokenId",
          "type": "uint256"
        }
      ],
      "name": "ownerOf",
      "outputs": [
        {
          "internalType": "address",
          "name": "",
          "type": "address"
        }
      ],
      "stateMutability": "view",
      "type": "function"
    },
    {
      "inputs": [
        {
          "internalType": "uint256",
          "name": "_tokenId",
          "type": "uint256"
        },
        {
          "internalType": "uint256",
          "name": "weiToSend",
          "type": "uint256"
        }
      ],
      "name": "refund",
      "outputs": [],
      "stateMutability": "payable",
      "type": "function"
    },
    {
      "inputs": [],
      "name": "renounceOwnership",
      "outputs": [],
      "stateMutability": "nonpayable",
      "type": "function"
    },
    {
      "inputs": [
        {
          "internalType": "address",
          "name": "from",
          "type": "address"
        },
        {
          "internalType": "address",
          "name": "to",
          "type": "address"
        },
        {
          "internalType": "uint256",
          "name": "tokenId",
          "type": "uint256"
        }
      ],
      "name": "safeTransferFrom",
      "outputs": [],
      "stateMutability": "nonpayable",
      "type": "function"
    },
    {
      "inputs": [
        {
          "internalType": "address",
          "name": "from",
          "type": "address"
        },
        {
          "internalType": "address",
          "name": "to",
          "type": "address"
        },
        {
          "internalType": "uint256",
          "name": "tokenId",
          "type": "uint256"
        },
        {
          "internalType": "bytes",
          "name": "_data",
          "type": "bytes"
        }
      ],
      "name": "safeTransferFrom",
      "outputs": [],
      "stateMutability": "nonpayable",
      "type": "function"
    },
    {
      "inputs": [
        {
          "internalType": "address",
          "name": "operator",
          "type": "address"
        },
        {
          "internalType": "bool",
          "name": "approved",
          "type": "bool"
        }
      ],
      "name": "setApprovalForAll",
      "outputs": [],
      "stateMutability": "nonpayable",
      "type": "function"
    },
    {
      "inputs": [
        {
          "internalType": "bytes4",
          "name": "interfaceId",
          "type": "bytes4"
        }
      ],
      "name": "supportsInterface",
      "outputs": [
        {
          "internalType": "bool",
          "name": "",
          "type": "bool"
        }
      ],
      "stateMutability": "view",
      "type": "function"
    },
    {
      "inputs": [],
      "name": "symbol",
      "outputs": [
        {
          "internalType": "string",
          "name": "",
          "type": "string"
        }
      ],
      "stateMutability": "view",
      "type": "function"
    },
    {
      "inputs": [
        {
          "internalType": "uint256",
          "name": "_tokenId",
          "type": "uint256"
        }
      ],
      "name": "tokenURI",
      "outputs": [
        {
          "internalType": "string",
          "name": "",
          "type": "string"
        }
      ],
      "stateMutability": "view",
      "type": "function"
    },
    {
      "inputs": [
        {
          "internalType": "address",
          "name": "from",
          "type": "address"
        },
        {
          "internalType": "address",
          "name": "to",
          "type": "address"
        },
        {
          "internalType": "uint256",
          "name": "tokenId",
          "type": "uint256"
        }
      ],
      "name": "transferFrom",
      "outputs": [],
      "stateMutability": "nonpayable",
      "type": "function"
    },
    {
      "inputs": [
        {
          "internalType": "address",
          "name": "newOwner",
          "type": "address"
        }
      ],
      "name": "transferOwnership",
      "outputs": [],
      "stateMutability": "nonpayable",
      "type": "function"
    },
    {
      "inputs": [
        {
          "internalType": "string",
          "name": "_num",
          "type": "string"
        }
      ],
      "name": "updateAllTokensCanceledValueByNum",
      "outputs": [],
      "stateMutability": "nonpayable",
      "type": "function"
    }
  ],
  "bytecode": "0x60806040523480156200001157600080fd5b506040518060400160405280600e81526020017f506c616e6548756220546f6b656e0000000000000000000000000000000000008152506040518060400160405280600381526020017f5048540000000000000000000000000000000000000000000000000000000000815250816000908051906020019062000096929190620001fb565b508060019080519060200190620000af929190620001fb565b505050620000d2620000c66200012d60201b60201c565b6200013560201b60201c565b738a753747a1fa494ec906ce90e9f37563a8af630e600760006101000a81548173ffffffffffffffffffffffffffffffffffffffff021916908373ffffffffffffffffffffffffffffffffffffffff16021790555062000310565b600033905090565b6000600660009054906101000a900473ffffffffffffffffffffffffffffffffffffffff16905081600660006101000a81548173ffffffffffffffffffffffffffffffffffffffff021916908373ffffffffffffffffffffffffffffffffffffffff1602179055508173ffffffffffffffffffffffffffffffffffffffff168173ffffffffffffffffffffffffffffffffffffffff167f8be0079c531659141344cd1fd0a4f28419497f9722a3daafe3b4186f6b6457e060405160405180910390a35050565b8280546200020990620002ab565b90600052602060002090601f0160209004810192826200022d576000855562000279565b82601f106200024857805160ff191683800117855562000279565b8280016001018555821562000279579182015b82811115620002785782518255916020019190600101906200025b565b5b5090506200028891906200028c565b5090565b5b80821115620002a75760008160009055506001016200028d565b5090565b60006002820490506001821680620002c457607f821691505b60208210811415620002db57620002da620002e1565b5b50919050565b7f4e487b7100000000000000000000000000000000000000000000000000000000600052602260045260246000fd5b61530680620003206000396000f3fe60806040526004361061014b5760003560e01c80635af36e3e116100b6578063a22cb4651161006f578063a22cb46514610488578063b88d4fde146104b1578063c87b56dd146104da578063dbbc7d8014610517578063e985e9c514610554578063f2fde38b146105915761014b565b80635af36e3e146103855780636352211e146103a157806370a08231146103de578063715018a61461041b5780638da5cb5b1461043257806395d89b411461045d5761014b565b806323b872dd1161010857806323b872dd146102655780632b89230a1461028e57806330c0b9ec146102b75780633bb3a24d146102e25780633ea5025d1461031f57806342842e0e1461035c5761014b565b806301ffc9a71461015057806306fdde031461018d578063081812fc146101b8578063095ea7b3146101f55780630f647b001461021e57806312065fe01461023a575b600080fd5b34801561015c57600080fd5b5061017760048036038101906101729190613218565b6105ba565b6040516101849190614a7d565b60405180910390f35b34801561019957600080fd5b506101a261069c565b6040516101af9190614a98565b60405180910390f35b3480156101c457600080fd5b506101df60048036038101906101da91906133d5565b61072e565b6040516101ec91906149f4565b60405180910390f35b34801561020157600080fd5b5061021c600480360381019061021791906131dc565b6107b3565b005b610238600480360381019061023391906132ab565b6108cb565b005b34801561024657600080fd5b5061024f610af2565b60405161025c9190614d5a565b60405180910390f35b34801561027157600080fd5b5061028c600480360381019061028791906130d6565b610afa565b005b34801561029a57600080fd5b506102b560048036038101906102b0919061326a565b610b5a565b005b3480156102c357600080fd5b506102cc610c44565b6040516102d99190614d5a565b60405180910390f35b3480156102ee57600080fd5b50610309600480360381019061030491906133d5565b610d02565b6040516103169190614a98565b60405180910390f35b34801561032b57600080fd5b50610346600480360381019061034191906133d5565b611144565b6040516103539190614a7d565b60405180910390f35b34801561036857600080fd5b50610383600480360381019061037e91906130d6565b611171565b005b61039f600480360381019061039a91906133fe565b611191565b005b3480156103ad57600080fd5b506103c860048036038101906103c391906133d5565b611508565b6040516103d591906149f4565b60405180910390f35b3480156103ea57600080fd5b5061040560048036038101906104009190613071565b6115ba565b6040516104129190614d5a565b60405180910390f35b34801561042757600080fd5b50610430611672565b005b34801561043e57600080fd5b506104476116fa565b60405161045491906149f4565b60405180910390f35b34801561046957600080fd5b50610472611724565b60405161047f9190614a98565b60405180910390f35b34801561049457600080fd5b506104af60048036038101906104aa91906131a0565b6117b6565b005b3480156104bd57600080fd5b506104d860048036038101906104d39190613125565b611937565b005b3480156104e657600080fd5b5061050160048036038101906104fc91906133d5565b611999565b60405161050e9190614a98565b60405180910390f35b34801561052357600080fd5b5061053e60048036038101906105399190613071565b611d6a565b60405161054b9190614a5b565b60405180910390f35b34801561056057600080fd5b5061057b6004803603810190610576919061309a565b611e01565b6040516105889190614a7d565b60405180910390f35b34801561059d57600080fd5b506105b860048036038101906105b39190613071565b611e95565b005b60007f80ac58cd000000000000000000000000000000000000000000000000000000007bffffffffffffffffffffffffffffffffffffffffffffffffffffffff1916827bffffffffffffffffffffffffffffffffffffffffffffffffffffffff1916148061068557507f5b5e139f000000000000000000000000000000000000000000000000000000007bffffffffffffffffffffffffffffffffffffffffffffffffffffffff1916827bffffffffffffffffffffffffffffffffffffffffffffffffffffffff1916145b80610695575061069482611f8d565b5b9050919050565b6060600080546106ab9061508d565b80601f01602080910402602001604051908101604052809291908181526020018280546106d79061508d565b80156107245780601f106106f957610100808354040283529160200191610724565b820191906000526020600020905b81548152906001019060200180831161070757829003601f168201915b5050505050905090565b600061073982611ff7565b610778576040517f08c379a000000000000000000000000000000000000000000000000000000000815260040161076f90614c7a565b60405180910390fd5b6004600083815260200190815260200160002060009054906101000a900473ffffffffffffffffffffffffffffffffffffffff169050919050565b60006107be82611508565b90508073ffffffffffffffffffffffffffffffffffffffff168373ffffffffffffffffffffffffffffffffffffffff16141561082f576040517f08c379a000000000000000000000000000000000000000000000000000000000815260040161082690614cda565b60405180910390fd5b8073ffffffffffffffffffffffffffffffffffffffff1661084e612063565b73ffffffffffffffffffffffffffffffffffffffff16148061087d575061087c81610877612063565b611e01565b5b6108bc576040517f08c379a00000000000000000000000000000000000000000000000000000000081526004016108b390614bfa565b60405180910390fd5b6108c6838361206b565b505050565b8034101561090e576040517f08c379a000000000000000000000000000000000000000000000000000000000815260040161090590614d1a565b60405180910390fd5b6109186008612124565b6000610924600861213a565b90506109303382612148565b60006040518060e001604052808b81526020018a81526020018981526020018881526020018781526020018615158152602001858152509050600960003373ffffffffffffffffffffffffffffffffffffffff1673ffffffffffffffffffffffffffffffffffffffff168152602001908152602001600020829080600181540180825580915050600190039060005260206000200160009091909190915055600b8a6040516109df91906145ff565b908152602001604051809103902082908060018154018082558091505060019003906000526020600020016000909190919091505580600a60008481526020019081526020016000206000820151816000019080519060200190610a44929190612e16565b506020820151816001019080519060200190610a61929190612e16565b506040820151816002019080519060200190610a7e929190612e16565b506060820151816003019080519060200190610a9b929190612e16565b506080820151816004019080519060200190610ab8929190612e16565b5060a08201518160050160006101000a81548160ff02191690831515021790555060c0820151816006015590505050505050505050505050565b600047905090565b610b0b610b05612063565b82612166565b610b4a576040517f08c379a0000000000000000000000000000000000000000000000000000000008152600401610b4190614cfa565b60405180910390fd5b610b55838383612244565b505050565b6000600b82604051610b6c91906145ff565b9081526020016040518091039020805480602002602001604051908101604052809291908181526020018280548015610bc457602002820191906000526020600020905b815481526020019060010190808311610bb0575b505050505090506000600190505b81518111610c3f57600a600082815260200190815260200160002060050160009054906101000a900460ff1615600a600083815260200190815260200160002060050160006101000a81548160ff0219169083151502179055508080610c37906150bf565b915050610bd2565b505050565b600080600080600080600760009054906101000a900473ffffffffffffffffffffffffffffffffffffffff1673ffffffffffffffffffffffffffffffffffffffff1663feaf968c6040518163ffffffff1660e01b815260040160a06040518083038186803b158015610cb557600080fd5b505afa158015610cc9573d6000803e3d6000fd5b505050506040513d601f19601f82011682018060405250810190610ced919061343a565b94509450945094509450839550505050505090565b6060610d0d82611ff7565b610d4c576040517f08c379a0000000000000000000000000000000000000000000000000000000008152600401610d4390614bba565b60405180910390fd5b6000600a60008481526020019081526020016000206040518060e0016040529081600082018054610d7c9061508d565b80601f0160208091040260200160405190810160405280929190818152602001828054610da89061508d565b8015610df55780601f10610dca57610100808354040283529160200191610df5565b820191906000526020600020905b815481529060010190602001808311610dd857829003601f168201915b50505050508152602001600182018054610e0e9061508d565b80601f0160208091040260200160405190810160405280929190818152602001828054610e3a9061508d565b8015610e875780601f10610e5c57610100808354040283529160200191610e87565b820191906000526020600020905b815481529060010190602001808311610e6a57829003601f168201915b50505050508152602001600282018054610ea09061508d565b80601f0160208091040260200160405190810160405280929190818152602001828054610ecc9061508d565b8015610f195780601f10610eee57610100808354040283529160200191610f19565b820191906000526020600020905b815481529060010190602001808311610efc57829003601f168201915b50505050508152602001600382018054610f329061508d565b80601f0160208091040260200160405190810160405280929190818152602001828054610f5e9061508d565b8015610fab5780601f10610f8057610100808354040283529160200191610fab565b820191906000526020600020905b815481529060010190602001808311610f8e57829003601f168201915b50505050508152602001600482018054610fc49061508d565b80601f0160208091040260200160405190810160405280929190818152602001828054610ff09061508d565b801561103d5780601f106110125761010080835404028352916020019161103d565b820191906000526020600020905b81548152906001019060200180831161102057829003601f168201915b505050505081526020016005820160009054906101000a900460ff1615151515815260200160068201548152505090506000611078846124a0565b9050600061109a8360a0015161108f576000611092565b60015b60ff166124a0565b905060006110ab8460c001516124a0565b905060006110bf6110ba610c44565b6124a0565b9050600061110f858760000151886020015189604001518a606001518b608001518a8a8a6040516020016110fb9998979695949392919061462d565b60405160208183030381529060405261264d565b905060008160405160200161112491906149bd565b604051602081830303815290604052905080975050505050505050919050565b6000600a600083815260200190815260200160002060050160009054906101000a900460ff169050919050565b61118c83838360405180602001604052806000815250611937565b505050565b61119a82611508565b73ffffffffffffffffffffffffffffffffffffffff163373ffffffffffffffffffffffffffffffffffffffff1614611207576040517f08c379a00000000000000000000000000000000000000000000000000000000081526004016111fe90614ada565b60405180910390fd5b60011515600a600084815260200190815260200160002060050160009054906101000a900460ff16151514611271576040517f08c379a000000000000000000000000000000000000000000000000000000000815260040161126890614aba565b60405180910390fd5b8047116112b3576040517f08c379a00000000000000000000000000000000000000000000000000000000081526004016112aa90614d3a565b60405180910390fd5b6112bc8261280b565b600960003373ffffffffffffffffffffffffffffffffffffffff1673ffffffffffffffffffffffffffffffffffffffff1681526020019081526020016000206001836113089190614f83565b8154811061133f577f4e487b7100000000000000000000000000000000000000000000000000000000600052603260045260246000fd5b9060005260206000200160009055600b600a60008481526020019081526020016000206000016040516113729190614616565b908152602001604051809103902060018361138d9190614f83565b815481106113c4577f4e487b7100000000000000000000000000000000000000000000000000000000600052603260045260246000fd5b9060005260206000200160009055600a6000838152602001908152602001600020600080820160006113f69190612e9c565b6001820160006114069190612e9c565b6002820160006114169190612e9c565b6003820160006114269190612e9c565b6004820160006114369190612e9c565b6005820160006101000a81549060ff0219169055600682016000905550506000803373ffffffffffffffffffffffffffffffffffffffff168360405161147b906149df565b60006040518083038185875af1925050503d80600081146114b8576040519150601f19603f3d011682016040523d82523d6000602084013e6114bd565b606091505b509150915081611502576040517f08c379a00000000000000000000000000000000000000000000000000000000081526004016114f990614b5a565b60405180910390fd5b50505050565b6000806002600084815260200190815260200160002060009054906101000a900473ffffffffffffffffffffffffffffffffffffffff169050600073ffffffffffffffffffffffffffffffffffffffff168173ffffffffffffffffffffffffffffffffffffffff1614156115b1576040517f08c379a00000000000000000000000000000000000000000000000000000000081526004016115a890614c3a565b60405180910390fd5b80915050919050565b60008073ffffffffffffffffffffffffffffffffffffffff168273ffffffffffffffffffffffffffffffffffffffff16141561162b576040517f08c379a000000000000000000000000000000000000000000000000000000000815260040161162290614c1a565b60405180910390fd5b600360008373ffffffffffffffffffffffffffffffffffffffff1673ffffffffffffffffffffffffffffffffffffffff168152602001908152602001600020549050919050565b61167a612063565b73ffffffffffffffffffffffffffffffffffffffff166116986116fa565b73ffffffffffffffffffffffffffffffffffffffff16146116ee576040517f08c379a00000000000000000000000000000000000000000000000000000000081526004016116e590614c9a565b60405180910390fd5b6116f8600061291c565b565b6000600660009054906101000a900473ffffffffffffffffffffffffffffffffffffffff16905090565b6060600180546117339061508d565b80601f016020809104026020016040519081016040528092919081815260200182805461175f9061508d565b80156117ac5780601f10611781576101008083540402835291602001916117ac565b820191906000526020600020905b81548152906001019060200180831161178f57829003601f168201915b5050505050905090565b6117be612063565b73ffffffffffffffffffffffffffffffffffffffff168273ffffffffffffffffffffffffffffffffffffffff16141561182c576040517f08c379a000000000000000000000000000000000000000000000000000000000815260040161182390614b9a565b60405180910390fd5b8060056000611839612063565b73ffffffffffffffffffffffffffffffffffffffff1673ffffffffffffffffffffffffffffffffffffffff16815260200190815260200160002060008473ffffffffffffffffffffffffffffffffffffffff1673ffffffffffffffffffffffffffffffffffffffff16815260200190815260200160002060006101000a81548160ff0219169083151502179055508173ffffffffffffffffffffffffffffffffffffffff166118e6612063565b73ffffffffffffffffffffffffffffffffffffffff167f17307eab39ab6107e8899845ad3d59bd9653f200f220920489ca2b5937696c318360405161192b9190614a7d565b60405180910390a35050565b611948611942612063565b83612166565b611987576040517f08c379a000000000000000000000000000000000000000000000000000000000815260040161197e90614cfa565b60405180910390fd5b611993848484846129e2565b50505050565b60606000600a60008481526020019081526020016000206040518060e00160405290816000820180546119cb9061508d565b80601f01602080910402602001604051908101604052809291908181526020018280546119f79061508d565b8015611a445780601f10611a1957610100808354040283529160200191611a44565b820191906000526020600020905b815481529060010190602001808311611a2757829003601f168201915b50505050508152602001600182018054611a5d9061508d565b80601f0160208091040260200160405190810160405280929190818152602001828054611a899061508d565b8015611ad65780601f10611aab57610100808354040283529160200191611ad6565b820191906000526020600020905b815481529060010190602001808311611ab957829003601f168201915b50505050508152602001600282018054611aef9061508d565b80601f0160208091040260200160405190810160405280929190818152602001828054611b1b9061508d565b8015611b685780601f10611b3d57610100808354040283529160200191611b68565b820191906000526020600020905b815481529060010190602001808311611b4b57829003601f168201915b50505050508152602001600382018054611b819061508d565b80601f0160208091040260200160405190810160405280929190818152602001828054611bad9061508d565b8015611bfa5780601f10611bcf57610100808354040283529160200191611bfa565b820191906000526020600020905b815481529060010190602001808311611bdd57829003601f168201915b50505050508152602001600482018054611c139061508d565b80601f0160208091040260200160405190810160405280929190818152602001828054611c3f9061508d565b8015611c8c5780601f10611c6157610100808354040283529160200191611c8c565b820191906000526020600020905b815481529060010190602001808311611c6f57829003601f168201915b505050505081526020016005820160009054906101000a900460ff1615151515815260200160068201548152505090506000611d39611cca856124a0565b83600001518460200151856040015186606001518760800151611d018960a00151611cf6576000611cf9565b60015b60ff166124a0565b611d0e8a60c001516124a0565b604051602001611d2598979695949392919061477d565b60405160208183030381529060405261264d565b9050600081604051602001611d4e91906149bd565b6040516020818303038152906040529050809350505050919050565b6060600960008373ffffffffffffffffffffffffffffffffffffffff1673ffffffffffffffffffffffffffffffffffffffff168152602001908152602001600020805480602002602001604051908101604052809291908181526020018280548015611df557602002820191906000526020600020905b815481526020019060010190808311611de1575b50505050509050919050565b6000600560008473ffffffffffffffffffffffffffffffffffffffff1673ffffffffffffffffffffffffffffffffffffffff16815260200190815260200160002060008373ffffffffffffffffffffffffffffffffffffffff1673ffffffffffffffffffffffffffffffffffffffff16815260200190815260200160002060009054906101000a900460ff16905092915050565b611e9d612063565b73ffffffffffffffffffffffffffffffffffffffff16611ebb6116fa565b73ffffffffffffffffffffffffffffffffffffffff1614611f11576040517f08c379a0000000000000000000000000000000000000000000000000000000008152600401611f0890614c9a565b60405180910390fd5b600073ffffffffffffffffffffffffffffffffffffffff168173ffffffffffffffffffffffffffffffffffffffff161415611f81576040517f08c379a0000000000000000000000000000000000000000000000000000000008152600401611f7890614b1a565b60405180910390fd5b611f8a8161291c565b50565b60007f01ffc9a7000000000000000000000000000000000000000000000000000000007bffffffffffffffffffffffffffffffffffffffffffffffffffffffff1916827bffffffffffffffffffffffffffffffffffffffffffffffffffffffff1916149050919050565b60008073ffffffffffffffffffffffffffffffffffffffff166002600084815260200190815260200160002060009054906101000a900473ffffffffffffffffffffffffffffffffffffffff1673ffffffffffffffffffffffffffffffffffffffff1614159050919050565b600033905090565b816004600083815260200190815260200160002060006101000a81548173ffffffffffffffffffffffffffffffffffffffff021916908373ffffffffffffffffffffffffffffffffffffffff160217905550808273ffffffffffffffffffffffffffffffffffffffff166120de83611508565b73ffffffffffffffffffffffffffffffffffffffff167f8c5be1e5ebec7d5bd14f71427d1e84f3dd0314c0f7b2291e5b200ac8c7c3b92560405160405180910390a45050565b6001816000016000828254019250508190555050565b600081600001549050919050565b612162828260405180602001604052806000815250612a3e565b5050565b600061217182611ff7565b6121b0576040517f08c379a00000000000000000000000000000000000000000000000000000000081526004016121a790614bda565b60405180910390fd5b60006121bb83611508565b90508073ffffffffffffffffffffffffffffffffffffffff168473ffffffffffffffffffffffffffffffffffffffff16148061222a57508373ffffffffffffffffffffffffffffffffffffffff166122128461072e565b73ffffffffffffffffffffffffffffffffffffffff16145b8061223b575061223a8185611e01565b5b91505092915050565b8273ffffffffffffffffffffffffffffffffffffffff1661226482611508565b73ffffffffffffffffffffffffffffffffffffffff16146122ba576040517f08c379a00000000000000000000000000000000000000000000000000000000081526004016122b190614cba565b60405180910390fd5b600073ffffffffffffffffffffffffffffffffffffffff168273ffffffffffffffffffffffffffffffffffffffff16141561232a576040517f08c379a000000000000000000000000000000000000000000000000000000000815260040161232190614b7a565b60405180910390fd5b612335838383612a99565b61234060008261206b565b6001600360008573ffffffffffffffffffffffffffffffffffffffff1673ffffffffffffffffffffffffffffffffffffffff16815260200190815260200160002060008282546123909190614f83565b925050819055506001600360008473ffffffffffffffffffffffffffffffffffffffff1673ffffffffffffffffffffffffffffffffffffffff16815260200190815260200160002060008282546123e79190614ea2565b92505081905550816002600083815260200190815260200160002060006101000a81548173ffffffffffffffffffffffffffffffffffffffff021916908373ffffffffffffffffffffffffffffffffffffffff160217905550808273ffffffffffffffffffffffffffffffffffffffff168473ffffffffffffffffffffffffffffffffffffffff167fddf252ad1be2c89b69c2b068fc378daa952ba7f163c4a11628f55a4df523b3ef60405160405180910390a4505050565b606060008214156124e8576040518060400160405280600181526020017f30000000000000000000000000000000000000000000000000000000000000008152509050612648565b600082905060005b6000821461251a578080612503906150bf565b915050600a826125139190614ef8565b91506124f0565b60008167ffffffffffffffff81111561255c577f4e487b7100000000000000000000000000000000000000000000000000000000600052604160045260246000fd5b6040519080825280601f01601f19166020018201604052801561258e5781602001600182028036833780820191505090505b5090505b60008514612641576001826125a79190614f83565b9150600a856125b69190615108565b60306125c29190614ea2565b60f81b8183815181106125fe577f4e487b7100000000000000000000000000000000000000000000000000000000600052603260045260246000fd5b60200101907effffffffffffffffffffffffffffffffffffffffffffffffffffffffffffff1916908160001a905350600a8561263a9190614ef8565b9450612592565b8093505050505b919050565b606060008251905060008114156126765760405180602001604052806000815250915050612806565b600060036002836126879190614ea2565b6126919190614ef8565b600461269d9190614f29565b905060006020826126ae9190614ea2565b67ffffffffffffffff8111156126ed577f4e487b7100000000000000000000000000000000000000000000000000000000600052604160045260246000fd5b6040519080825280601f01601f19166020018201604052801561271f5781602001600182028036833780820191505090505b5090506000604051806060016040528060408152602001615291604091399050600181016020830160005b868110156127c35760038101905062ffffff818a015116603f8160121c168401518060081b905060ff603f83600c1c1686015116810190508060081b905060ff603f8360061c1686015116810190508060081b905060ff603f831686015116810190508060e01b9050808452600484019350505061274a565b5060038606600181146127dd57600281146127ed576127f8565b613d3d60f01b60028303526127f8565b603d60f81b60018303525b508484525050819450505050505b919050565b600061281682611508565b905061282481600084612a99565b61282f60008361206b565b6001600360008373ffffffffffffffffffffffffffffffffffffffff1673ffffffffffffffffffffffffffffffffffffffff168152602001908152602001600020600082825461287f9190614f83565b925050819055506002600083815260200190815260200160002060006101000a81549073ffffffffffffffffffffffffffffffffffffffff021916905581600073ffffffffffffffffffffffffffffffffffffffff168273ffffffffffffffffffffffffffffffffffffffff167fddf252ad1be2c89b69c2b068fc378daa952ba7f163c4a11628f55a4df523b3ef60405160405180910390a45050565b6000600660009054906101000a900473ffffffffffffffffffffffffffffffffffffffff16905081600660006101000a81548173ffffffffffffffffffffffffffffffffffffffff021916908373ffffffffffffffffffffffffffffffffffffffff1602179055508173ffffffffffffffffffffffffffffffffffffffff168173ffffffffffffffffffffffffffffffffffffffff167f8be0079c531659141344cd1fd0a4f28419497f9722a3daafe3b4186f6b6457e060405160405180910390a35050565b6129ed848484612244565b6129f984848484612a9e565b612a38576040517f08c379a0000000000000000000000000000000000000000000000000000000008152600401612a2f90614afa565b60405180910390fd5b50505050565b612a488383612c35565b612a556000848484612a9e565b612a94576040517f08c379a0000000000000000000000000000000000000000000000000000000008152600401612a8b90614afa565b60405180910390fd5b505050565b505050565b6000612abf8473ffffffffffffffffffffffffffffffffffffffff16612e03565b15612c28578373ffffffffffffffffffffffffffffffffffffffff1663150b7a02612ae8612063565b8786866040518563ffffffff1660e01b8152600401612b0a9493929190614a0f565b602060405180830381600087803b158015612b2457600080fd5b505af1925050508015612b5557506040513d601f19601f82011682018060405250810190612b529190613241565b60015b612bd8573d8060008114612b85576040519150601f19603f3d011682016040523d82523d6000602084013e612b8a565b606091505b50600081511415612bd0576040517f08c379a0000000000000000000000000000000000000000000000000000000008152600401612bc790614afa565b60405180910390fd5b805181602001fd5b63150b7a0260e01b7bffffffffffffffffffffffffffffffffffffffffffffffffffffffff1916817bffffffffffffffffffffffffffffffffffffffffffffffffffffffff191614915050612c2d565b600190505b949350505050565b600073ffffffffffffffffffffffffffffffffffffffff168273ffffffffffffffffffffffffffffffffffffffff161415612ca5576040517f08c379a0000000000000000000000000000000000000000000000000000000008152600401612c9c90614c5a565b60405180910390fd5b612cae81611ff7565b15612cee576040517f08c379a0000000000000000000000000000000000000000000000000000000008152600401612ce590614b3a565b60405180910390fd5b612cfa60008383612a99565b6001600360008473ffffffffffffffffffffffffffffffffffffffff1673ffffffffffffffffffffffffffffffffffffffff1681526020019081526020016000206000828254612d4a9190614ea2565b92505081905550816002600083815260200190815260200160002060006101000a81548173ffffffffffffffffffffffffffffffffffffffff021916908373ffffffffffffffffffffffffffffffffffffffff160217905550808273ffffffffffffffffffffffffffffffffffffffff16600073ffffffffffffffffffffffffffffffffffffffff167fddf252ad1be2c89b69c2b068fc378daa952ba7f163c4a11628f55a4df523b3ef60405160405180910390a45050565b600080823b905060008111915050919050565b828054612e229061508d565b90600052602060002090601f016020900481019282612e445760008555612e8b565b82601f10612e5d57805160ff1916838001178555612e8b565b82800160010185558215612e8b579182015b82811115612e8a578251825591602001919060010190612e6f565b5b509050612e989190612edc565b5090565b508054612ea89061508d565b6000825580601f10612eba5750612ed9565b601f016020900490600052602060002090810190612ed89190612edc565b5b50565b5b80821115612ef5576000816000905550600101612edd565b5090565b6000612f0c612f0784614da6565b614d75565b905082815260208101848484011115612f2457600080fd5b612f2f84828561504b565b509392505050565b6000612f4a612f4584614dd6565b614d75565b905082815260208101848484011115612f6257600080fd5b612f6d84828561504b565b509392505050565b600081359050612f8481615206565b92915050565b600081359050612f998161521d565b92915050565b600081359050612fae81615234565b92915050565b600081519050612fc381615234565b92915050565b600082601f830112612fda57600080fd5b8135612fea848260208601612ef9565b91505092915050565b6000815190506130028161524b565b92915050565b600082601f83011261301957600080fd5b8135613029848260208601612f37565b91505092915050565b60008135905061304181615262565b92915050565b60008151905061305681615262565b92915050565b60008151905061306b81615279565b92915050565b60006020828403121561308357600080fd5b600061309184828501612f75565b91505092915050565b600080604083850312156130ad57600080fd5b60006130bb85828601612f75565b92505060206130cc85828601612f75565b9150509250929050565b6000806000606084860312156130eb57600080fd5b60006130f986828701612f75565b935050602061310a86828701612f75565b925050604061311b86828701613032565b9150509250925092565b6000806000806080858703121561313b57600080fd5b600061314987828801612f75565b945050602061315a87828801612f75565b935050604061316b87828801613032565b925050606085013567ffffffffffffffff81111561318857600080fd5b61319487828801612fc9565b91505092959194509250565b600080604083850312156131b357600080fd5b60006131c185828601612f75565b92505060206131d285828601612f8a565b9150509250929050565b600080604083850312156131ef57600080fd5b60006131fd85828601612f75565b925050602061320e85828601613032565b9150509250929050565b60006020828403121561322a57600080fd5b600061323884828501612f9f565b91505092915050565b60006020828403121561325357600080fd5b600061326184828501612fb4565b91505092915050565b60006020828403121561327c57600080fd5b600082013567ffffffffffffffff81111561329657600080fd5b6132a284828501613008565b91505092915050565b600080600080600080600080610100898b0312156132c857600080fd5b600089013567ffffffffffffffff8111156132e257600080fd5b6132ee8b828c01613008565b985050602089013567ffffffffffffffff81111561330b57600080fd5b6133178b828c01613008565b975050604089013567ffffffffffffffff81111561333457600080fd5b6133408b828c01613008565b965050606089013567ffffffffffffffff81111561335d57600080fd5b6133698b828c01613008565b955050608089013567ffffffffffffffff81111561338657600080fd5b6133928b828c01613008565b94505060a06133a38b828c01612f8a565b93505060c06133b48b828c01613032565b92505060e06133c58b828c01613032565b9150509295985092959890939650565b6000602082840312156133e757600080fd5b60006133f584828501613032565b91505092915050565b6000806040838503121561341157600080fd5b600061341f85828601613032565b925050602061343085828601613032565b9150509250929050565b600080600080600060a0868803121561345257600080fd5b60006134608882890161305c565b955050602061347188828901612ff3565b945050604061348288828901613047565b935050606061349388828901613047565b92505060806134a48882890161305c565b9150509295509295909350565b60006134bd83836145e1565b60208301905092915050565b6134d281614fb7565b82525050565b60006134e382614e2b565b6134ed8185614e59565b93506134f883614e06565b8060005b8381101561352957815161351088826134b1565b975061351b83614e4c565b9250506001810190506134fc565b5085935050505092915050565b61353f81614fc9565b82525050565b600061355082614e36565b61355a8185614e6a565b935061356a81856020860161505a565b613573816151f5565b840191505092915050565b600061358982614e41565b6135938185614e86565b93506135a381856020860161505a565b6135ac816151f5565b840191505092915050565b60006135c282614e41565b6135cc8185614e97565b93506135dc81856020860161505a565b80840191505092915050565b600081546135f58161508d565b6135ff8186614e97565b9450600182166000811461361a576001811461362b5761365e565b60ff1983168652818601935061365e565b61363485614e16565b60005b8381101561365657815481890152600182019150602081019050613637565b838801955050505b50505092915050565b6000613674604383614e97565b91507f226465736372697074696f6e223a2022556e6520636f6c6c656374696f6e207160008301527f756920726570726573656e7465206465732062696c6c6574732064206176696f60208301527f6e222c00000000000000000000000000000000000000000000000000000000006040830152604382019050919050565b6000613700601083614e97565b91507f22626f617264696e6754696d65223a22000000000000000000000000000000006000830152601082019050919050565b6000613740600283614e97565b91507f7d2c0000000000000000000000000000000000000000000000000000000000006000830152600282019050919050565b6000613780601c83614e97565b91507f2274726169745f74797065223a202244657374696e6174696f6e222c000000006000830152601c82019050919050565b60006137c0600b83614e97565b91507f2263616e63656c6564223a0000000000000000000000000000000000000000006000830152600b82019050919050565b6000613800601c83614e86565b91507f5468697320666c696768742069736e27742063616e63656c65642121000000006000830152602082019050919050565b6000613840600f83614e86565b91507f4e6f7420796f757220746f6b656e2100000000000000000000000000000000006000830152602082019050919050565b6000613880603283614e86565b91507f4552433732313a207472616e7366657220746f206e6f6e20455243373231526560008301527f63656976657220696d706c656d656e74657200000000000000000000000000006020830152604082019050919050565b60006138e6602683614e86565b91507f4f776e61626c653a206e6577206f776e657220697320746865207a65726f206160008301527f64647265737300000000000000000000000000000000000000000000000000006020830152604082019050919050565b600061394c600283614e97565b91507f222c0000000000000000000000000000000000000000000000000000000000006000830152600282019050919050565b600061398c601c83614e86565b91507f4552433732313a20746f6b656e20616c7265616479206d696e746564000000006000830152602082019050919050565b60006139cc600283614e97565b91507f7d7d0000000000000000000000000000000000000000000000000000000000006000830152600282019050919050565b6000613a0c600883614e97565b91507f227072696365223a0000000000000000000000000000000000000000000000006000830152600882019050919050565b6000613a4c600183614e97565b91507f2c000000000000000000000000000000000000000000000000000000000000006000830152600182019050919050565b6000613a8c600983614e97565b91507f7b2264617461223a7b00000000000000000000000000000000000000000000006000830152600982019050919050565b6000613acc601483614e86565b91507f4661696c656420746f2073656e642045746865720000000000000000000000006000830152602082019050919050565b6000613b0c602483614e86565b91507f4552433732313a207472616e7366657220746f20746865207a65726f2061646460008301527f72657373000000000000000000000000000000000000000000000000000000006020830152604082019050919050565b6000613b72601983614e86565b91507f4552433732313a20617070726f766520746f2063616c6c6572000000000000006000830152602082019050919050565b6000613bb2601483614e86565b91507f546f6b656e20646f65736e2774206578697374730000000000000000000000006000830152602082019050919050565b6000613bf2600d83614e97565b91507f22646570617274757265223a22000000000000000000000000000000000000006000830152600d82019050919050565b6000613c32600f83614e97565b91507f2264657374696e6174696f6e223a2200000000000000000000000000000000006000830152600f82019050919050565b6000613c72602c83614e86565b91507f4552433732313a206f70657261746f7220717565727920666f72206e6f6e657860008301527f697374656e7420746f6b656e00000000000000000000000000000000000000006020830152604082019050919050565b6000613cd8600d83614e97565b91507f222d2d204e46542023223a2022000000000000000000000000000000000000006000830152600d82019050919050565b6000613d18600b83614e97565b91507f22746f6b656e4964223a220000000000000000000000000000000000000000006000830152600b82019050919050565b6000613d58600283614e97565b91507f7d5d0000000000000000000000000000000000000000000000000000000000006000830152600282019050919050565b6000613d98601783614e97565b91507f226e616d65223a2022426f617264696e6750617373222c0000000000000000006000830152601782019050919050565b6000613dd8603883614e86565b91507f4552433732313a20617070726f76652063616c6c6572206973206e6f74206f7760008301527f6e6572206e6f7220617070726f76656420666f7220616c6c00000000000000006020830152604082019050919050565b6000613e3e600183614e97565b91507f22000000000000000000000000000000000000000000000000000000000000006000830152600182019050919050565b6000613e7e602a83614e86565b91507f4552433732313a2062616c616e636520717565727920666f7220746865207a6560008301527f726f2061646472657373000000000000000000000000000000000000000000006020830152604082019050919050565b6000613ee4602983614e86565b91507f4552433732313a206f776e657220717565727920666f72206e6f6e657869737460008301527f656e7420746f6b656e00000000000000000000000000000000000000000000006020830152604082019050919050565b6000613f4a601b83614e97565b91507f2274726169745f74797065223a2022497343616e63656c6564222c00000000006000830152601b82019050919050565b6000613f8a602083614e86565b91507f4552433732313a206d696e7420746f20746865207a65726f20616464726573736000830152602082019050919050565b6000613fca601d83614e97565b91507f2274726169745f74797065223a2022426f617264696e6744617465222c0000006000830152601d82019050919050565b600061400a602c83614e86565b91507f4552433732313a20617070726f76656420717565727920666f72206e6f6e657860008301527f697374656e7420746f6b656e00000000000000000000000000000000000000006020830152604082019050919050565b6000614070601d83614e97565b91507f2274726169745f74797065223a2022466c696768744e756d626572222c0000006000830152601d82019050919050565b60006140b0601a83614e97565b91507f2274726169745f74797065223a2022446570617274757265222c0000000000006000830152601a82019050919050565b60006140f0602083614e86565b91507f4f776e61626c653a2063616c6c6572206973206e6f7420746865206f776e65726000830152602082019050919050565b6000614130602983614e86565b91507f4552433732313a207472616e73666572206f6620746f6b656e2074686174206960008301527f73206e6f74206f776e00000000000000000000000000000000000000000000006020830152604082019050919050565b6000614196601d83614e97565b91507f2274726169745f74797065223a2022426f617264696e6754696d65222c0000006000830152601d82019050919050565b60006141d6601083614e97565b91507f22626f617264696e6744617465223a22000000000000000000000000000000006000830152601082019050919050565b6000614216600183614e97565b91507f7b000000000000000000000000000000000000000000000000000000000000006000830152600182019050919050565b6000614256600f83614e97565b91507f2261747472696275746573223a205b00000000000000000000000000000000006000830152600f82019050919050565b6000614296600a83614e97565b91507f2276616c7565223a2022000000000000000000000000000000000000000000006000830152600a82019050919050565b60006142d6604a83614e97565b91507f22696d616765223a202268747470733a2f2f696d616765732e656d6f6a69746560008301527f7272612e636f6d2f676f6f676c652f616e64726f69642d31312f35313270782f60208301527f323730382e706e67222c000000000000000000000000000000000000000000006040830152604a82019050919050565b6000614362602183614e86565b91507f4552433732313a20617070726f76616c20746f2063757272656e74206f776e6560008301527f72000000000000000000000000000000000000000000000000000000000000006020830152604082019050919050565b60006143c8601d83614e97565b91507f646174613a6170706c69636174696f6e2f6a736f6e3b6261736536342c0000006000830152601d82019050919050565b6000614408600083614e7b565b9150600082019050919050565b6000614422603183614e86565b91507f4552433732313a207472616e736665722063616c6c6572206973206e6f74206f60008301527f776e6572206e6f7220617070726f7665640000000000000000000000000000006020830152604082019050919050565b6000614488601083614e86565b91507f4e6f7420656e6f756768204574686572000000000000000000000000000000006000830152602082019050919050565b60006144c8600b83614e97565b91507f226574685072696365223a0000000000000000000000000000000000000000006000830152600b82019050919050565b6000614508601683614e97565b91507f2274726169745f74797065223a20225072696365222c000000000000000000006000830152601682019050919050565b6000614548602683614e86565b91507f436f6e747261637427732062616c616e6365206861736e277420656e6f75676860008301527f20457468657200000000000000000000000000000000000000000000000000006020830152604082019050919050565b60006145ae600783614e97565b91507f226e756d223a22000000000000000000000000000000000000000000000000006000830152600782019050919050565b6145ea8161502b565b82525050565b6145f98161502b565b82525050565b600061460b82846135b7565b915081905092915050565b600061462282846135e8565b915081905092915050565b600061463882613a7f565b915061464382613d0b565b915061464f828c6135b7565b915061465a8261393f565b9150614665826145a1565b9150614671828b6135b7565b915061467c8261393f565b915061468782613be5565b9150614693828a6135b7565b915061469e8261393f565b91506146a982613c25565b91506146b582896135b7565b91506146c08261393f565b91506146cb826141c9565b91506146d782886135b7565b91506146e28261393f565b91506146ed826136f3565b91506146f982876135b7565b91506147048261393f565b915061470f826137b3565b915061471b82866135b7565b915061472682613a3f565b9150614731826139ff565b915061473d82856135b7565b915061474882613a3f565b9150614753826144bb565b915061475f82846135b7565b915061476a826139bf565b91508190509a9950505050505050505050565b600061478882614209565b915061479382613d8b565b915061479e82613ccb565b91506147aa828b6135b7565b91506147b58261393f565b91506147c082613667565b91506147cb826142c9565b91506147d682614249565b91506147e182614209565b91506147ec82614063565b91506147f782614289565b9150614803828a6135b7565b915061480e82613e31565b915061481982613733565b915061482482614209565b915061482f826140a3565b915061483a82614289565b915061484682896135b7565b915061485182613e31565b915061485c82613733565b915061486782614209565b915061487282613773565b915061487d82614289565b915061488982886135b7565b915061489482613e31565b915061489f82613733565b91506148aa82614209565b91506148b582613fbd565b91506148c082614289565b91506148cc82876135b7565b91506148d782613e31565b91506148e282613733565b91506148ed82614209565b91506148f882614189565b915061490382614289565b915061490f82866135b7565b915061491a82613e31565b915061492582613733565b915061493082614209565b915061493b82613f3d565b915061494682614289565b915061495282856135b7565b915061495d82613e31565b915061496882613733565b915061497382614209565b915061497e826144fb565b915061498982614289565b915061499582846135b7565b91506149a082613e31565b91506149ab82613d4b565b91508190509998505050505050505050565b60006149c8826143bb565b91506149d482846135b7565b915081905092915050565b60006149ea826143fb565b9150819050919050565b6000602082019050614a0960008301846134c9565b92915050565b6000608082019050614a2460008301876134c9565b614a3160208301866134c9565b614a3e60408301856145f0565b8181036060830152614a508184613545565b905095945050505050565b60006020820190508181036000830152614a7581846134d8565b905092915050565b6000602082019050614a926000830184613536565b92915050565b60006020820190508181036000830152614ab2818461357e565b905092915050565b60006020820190508181036000830152614ad3816137f3565b9050919050565b60006020820190508181036000830152614af381613833565b9050919050565b60006020820190508181036000830152614b1381613873565b9050919050565b60006020820190508181036000830152614b33816138d9565b9050919050565b60006020820190508181036000830152614b538161397f565b9050919050565b60006020820190508181036000830152614b7381613abf565b9050919050565b60006020820190508181036000830152614b9381613aff565b9050919050565b60006020820190508181036000830152614bb381613b65565b9050919050565b60006020820190508181036000830152614bd381613ba5565b9050919050565b60006020820190508181036000830152614bf381613c65565b9050919050565b60006020820190508181036000830152614c1381613dcb565b9050919050565b60006020820190508181036000830152614c3381613e71565b9050919050565b60006020820190508181036000830152614c5381613ed7565b9050919050565b60006020820190508181036000830152614c7381613f7d565b9050919050565b60006020820190508181036000830152614c9381613ffd565b9050919050565b60006020820190508181036000830152614cb3816140e3565b9050919050565b60006020820190508181036000830152614cd381614123565b9050919050565b60006020820190508181036000830152614cf381614355565b9050919050565b60006020820190508181036000830152614d1381614415565b9050919050565b60006020820190508181036000830152614d338161447b565b9050919050565b60006020820190508181036000830152614d538161453b565b9050919050565b6000602082019050614d6f60008301846145f0565b92915050565b6000604051905081810181811067ffffffffffffffff82111715614d9c57614d9b6151c6565b5b8060405250919050565b600067ffffffffffffffff821115614dc157614dc06151c6565b5b601f19601f8301169050602081019050919050565b600067ffffffffffffffff821115614df157614df06151c6565b5b601f19601f8301169050602081019050919050565b6000819050602082019050919050565b60008190508160005260206000209050919050565b600081519050919050565b600081519050919050565b600081519050919050565b6000602082019050919050565b600082825260208201905092915050565b600082825260208201905092915050565b600081905092915050565b600082825260208201905092915050565b600081905092915050565b6000614ead8261502b565b9150614eb88361502b565b9250827fffffffffffffffffffffffffffffffffffffffffffffffffffffffffffffffff03821115614eed57614eec615139565b5b828201905092915050565b6000614f038261502b565b9150614f0e8361502b565b925082614f1e57614f1d615168565b5b828204905092915050565b6000614f348261502b565b9150614f3f8361502b565b9250817fffffffffffffffffffffffffffffffffffffffffffffffffffffffffffffffff0483118215151615614f7857614f77615139565b5b828202905092915050565b6000614f8e8261502b565b9150614f998361502b565b925082821015614fac57614fab615139565b5b828203905092915050565b6000614fc28261500b565b9050919050565b60008115159050919050565b60007fffffffff0000000000000000000000000000000000000000000000000000000082169050919050565b6000819050919050565b600073ffffffffffffffffffffffffffffffffffffffff82169050919050565b6000819050919050565b600069ffffffffffffffffffff82169050919050565b82818337600083830152505050565b60005b8381101561507857808201518184015260208101905061505d565b83811115615087576000848401525b50505050565b600060028204905060018216806150a557607f821691505b602082108114156150b9576150b8615197565b5b50919050565b60006150ca8261502b565b91507fffffffffffffffffffffffffffffffffffffffffffffffffffffffffffffffff8214156150fd576150fc615139565b5b600182019050919050565b60006151138261502b565b915061511e8361502b565b92508261512e5761512d615168565b5b828206905092915050565b7f4e487b7100000000000000000000000000000000000000000000000000000000600052601160045260246000fd5b7f4e487b7100000000000000000000000000000000000000000000000000000000600052601260045260246000fd5b7f4e487b7100000000000000000000000000000000000000000000000000000000600052602260045260246000fd5b7f4e487b7100000000000000000000000000000000000000000000000000000000600052604160045260246000fd5b6000601f19601f8301169050919050565b61520f81614fb7565b811461521a57600080fd5b50565b61522681614fc9565b811461523157600080fd5b50565b61523d81614fd5565b811461524857600080fd5b50565b61525481615001565b811461525f57600080fd5b50565b61526b8161502b565b811461527657600080fd5b50565b61528281615035565b811461528d57600080fd5b5056fe4142434445464748494a4b4c4d4e4f505152535455565758595a6162636465666768696a6b6c6d6e6f707172737475767778797a303132333435363738392b2fa2646970667358221220ee0ef2c1dabd20e14ba677610e08f55b38c061379de78ac9c9ce89ff141de94164736f6c63430008000033",
  "linkReferences": {},
  "deployedLinkReferences": {}
}