{
  "_format": "hh-sol-artifact-1",
  "contractName": "BoardingPass",
  "sourceName": "contracts/BoardingPass.sol",
  "abi": [
    {
      "inputs": [],
      "stateMutability": "nonpayable",
      "type": "constructor"
    },
    {
      "anonymous": false,
      "inputs": [
        {
          "indexed": true,
          "internalType": "address",
          "name": "owner",
          "type": "address"
        },
        {
          "indexed": true,
          "internalType": "address",
          "name": "approved",
          "type": "address"
        },
        {
          "indexed": true,
          "internalType": "uint256",
          "name": "tokenId",
          "type": "uint256"
        }
      ],
      "name": "Approval",
      "type": "event"
    },
    {
      "anonymous": false,
      "inputs": [
        {
          "indexed": true,
          "internalType": "address",
          "name": "owner",
          "type": "address"
        },
        {
          "indexed": true,
          "internalType": "address",
          "name": "operator",
          "type": "address"
        },
        {
          "indexed": false,
          "internalType": "bool",
          "name": "approved",
          "type": "bool"
        }
      ],
      "name": "ApprovalForAll",
      "type": "event"
    },
    {
      "anonymous": false,
      "inputs": [
        {
          "indexed": true,
          "internalType": "address",
          "name": "previousOwner",
          "type": "address"
        },
        {
          "indexed": true,
          "internalType": "address",
          "name": "newOwner",
          "type": "address"
        }
      ],
      "name": "OwnershipTransferred",
      "type": "event"
    },
    {
      "anonymous": false,
      "inputs": [
        {
          "indexed": true,
          "internalType": "address",
          "name": "from",
          "type": "address"
        },
        {
          "indexed": true,
          "internalType": "address",
          "name": "to",
          "type": "address"
        },
        {
          "indexed": true,
          "internalType": "uint256",
          "name": "tokenId",
          "type": "uint256"
        }
      ],
      "name": "Transfer",
      "type": "event"
    },
    {
      "inputs": [
        {
          "internalType": "address",
          "name": "to",
          "type": "address"
        },
        {
          "internalType": "uint256",
          "name": "tokenId",
          "type": "uint256"
        }
      ],
      "name": "approve",
      "outputs": [],
      "stateMutability": "nonpayable",
      "type": "function"
    },
    {
      "inputs": [
        {
          "internalType": "address",
          "name": "owner",
          "type": "address"
        }
      ],
      "name": "balanceOf",
      "outputs": [
        {
          "internalType": "uint256",
          "name": "",
          "type": "uint256"
        }
      ],
      "stateMutability": "view",
      "type": "function"
    },
    {
      "inputs": [
        {
          "internalType": "address",
          "name": "_from",
          "type": "address"
        }
      ],
      "name": "getAllTokensFromAdress",
      "outputs": [
        {
          "internalType": "uint256[]",
          "name": "",
          "type": "uint256[]"
        }
      ],
      "stateMutability": "view",
      "type": "function"
    },
    {
      "inputs": [
        {
          "internalType": "uint256",
          "name": "tokenId",
          "type": "uint256"
        }
      ],
      "name": "getApproved",
      "outputs": [
        {
          "internalType": "address",
          "name": "",
          "type": "address"
        }
      ],
      "stateMutability": "view",
      "type": "function"
    },
    {
      "inputs": [
        {
          "internalType": "uint256",
          "name": "tokenId",
          "type": "uint256"
        }
      ],
      "name": "getTokenURI",
      "outputs": [
        {
          "internalType": "string",
          "name": "",
          "type": "string"
        }
      ],
      "stateMutability": "view",
      "type": "function"
    },
    {
      "inputs": [
        {
          "internalType": "address",
          "name": "owner",
          "type": "address"
        },
        {
          "internalType": "address",
          "name": "operator",
          "type": "address"
        }
      ],
      "name": "isApprovedForAll",
      "outputs": [
        {
          "internalType": "bool",
          "name": "",
          "type": "bool"
        }
      ],
      "stateMutability": "view",
      "type": "function"
    },
    {
      "inputs": [
        {
          "internalType": "string",
          "name": "_tokenURI",
          "type": "string"
        }
      ],
      "name": "mint",
      "outputs": [],
      "stateMutability": "payable",
      "type": "function"
    },
    {
      "inputs": [],
      "name": "name",
      "outputs": [
        {
          "internalType": "string",
          "name": "",
          "type": "string"
        }
      ],
      "stateMutability": "view",
      "type": "function"
    },
    {
      "inputs": [],
      "name": "owner",
      "outputs": [
        {
          "internalType": "address",
          "name": "",
          "type": "address"
        }
      ],
      "stateMutability": "view",
      "type": "function"
    },
    {
      "inputs": [
        {
          "internalType": "uint256",
          "name": "tokenId",
          "type": "uint256"
        }
      ],
      "name": "ownerOf",
      "outputs": [
        {
          "internalType": "address",
          "name": "",
          "type": "address"
        }
      ],
      "stateMutability": "view",
      "type": "function"
    },
    {
      "inputs": [],
      "name": "renounceOwnership",
      "outputs": [],
      "stateMutability": "nonpayable",
      "type": "function"
    },
    {
      "inputs": [
        {
          "internalType": "address",
          "name": "from",
          "type": "address"
        },
        {
          "internalType": "address",
          "name": "to",
          "type": "address"
        },
        {
          "internalType": "uint256",
          "name": "tokenId",
          "type": "uint256"
        }
      ],
      "name": "safeTransferFrom",
      "outputs": [],
      "stateMutability": "nonpayable",
      "type": "function"
    },
    {
      "inputs": [
        {
          "internalType": "address",
          "name": "from",
          "type": "address"
        },
        {
          "internalType": "address",
          "name": "to",
          "type": "address"
        },
        {
          "internalType": "uint256",
          "name": "tokenId",
          "type": "uint256"
        },
        {
          "internalType": "bytes",
          "name": "_data",
          "type": "bytes"
        }
      ],
      "name": "safeTransferFrom",
      "outputs": [],
      "stateMutability": "nonpayable",
      "type": "function"
    },
    {
      "inputs": [
        {
          "internalType": "address",
          "name": "operator",
          "type": "address"
        },
        {
          "internalType": "bool",
          "name": "approved",
          "type": "bool"
        }
      ],
      "name": "setApprovalForAll",
      "outputs": [],
      "stateMutability": "nonpayable",
      "type": "function"
    },
    {
      "inputs": [
        {
          "internalType": "bytes4",
          "name": "interfaceId",
          "type": "bytes4"
        }
      ],
      "name": "supportsInterface",
      "outputs": [
        {
          "internalType": "bool",
          "name": "",
          "type": "bool"
        }
      ],
      "stateMutability": "view",
      "type": "function"
    },
    {
      "inputs": [],
      "name": "symbol",
      "outputs": [
        {
          "internalType": "string",
          "name": "",
          "type": "string"
        }
      ],
      "stateMutability": "view",
      "type": "function"
    },
    {
      "inputs": [
        {
          "internalType": "uint256",
          "name": "tokenId",
          "type": "uint256"
        }
      ],
      "name": "tokenURI",
      "outputs": [
        {
          "internalType": "string",
          "name": "",
          "type": "string"
        }
      ],
      "stateMutability": "view",
      "type": "function"
    },
    {
      "inputs": [
        {
          "internalType": "address",
          "name": "from",
          "type": "address"
        },
        {
          "internalType": "address",
          "name": "to",
          "type": "address"
        },
        {
          "internalType": "uint256",
          "name": "tokenId",
          "type": "uint256"
        }
      ],
      "name": "transferFrom",
      "outputs": [],
      "stateMutability": "nonpayable",
      "type": "function"
    },
    {
      "inputs": [
        {
          "internalType": "address",
          "name": "newOwner",
          "type": "address"
        }
      ],
      "name": "transferOwnership",
      "outputs": [],
      "stateMutability": "nonpayable",
      "type": "function"
    }
  ],
  "bytecode": "0x60806040526040518060600160405280602281526020016200366260229139600a908051906020019062000035929190620001d8565b503480156200004357600080fd5b506040518060400160405280600e81526020017f506c616e6548756220546f6b656e0000000000000000000000000000000000008152506040518060400160405280600381526020017f50485400000000000000000000000000000000000000000000000000000000008152508160009080519060200190620000c8929190620001d8565b508060019080519060200190620000e1929190620001d8565b50505062000104620000f86200010a60201b60201c565b6200011260201b60201c565b620002ed565b600033905090565b6000600660009054906101000a900473ffffffffffffffffffffffffffffffffffffffff16905081600660006101000a81548173ffffffffffffffffffffffffffffffffffffffff021916908373ffffffffffffffffffffffffffffffffffffffff1602179055508173ffffffffffffffffffffffffffffffffffffffff168173ffffffffffffffffffffffffffffffffffffffff167f8be0079c531659141344cd1fd0a4f28419497f9722a3daafe3b4186f6b6457e060405160405180910390a35050565b828054620001e69062000288565b90600052602060002090601f0160209004810192826200020a576000855562000256565b82601f106200022557805160ff191683800117855562000256565b8280016001018555821562000256579182015b828111156200025557825182559160200191906001019062000238565b5b50905062000265919062000269565b5090565b5b80821115620002845760008160009055506001016200026a565b5090565b60006002820490506001821680620002a157607f821691505b60208210811415620002b857620002b7620002be565b5b50919050565b7f4e487b7100000000000000000000000000000000000000000000000000000000600052602260045260246000fd5b61336580620002fd6000396000f3fe6080604052600436106101145760003560e01c8063715018a6116100a0578063c87b56dd11610064578063c87b56dd146103af578063d85d3d27146103ec578063dbbc7d8014610408578063e985e9c514610445578063f2fde38b1461048257610114565b8063715018a6146102f05780638da5cb5b1461030757806395d89b4114610332578063a22cb4651461035d578063b88d4fde1461038657610114565b806323b872dd116100e757806323b872dd146101e75780633bb3a24d1461021057806342842e0e1461024d5780636352211e1461027657806370a08231146102b357610114565b806301ffc9a71461011957806306fdde0314610156578063081812fc14610181578063095ea7b3146101be575b600080fd5b34801561012557600080fd5b50610140600480360381019061013b91906122c0565b6104ab565b60405161014d9190612c4f565b60405180910390f35b34801561016257600080fd5b5061016b61058d565b6040516101789190612c6a565b60405180910390f35b34801561018d57600080fd5b506101a860048036038101906101a39190612353565b61061f565b6040516101b59190612bc6565b60405180910390f35b3480156101ca57600080fd5b506101e560048036038101906101e09190612284565b6106a4565b005b3480156101f357600080fd5b5061020e6004803603810190610209919061217e565b6107bc565b005b34801561021c57600080fd5b5061023760048036038101906102329190612353565b61081c565b6040516102449190612c6a565b60405180910390f35b34801561025957600080fd5b50610274600480360381019061026f919061217e565b6108c1565b005b34801561028257600080fd5b5061029d60048036038101906102989190612353565b6108e1565b6040516102aa9190612bc6565b60405180910390f35b3480156102bf57600080fd5b506102da60048036038101906102d59190612119565b610993565b6040516102e79190612eac565b60405180910390f35b3480156102fc57600080fd5b50610305610a4b565b005b34801561031357600080fd5b5061031c610ad3565b6040516103299190612bc6565b60405180910390f35b34801561033e57600080fd5b50610347610afd565b6040516103549190612c6a565b60405180910390f35b34801561036957600080fd5b50610384600480360381019061037f9190612248565b610b8f565b005b34801561039257600080fd5b506103ad60048036038101906103a891906121cd565b610d10565b005b3480156103bb57600080fd5b506103d660048036038101906103d19190612353565b610d72565b6040516103e39190612c6a565b60405180910390f35b61040660048036038101906104019190612312565b610e19565b005b34801561041457600080fd5b5061042f600480360381019061042a9190612119565b610ff1565b60405161043c9190612c2d565b60405180910390f35b34801561045157600080fd5b5061046c60048036038101906104679190612142565b611088565b6040516104799190612c4f565b60405180910390f35b34801561048e57600080fd5b506104a960048036038101906104a49190612119565b61111c565b005b60007f80ac58cd000000000000000000000000000000000000000000000000000000007bffffffffffffffffffffffffffffffffffffffffffffffffffffffff1916827bffffffffffffffffffffffffffffffffffffffffffffffffffffffff1916148061057657507f5b5e139f000000000000000000000000000000000000000000000000000000007bffffffffffffffffffffffffffffffffffffffffffffffffffffffff1916827bffffffffffffffffffffffffffffffffffffffffffffffffffffffff1916145b80610586575061058582611214565b5b9050919050565b60606000805461059c9061315a565b80601f01602080910402602001604051908101604052809291908181526020018280546105c89061315a565b80156106155780601f106105ea57610100808354040283529160200191610615565b820191906000526020600020905b8154815290600101906020018083116105f857829003601f168201915b5050505050905090565b600061062a8261127e565b610669576040517f08c379a000000000000000000000000000000000000000000000000000000000815260040161066090612dec565b60405180910390fd5b6004600083815260200190815260200160002060009054906101000a900473ffffffffffffffffffffffffffffffffffffffff169050919050565b60006106af826108e1565b90508073ffffffffffffffffffffffffffffffffffffffff168373ffffffffffffffffffffffffffffffffffffffff161415610720576040517f08c379a000000000000000000000000000000000000000000000000000000000815260040161071790612e6c565b60405180910390fd5b8073ffffffffffffffffffffffffffffffffffffffff1661073f6112ea565b73ffffffffffffffffffffffffffffffffffffffff16148061076e575061076d816107686112ea565b611088565b5b6107ad576040517f08c379a00000000000000000000000000000000000000000000000000000000081526004016107a490612d6c565b60405180910390fd5b6107b783836112f2565b505050565b6107cd6107c76112ea565b826113ab565b61080c576040517f08c379a000000000000000000000000000000000000000000000000000000000815260040161080390612e8c565b60405180910390fd5b610817838383611489565b505050565b606060096000838152602001908152602001600020805461083c9061315a565b80601f01602080910402602001604051908101604052809291908181526020018280546108689061315a565b80156108b55780601f1061088a576101008083540402835291602001916108b5565b820191906000526020600020905b81548152906001019060200180831161089857829003601f168201915b50505050509050919050565b6108dc83838360405180602001604052806000815250610d10565b505050565b6000806002600084815260200190815260200160002060009054906101000a900473ffffffffffffffffffffffffffffffffffffffff169050600073ffffffffffffffffffffffffffffffffffffffff168173ffffffffffffffffffffffffffffffffffffffff16141561098a576040517f08c379a000000000000000000000000000000000000000000000000000000000815260040161098190612dac565b60405180910390fd5b80915050919050565b60008073ffffffffffffffffffffffffffffffffffffffff168273ffffffffffffffffffffffffffffffffffffffff161415610a04576040517f08c379a00000000000000000000000000000000000000000000000000000000081526004016109fb90612d8c565b60405180910390fd5b600360008373ffffffffffffffffffffffffffffffffffffffff1673ffffffffffffffffffffffffffffffffffffffff168152602001908152602001600020549050919050565b610a536112ea565b73ffffffffffffffffffffffffffffffffffffffff16610a71610ad3565b73ffffffffffffffffffffffffffffffffffffffff1614610ac7576040517f08c379a0000000000000000000000000000000000000000000000000000000008152600401610abe90612e0c565b60405180910390fd5b610ad160006116e5565b565b6000600660009054906101000a900473ffffffffffffffffffffffffffffffffffffffff16905090565b606060018054610b0c9061315a565b80601f0160208091040260200160405190810160405280929190818152602001828054610b389061315a565b8015610b855780601f10610b5a57610100808354040283529160200191610b85565b820191906000526020600020905b815481529060010190602001808311610b6857829003601f168201915b5050505050905090565b610b976112ea565b73ffffffffffffffffffffffffffffffffffffffff168273ffffffffffffffffffffffffffffffffffffffff161415610c05576040517f08c379a0000000000000000000000000000000000000000000000000000000008152600401610bfc90612d0c565b60405180910390fd5b8060056000610c126112ea565b73ffffffffffffffffffffffffffffffffffffffff1673ffffffffffffffffffffffffffffffffffffffff16815260200190815260200160002060008473ffffffffffffffffffffffffffffffffffffffff1673ffffffffffffffffffffffffffffffffffffffff16815260200190815260200160002060006101000a81548160ff0219169083151502179055508173ffffffffffffffffffffffffffffffffffffffff16610cbf6112ea565b73ffffffffffffffffffffffffffffffffffffffff167f17307eab39ab6107e8899845ad3d59bd9653f200f220920489ca2b5937696c3183604051610d049190612c4f565b60405180910390a35050565b610d21610d1b6112ea565b836113ab565b610d60576040517f08c379a0000000000000000000000000000000000000000000000000000000008152600401610d5790612e8c565b60405180910390fd5b610d6c848484846117ab565b50505050565b6060610d7d8261127e565b610dbc576040517f08c379a0000000000000000000000000000000000000000000000000000000008152600401610db390612e4c565b60405180910390fd5b6000610dc6611807565b90506000815111610de65760405180602001604052806000815250610e11565b80610df08461181e565b604051602001610e01929190612b7e565b6040516020818303038152906040525b915050919050565b610e576040518060400160405280600181526020017f31000000000000000000000000000000000000000000000000000000000000008152506119cb565b610e616007611a64565b610e9f6040518060400160405280600181526020017f32000000000000000000000000000000000000000000000000000000000000008152506119cb565b610eb233610ead6007611a7a565b611a88565b610ef06040518060400160405280600181526020017f33000000000000000000000000000000000000000000000000000000000000008152506119cb565b610f03610efd6007611a7a565b82611aa6565b610f416040518060400160405280600181526020017f34000000000000000000000000000000000000000000000000000000000000008152506119cb565b600860003373ffffffffffffffffffffffffffffffffffffffff1673ffffffffffffffffffffffffffffffffffffffff168152602001908152602001600020610f8a6007611a7a565b9080600181540180825580915050600190039060005260206000200160009091909190915055610fee6040518060400160405280600181526020017f35000000000000000000000000000000000000000000000000000000000000008152506119cb565b50565b6060600860008373ffffffffffffffffffffffffffffffffffffffff1673ffffffffffffffffffffffffffffffffffffffff16815260200190815260200160002080548060200260200160405190810160405280929190818152602001828054801561107c57602002820191906000526020600020905b815481526020019060010190808311611068575b50505050509050919050565b6000600560008473ffffffffffffffffffffffffffffffffffffffff1673ffffffffffffffffffffffffffffffffffffffff16815260200190815260200160002060008373ffffffffffffffffffffffffffffffffffffffff1673ffffffffffffffffffffffffffffffffffffffff16815260200190815260200160002060009054906101000a900460ff16905092915050565b6111246112ea565b73ffffffffffffffffffffffffffffffffffffffff16611142610ad3565b73ffffffffffffffffffffffffffffffffffffffff1614611198576040517f08c379a000000000000000000000000000000000000000000000000000000000815260040161118f90612e0c565b60405180910390fd5b600073ffffffffffffffffffffffffffffffffffffffff168173ffffffffffffffffffffffffffffffffffffffff161415611208576040517f08c379a00000000000000000000000000000000000000000000000000000000081526004016111ff90612cac565b60405180910390fd5b611211816116e5565b50565b60007f01ffc9a7000000000000000000000000000000000000000000000000000000007bffffffffffffffffffffffffffffffffffffffffffffffffffffffff1916827bffffffffffffffffffffffffffffffffffffffffffffffffffffffff1916149050919050565b60008073ffffffffffffffffffffffffffffffffffffffff166002600084815260200190815260200160002060009054906101000a900473ffffffffffffffffffffffffffffffffffffffff1673ffffffffffffffffffffffffffffffffffffffff1614159050919050565b600033905090565b816004600083815260200190815260200160002060006101000a81548173ffffffffffffffffffffffffffffffffffffffff021916908373ffffffffffffffffffffffffffffffffffffffff160217905550808273ffffffffffffffffffffffffffffffffffffffff16611365836108e1565b73ffffffffffffffffffffffffffffffffffffffff167f8c5be1e5ebec7d5bd14f71427d1e84f3dd0314c0f7b2291e5b200ac8c7c3b92560405160405180910390a45050565b60006113b68261127e565b6113f5576040517f08c379a00000000000000000000000000000000000000000000000000000000081526004016113ec90612d4c565b60405180910390fd5b6000611400836108e1565b90508073ffffffffffffffffffffffffffffffffffffffff168473ffffffffffffffffffffffffffffffffffffffff16148061146f57508373ffffffffffffffffffffffffffffffffffffffff166114578461061f565b73ffffffffffffffffffffffffffffffffffffffff16145b80611480575061147f8185611088565b5b91505092915050565b8273ffffffffffffffffffffffffffffffffffffffff166114a9826108e1565b73ffffffffffffffffffffffffffffffffffffffff16146114ff576040517f08c379a00000000000000000000000000000000000000000000000000000000081526004016114f690612e2c565b60405180910390fd5b600073ffffffffffffffffffffffffffffffffffffffff168273ffffffffffffffffffffffffffffffffffffffff16141561156f576040517f08c379a000000000000000000000000000000000000000000000000000000000815260040161156690612cec565b60405180910390fd5b61157a838383611b3c565b6115856000826112f2565b6001600360008573ffffffffffffffffffffffffffffffffffffffff1673ffffffffffffffffffffffffffffffffffffffff16815260200190815260200160002060008282546115d59190613070565b925050819055506001600360008473ffffffffffffffffffffffffffffffffffffffff1673ffffffffffffffffffffffffffffffffffffffff168152602001908152602001600020600082825461162c9190612fe9565b92505081905550816002600083815260200190815260200160002060006101000a81548173ffffffffffffffffffffffffffffffffffffffff021916908373ffffffffffffffffffffffffffffffffffffffff160217905550808273ffffffffffffffffffffffffffffffffffffffff168473ffffffffffffffffffffffffffffffffffffffff167fddf252ad1be2c89b69c2b068fc378daa952ba7f163c4a11628f55a4df523b3ef60405160405180910390a4505050565b6000600660009054906101000a900473ffffffffffffffffffffffffffffffffffffffff16905081600660006101000a81548173ffffffffffffffffffffffffffffffffffffffff021916908373ffffffffffffffffffffffffffffffffffffffff1602179055508173ffffffffffffffffffffffffffffffffffffffff168173ffffffffffffffffffffffffffffffffffffffff167f8be0079c531659141344cd1fd0a4f28419497f9722a3daafe3b4186f6b6457e060405160405180910390a35050565b6117b6848484611489565b6117c284848484611b41565b611801576040517f08c379a00000000000000000000000000000000000000000000000000000000081526004016117f890612c8c565b60405180910390fd5b50505050565b606060405180602001604052806000815250905090565b60606000821415611866576040518060400160405280600181526020017f300000000000000000000000000000000000000000000000000000000000000081525090506119c6565b600082905060005b600082146118985780806118819061318c565b915050600a82611891919061303f565b915061186e565b60008167ffffffffffffffff8111156118da577f4e487b7100000000000000000000000000000000000000000000000000000000600052604160045260246000fd5b6040519080825280601f01601f19166020018201604052801561190c5781602001600182028036833780820191505090505b5090505b600085146119bf576001826119259190613070565b9150600a8561193491906131d5565b60306119409190612fe9565b60f81b81838151811061197c577f4e487b7100000000000000000000000000000000000000000000000000000000600052603260045260246000fd5b60200101907effffffffffffffffffffffffffffffffffffffffffffffffffffffffffffff1916908160001a905350600a856119b8919061303f565b9450611910565b8093505050505b919050565b611a61816040516024016119df9190612c6a565b6040516020818303038152906040527f41304fac000000000000000000000000000000000000000000000000000000007bffffffffffffffffffffffffffffffffffffffffffffffffffffffff19166020820180517bffffffffffffffffffffffffffffffffffffffffffffffffffffffff8381831617835250505050611cd8565b50565b6001816000016000828254019250508190555050565b600081600001549050919050565b611aa2828260405180602001604052806000815250611d01565b5050565b611aaf8261127e565b611aee576040517f08c379a0000000000000000000000000000000000000000000000000000000008152600401611ae590612d2c565b60405180910390fd5b600a81604051602001611b02929190612ba2565b604051602081830303815290604052600960008481526020019081526020016000209080519060200190611b37929190611f3d565b505050565b505050565b6000611b628473ffffffffffffffffffffffffffffffffffffffff16611d5c565b15611ccb578373ffffffffffffffffffffffffffffffffffffffff1663150b7a02611b8b6112ea565b8786866040518563ffffffff1660e01b8152600401611bad9493929190612be1565b602060405180830381600087803b158015611bc757600080fd5b505af1925050508015611bf857506040513d601f19601f82011682018060405250810190611bf591906122e9565b60015b611c7b573d8060008114611c28576040519150601f19603f3d011682016040523d82523d6000602084013e611c2d565b606091505b50600081511415611c73576040517f08c379a0000000000000000000000000000000000000000000000000000000008152600401611c6a90612c8c565b60405180910390fd5b805181602001fd5b63150b7a0260e01b7bffffffffffffffffffffffffffffffffffffffffffffffffffffffff1916817bffffffffffffffffffffffffffffffffffffffffffffffffffffffff191614915050611cd0565b600190505b949350505050565b60008151905060006a636f6e736f6c652e6c6f679050602083016000808483855afa5050505050565b611d0b8383611d6f565b611d186000848484611b41565b611d57576040517f08c379a0000000000000000000000000000000000000000000000000000000008152600401611d4e90612c8c565b60405180910390fd5b505050565b600080823b905060008111915050919050565b600073ffffffffffffffffffffffffffffffffffffffff168273ffffffffffffffffffffffffffffffffffffffff161415611ddf576040517f08c379a0000000000000000000000000000000000000000000000000000000008152600401611dd690612dcc565b60405180910390fd5b611de88161127e565b15611e28576040517f08c379a0000000000000000000000000000000000000000000000000000000008152600401611e1f90612ccc565b60405180910390fd5b611e3460008383611b3c565b6001600360008473ffffffffffffffffffffffffffffffffffffffff1673ffffffffffffffffffffffffffffffffffffffff1681526020019081526020016000206000828254611e849190612fe9565b92505081905550816002600083815260200190815260200160002060006101000a81548173ffffffffffffffffffffffffffffffffffffffff021916908373ffffffffffffffffffffffffffffffffffffffff160217905550808273ffffffffffffffffffffffffffffffffffffffff16600073ffffffffffffffffffffffffffffffffffffffff167fddf252ad1be2c89b69c2b068fc378daa952ba7f163c4a11628f55a4df523b3ef60405160405180910390a45050565b828054611f499061315a565b90600052602060002090601f016020900481019282611f6b5760008555611fb2565b82601f10611f8457805160ff1916838001178555611fb2565b82800160010185558215611fb2579182015b82811115611fb1578251825591602001919060010190611f96565b5b509050611fbf9190611fc3565b5090565b5b80821115611fdc576000816000905550600101611fc4565b5090565b6000611ff3611fee84612ef8565b612ec7565b90508281526020810184848401111561200b57600080fd5b612016848285613118565b509392505050565b600061203161202c84612f28565b612ec7565b90508281526020810184848401111561204957600080fd5b612054848285613118565b509392505050565b60008135905061206b816132d3565b92915050565b600081359050612080816132ea565b92915050565b60008135905061209581613301565b92915050565b6000815190506120aa81613301565b92915050565b600082601f8301126120c157600080fd5b81356120d1848260208601611fe0565b91505092915050565b600082601f8301126120eb57600080fd5b81356120fb84826020860161201e565b91505092915050565b60008135905061211381613318565b92915050565b60006020828403121561212b57600080fd5b60006121398482850161205c565b91505092915050565b6000806040838503121561215557600080fd5b60006121638582860161205c565b92505060206121748582860161205c565b9150509250929050565b60008060006060848603121561219357600080fd5b60006121a18682870161205c565b93505060206121b28682870161205c565b92505060406121c386828701612104565b9150509250925092565b600080600080608085870312156121e357600080fd5b60006121f18782880161205c565b94505060206122028782880161205c565b935050604061221387828801612104565b925050606085013567ffffffffffffffff81111561223057600080fd5b61223c878288016120b0565b91505092959194509250565b6000806040838503121561225b57600080fd5b60006122698582860161205c565b925050602061227a85828601612071565b9150509250929050565b6000806040838503121561229757600080fd5b60006122a58582860161205c565b92505060206122b685828601612104565b9150509250929050565b6000602082840312156122d257600080fd5b60006122e084828501612086565b91505092915050565b6000602082840312156122fb57600080fd5b60006123098482850161209b565b91505092915050565b60006020828403121561232457600080fd5b600082013567ffffffffffffffff81111561233e57600080fd5b61234a848285016120da565b91505092915050565b60006020828403121561236557600080fd5b600061237384828501612104565b91505092915050565b60006123888383612b60565b60208301905092915050565b61239d816130a4565b82525050565b60006123ae82612f7d565b6123b88185612fab565b93506123c383612f58565b8060005b838110156123f45781516123db888261237c565b97506123e683612f9e565b9250506001810190506123c7565b5085935050505092915050565b61240a816130b6565b82525050565b600061241b82612f88565b6124258185612fbc565b9350612435818560208601613127565b61243e816132c2565b840191505092915050565b600061245482612f93565b61245e8185612fcd565b935061246e818560208601613127565b612477816132c2565b840191505092915050565b600061248d82612f93565b6124978185612fde565b93506124a7818560208601613127565b80840191505092915050565b600081546124c08161315a565b6124ca8186612fde565b945060018216600081146124e557600181146124f657612529565b60ff19831686528186019350612529565b6124ff85612f68565b60005b8381101561252157815481890152600182019150602081019050612502565b838801955050505b50505092915050565b600061253f603283612fcd565b91507f4552433732313a207472616e7366657220746f206e6f6e20455243373231526560008301527f63656976657220696d706c656d656e74657200000000000000000000000000006020830152604082019050919050565b60006125a5602683612fcd565b91507f4f776e61626c653a206e6577206f776e657220697320746865207a65726f206160008301527f64647265737300000000000000000000000000000000000000000000000000006020830152604082019050919050565b600061260b601c83612fcd565b91507f4552433732313a20746f6b656e20616c7265616479206d696e746564000000006000830152602082019050919050565b600061264b602483612fcd565b91507f4552433732313a207472616e7366657220746f20746865207a65726f2061646460008301527f72657373000000000000000000000000000000000000000000000000000000006020830152604082019050919050565b60006126b1601983612fcd565b91507f4552433732313a20617070726f766520746f2063616c6c6572000000000000006000830152602082019050919050565b60006126f1602d83612fcd565b91507f4552433732314d65746164617461203a2055524920736574206f66206e6f6e6560008301527f78697374656e7420746f6b656e000000000000000000000000000000000000006020830152604082019050919050565b6000612757602c83612fcd565b91507f4552433732313a206f70657261746f7220717565727920666f72206e6f6e657860008301527f697374656e7420746f6b656e00000000000000000000000000000000000000006020830152604082019050919050565b60006127bd603883612fcd565b91507f4552433732313a20617070726f76652063616c6c6572206973206e6f74206f7760008301527f6e6572206e6f7220617070726f76656420666f7220616c6c00000000000000006020830152604082019050919050565b6000612823602a83612fcd565b91507f4552433732313a2062616c616e636520717565727920666f7220746865207a6560008301527f726f2061646472657373000000000000000000000000000000000000000000006020830152604082019050919050565b6000612889602983612fcd565b91507f4552433732313a206f776e657220717565727920666f72206e6f6e657869737460008301527f656e7420746f6b656e00000000000000000000000000000000000000000000006020830152604082019050919050565b60006128ef602083612fcd565b91507f4552433732313a206d696e7420746f20746865207a65726f20616464726573736000830152602082019050919050565b600061292f602c83612fcd565b91507f4552433732313a20617070726f76656420717565727920666f72206e6f6e657860008301527f697374656e7420746f6b656e00000000000000000000000000000000000000006020830152604082019050919050565b6000612995602083612fcd565b91507f4f776e61626c653a2063616c6c6572206973206e6f7420746865206f776e65726000830152602082019050919050565b60006129d5602983612fcd565b91507f4552433732313a207472616e73666572206f6620746f6b656e2074686174206960008301527f73206e6f74206f776e00000000000000000000000000000000000000000000006020830152604082019050919050565b6000612a3b602f83612fcd565b91507f4552433732314d657461646174613a2055524920717565727920666f72206e6f60008301527f6e6578697374656e7420746f6b656e00000000000000000000000000000000006020830152604082019050919050565b6000612aa1602183612fcd565b91507f4552433732313a20617070726f76616c20746f2063757272656e74206f776e6560008301527f72000000000000000000000000000000000000000000000000000000000000006020830152604082019050919050565b6000612b07603183612fcd565b91507f4552433732313a207472616e736665722063616c6c6572206973206e6f74206f60008301527f776e6572206e6f7220617070726f7665640000000000000000000000000000006020830152604082019050919050565b612b698161310e565b82525050565b612b788161310e565b82525050565b6000612b8a8285612482565b9150612b968284612482565b91508190509392505050565b6000612bae82856124b3565b9150612bba8284612482565b91508190509392505050565b6000602082019050612bdb6000830184612394565b92915050565b6000608082019050612bf66000830187612394565b612c036020830186612394565b612c106040830185612b6f565b8181036060830152612c228184612410565b905095945050505050565b60006020820190508181036000830152612c4781846123a3565b905092915050565b6000602082019050612c646000830184612401565b92915050565b60006020820190508181036000830152612c848184612449565b905092915050565b60006020820190508181036000830152612ca581612532565b9050919050565b60006020820190508181036000830152612cc581612598565b9050919050565b60006020820190508181036000830152612ce5816125fe565b9050919050565b60006020820190508181036000830152612d058161263e565b9050919050565b60006020820190508181036000830152612d25816126a4565b9050919050565b60006020820190508181036000830152612d45816126e4565b9050919050565b60006020820190508181036000830152612d658161274a565b9050919050565b60006020820190508181036000830152612d85816127b0565b9050919050565b60006020820190508181036000830152612da581612816565b9050919050565b60006020820190508181036000830152612dc58161287c565b9050919050565b60006020820190508181036000830152612de5816128e2565b9050919050565b60006020820190508181036000830152612e0581612922565b9050919050565b60006020820190508181036000830152612e2581612988565b9050919050565b60006020820190508181036000830152612e45816129c8565b9050919050565b60006020820190508181036000830152612e6581612a2e565b9050919050565b60006020820190508181036000830152612e8581612a94565b9050919050565b60006020820190508181036000830152612ea581612afa565b9050919050565b6000602082019050612ec16000830184612b6f565b92915050565b6000604051905081810181811067ffffffffffffffff82111715612eee57612eed613293565b5b8060405250919050565b600067ffffffffffffffff821115612f1357612f12613293565b5b601f19601f8301169050602081019050919050565b600067ffffffffffffffff821115612f4357612f42613293565b5b601f19601f8301169050602081019050919050565b6000819050602082019050919050565b60008190508160005260206000209050919050565b600081519050919050565b600081519050919050565b600081519050919050565b6000602082019050919050565b600082825260208201905092915050565b600082825260208201905092915050565b600082825260208201905092915050565b600081905092915050565b6000612ff48261310e565b9150612fff8361310e565b9250827fffffffffffffffffffffffffffffffffffffffffffffffffffffffffffffffff0382111561303457613033613206565b5b828201905092915050565b600061304a8261310e565b91506130558361310e565b92508261306557613064613235565b5b828204905092915050565b600061307b8261310e565b91506130868361310e565b92508282101561309957613098613206565b5b828203905092915050565b60006130af826130ee565b9050919050565b60008115159050919050565b60007fffffffff0000000000000000000000000000000000000000000000000000000082169050919050565b600073ffffffffffffffffffffffffffffffffffffffff82169050919050565b6000819050919050565b82818337600083830152505050565b60005b8381101561314557808201518184015260208101905061312a565b83811115613154576000848401525b50505050565b6000600282049050600182168061317257607f821691505b6020821081141561318657613185613264565b5b50919050565b60006131978261310e565b91507fffffffffffffffffffffffffffffffffffffffffffffffffffffffffffffffff8214156131ca576131c9613206565b5b600182019050919050565b60006131e08261310e565b91506131eb8361310e565b9250826131fb576131fa613235565b5b828206905092915050565b7f4e487b7100000000000000000000000000000000000000000000000000000000600052601160045260246000fd5b7f4e487b7100000000000000000000000000000000000000000000000000000000600052601260045260246000fd5b7f4e487b7100000000000000000000000000000000000000000000000000000000600052602260045260246000fd5b7f4e487b7100000000000000000000000000000000000000000000000000000000600052604160045260246000fd5b6000601f19601f8301169050919050565b6132dc816130a4565b81146132e757600080fd5b50565b6132f3816130b6565b81146132fe57600080fd5b50565b61330a816130c2565b811461331557600080fd5b50565b6133218161310e565b811461332c57600080fd5b5056fea2646970667358221220d4f80f22735a0fd3742e50759b5462fc5be852a4911591843619b2cecd35d14064736f6c6343000800003368747470733a2f2f676174657761792e70696e6174612e636c6f75642f697066732f",
  "linkReferences": {},
  "deployedLinkReferences": {}
}